:100000000C94F4000C9413010C9413010C94130140
:100010000C9413010C9413010C9413010C94130110
:100020000C9413010C9413010C94C2060C94FD065D
:100030000C9413010C9413010C9413010C94740987
:100040000C945C0B0C9413010C9413010C9413018D
:100050000C9413010C9413010C9413010C94470499
:100060000C9413010C9413010C9413010C941301C0
:100070000C9413010C9413010C9413010C941301B0
:100080000C9413010C9413010C9413010C943C0A6E
:100090000C9413010C9413015706540651064E0696
:1000A0004B064806450642063F063C06390636061C
:1000B000330630062D062A062706240621061E06CC
:1000C0001B061806150612060F060C06090606067C
:1000D00003060006FD05FA05F705F405F105EE0532
:1000E000EB05E805E505E205DF05DC05D905D605E4
:1000F000D305D005CD05CA05C705C405C105BE0594
:10010000BB05B805B505B205AF05AC05A905A60543
:10011000A305A0059D059A059705000100004E0165
:10012000120002000060014300030000A30104016B
:10013000030904A7012202030904CB010C030309EC
:1001400004D9010C0001C11201803601813612016F
:10015000000202000010C0167A040001010203012F
:1001600009024300020100C032090400000102023A
:1001700001000524001001052401010104240206E8
:100180000524060001070582031000400904010050
:10019000020A000000070503024000000705840270
:1001A0004000000403090422034100730054006569
:1001B00000520049004300530020004100630061E9
:1001C00000640065006D00790000000C034C0069BC
:1001D0000070007300790000000C0331003200331E
:1001E000003400350000000011241FBECFEFD0E224
:1001F000DEBFCDBF11E0A0E0B1E0ECE1F7E100E04F
:100200000BBF02C007900D92AA31B107D9F717E0D2
:10021000AAE1B1E001C01D92A435B107E1F70E9447
:1002200079080C948C0B0C94000080E480937C0083
:1002300087E080937A0080917A00806880937A00CA
:1002400080917A00806480937A0080917A0086FDA4
:10025000FCCF80917800909179000895806480931C
:100260007C0080917A00806480937A0080917A008B
:1002700086FDFCCF2091780030917900C901089566
:1002800080E494E590932B0180932A0182E094EA24
:1002900090932D0180932C01089596B19695969593
:1002A0009695909591704A9B92604B9B946080913B
:1002B0005105981711F480E008959093510581E05D
:1002C00008950E944D01809151058093350181E090
:1002D00090E090932F0180932E0108950F931F9328
:1002E00084E090E00E942E018C0185E090E00E9465
:1002F0002E01081B190B009335011093360187E07E
:1003000090E00E942E018C0186E090E00E942E0178
:10031000081B190B009337011093380180E090E01F
:100320000E942E018093390190933A0186E090E07B
:1003300090932F0180932E011F910F910895A5E3B3
:10034000B1E0E2E5F5E080E092E001900D920197E6
:10035000E1F708950F931F930AE211E0C8016BE0E3
:1003600070E00E94490560912E0170912F01C80133
:100370000B960E9449051F910F9108958091E80006
:1003800085FF09C080913301909134019062909370
:100390003401809333018091E80085FD0AC01092FA
:1003A0002F0110922E018AE291E06BE070E00E9432
:1003B0004905089584E090E090932F0180932E01E9
:1003C0008AE291E06BE070E00E94490560912E01A5
:1003D00070912F0180E091E00E944905089580917D
:1003E000E80085FF09C0809133019091340190624B
:1003F00090933401809333018091E80085FD14C00F
:100400008EE090E090932F0180932E018AE291E09C
:100410006BE070E00E94490560912E0170912F0100
:1004200084E091E00E944905089560914503409160
:100430004303509144035093320140933101909112
:10044000420390933001382F20E0260F311D309366
:100450003401209333019091400384FDC0C0613189
:1004600019F1623130F4662351F0603109F0B7C000
:1004700053C0613851F0623809F0B1C00CC0992303
:1004800009F0ADC00E94EF01ACC0992309F0A7C0EC
:100490000E943B04A4C0992309F0A1C081E080938D
:1004A00012010E9441049BC043305105E1F04430E9
:1004B000510540F44115510569F04230510509F0EC
:1004C0008EC00EC04930510589F04B30510509F0FE
:1004D00086C00FC0992309F082C00E94DA0181C052
:1004E0000E946E0116C00E94610113C080915005E8
:1004F00071C0A5E3B1E0E2E5F5E080E092E00190B3
:100500000D920197E1F780E092E090932F018093A4
:100510002E010E94AA0165C04430510509F1453001
:10052000510528F44130510509F059C008C0483040
:10053000510551F14A30510509F051C034C0923093
:1005400009F04DC0F894209147039091480380E052
:10055000820F911D909321018093200178943FC0D8
:100560009130E9F58091470380FF02C0289801C0CF
:10057000289A81FF02C0779801C0779A82FF02C053
:1005800076982DC0769A2BC08091470380933B03C9
:10059000509332014093310120E130E03093340137
:1005A0002093330117C0A2E5B5E0E7E4F3E080E073
:1005B00092E001900D920197E1F789E090E090932D
:1005C00032018093310181E190E090933401809376
:1005D000330184E08093350181E090E096CF0E9462
:1005E000BE0181E008952F923F924F925F926F92E9
:1005F0007F928F929F92AF92BF92CF92DF92EF92B3
:10060000FF920F931F93CF93DF9363E4C62E63E0B3
:10061000D62E53E6B52E4CE0A42E32E0432E512CBC
:100620004C0C5D1C2DEF622E2FEF722E6C0C7D1C7E
:100630009BEF892E9FEF992E8C0C9D1C83E0382E0A
:1006400022242394FBC00E949404482F80911A0115
:10065000873009F489C0883080F48330D9F1843040
:1006600028F4813059F1823070F520C0853009F4CA
:100670004CC0863008F05BC042C08B3009F4A5C086
:100680008C3038F4893009F487C08A3008F08AC089
:1006900073C08D3009F4B8C08D3008F4B1C08E300D
:1006A00009F4B6C08F3009F0BDC0B4C010921E016D
:1006B000403409F0B9C020921A01B6C0443509F09F
:1006C000B1C022E066C040933E03F4011182309233
:1006D0001A01AAC0D42FC0E080913E0390913F033D
:1006E0008C0F9D1F90933F0380933E03892B29F429
:1006F00080911E01806180931E01F4E03AC0409316
:100700004003F3011182F5E034C0142F00E0809122
:10071000400390914103800F911F90934103809378
:1007200040038150924008F07DC086E06AC040934B
:10073000420380911201882319F01092120110C017
:10074000242F30E080911D0190E001968F7790700A
:100750002817390729F080911E01826080931E01BD
:1007600040931D01E7E051C040934303F60111821D
:10077000F8E0F0931A0158C0F42EEE248091430360
:10078000909144038E0D9F1D9093440380934303E7
:1007900029E020931A0148C040934503F2011182D9
:1007A000FAE0E7CF40931F0180914003909141030D
:1007B000892B41F02BE020931A0110921C0110921A
:1007C0001B0132C040FF2BC018C080911B019091CB
:1007D0001C01FC01E45CFC4F4387019690931C01D3
:1007E00080931B01209140033091410382179307AE
:1007F000D9F480911F0180FF12C0A0921A0114C089
:100800008DE080931A0110C0EEE0E0931A010CC055
:10081000FFE0AFCF80911E01846080931E01B092F3
:100820001A0102C010921A0180911A01833631F424
:1008300080911E010E94150210921A010E94B904B3
:10084000882309F000CFDF91CF911F910F91FF9086
:10085000EF90DF90CF90BF90AF909F908F907F9060
:100860006F905F904F903F902F90089583E886BDE2
:1008700083E085BD0895EEE6F0E0808181608083AD
:100880000895EEE6F0E080818E7F808308951F92C8
:100890000F920FB60F9211242F933F938F939F9334
:1008A00083E886BD8091200190912101892BB9F0C8
:1008B00080912301909124010196909324018093CB
:1008C000230120912001309121018217930738F0F4
:1008D000109224011092230181E0809322019F91C4
:1008E0008F913F912F910F900FBE0F901F901895F1
:1008F00081E88093D70080EA8093D80086E189BDA3
:1009000009B400FEFDCF80E98093D8001092E0008A
:1009100010922501109226018CE08093E2007894D9
:1009200008958091250108952FB7F89480912501AD
:10093000882369F083E08093E9009BE68091E800DA
:1009400085FD09C082FF03C09093E800F7CF2FBF59
:100950002FEF3FEF0CC09091F1008091E80085FDF2
:1009600003C08BE68093E8002FBF292F30E0C90138
:1009700008952FB7F89480912501882311F490E011
:1009800010C083E08093E9009091F200992349F42C
:100990008091E80082FF05C085FD03C08BE680934F
:1009A000E8002FBF892F089580912501882371F0D9
:1009B0009FB7F89483E08093E9002BE602C0209370
:1009C000E8008091E80085FDFACF9FBF0895482F89
:1009D000809125018823D9F12FB7F89484E0809382
:1009E000E90080912801882341F08091E80085FD8D
:1009F00002C02FBF12C0109228019091E400975EB0
:100A000034E08091E80085FD13C02FBF8091E400A1
:100A1000891729F481E0809328018FEF0895809150
:100A200025018823A1F02FB7F8943093E900E9CF8E
:100A30004093F1008091E80085FD03C08AE3809334
:100A4000E80085E0809327012FBF80E008958FEFB5
:100A50000895282F80912501882351F09FB7F8949D
:100A600084E08093E9008091E80085FD03C09FBF8A
:100A70008FEF08952093F1008091E80085FD03C079
:100A80008AE38093E80085E0809327019FBF80E0A0
:100A90000895CF93DF93EC0180912501882309F419
:100AA0001CC13FB7F89484E08093E900809128014D
:100AB000882309F408C18091E80085FD02C03FBF8A
:100AC0000CC110922801FFC09091E400975E8091C4
:100AD000E80085FD13C03FBF8091E400891721F431
:100AE00081E080932801F9C080912501882309F4D1
:100AF000F4C03FB7F894B093E900E9CF8091F200D9
:100B0000242F281B822F90E06817790708F4262FDE
:100B1000822F90E08134910508F0C6C0845B9F4F1E
:100B2000FC01EE0FFF1F0590F491E02D09948991CF
:100B30008093F10089918093F10089918093F10075
:100B400089918093F10089918093F100899180933C
:100B5000F10089918093F10089918093F10089914E
:100B60008093F10089918093F10089918093F10045
:100B700089918093F10089918093F100899180930C
:100B8000F10089918093F10089918093F10089911E
:100B90008093F10089918093F10089918093F10015
:100BA00089918093F10089918093F10089918093DC
:100BB000F10089918093F10089918093F1008991EE
:100BC0008093F10089918093F10089918093F100E5
:100BD00089918093F10089918093F10089918093AC
:100BE000F10089918093F10089918093F1008991BE
:100BF0008093F10089918093F10089918093F100B5
:100C000089918093F10089918093F100899180937B
:100C1000F10089918093F10089918093F10089918D
:100C20008093F10089918093F10089918093F10084
:100C300089918093F10089918093F100899180934B
:100C4000F10089918093F10089918093F10089915D
:100C50008093F10089918093F10089918093F10054
:100C600089918093F10089918093F100899180931B
:100C7000F10089918093F10089918093F10089912D
:100C80008093F10089918093F10089918093F10024
:100C900089918093F10089918093F10089918093EB
:100CA000F10089918093F10089918093F100809106
:100CB000E80085FD02C05093E800621B7109A09313
:100CC00027013FBF04C0B4E040E45AE3A5E061154A
:100CD000710509F0F9CE80E001C08FEFDF91CF916F
:100CE00008959FB7F89480912701882341F084E00C
:100CF0008093E9008AE38093E800109227019FBF68
:100D000008956091130170911401809115019091E3
:100D10001601089580911701089580911801089592
:100D2000809119010895809126010895282F9FB779
:100D3000F89480912501882339F082E08093E900BE
:100D40008091E80085FD03C09FBF8FEF089581EA81
:100D50008093F10080E28093F1001092F1001092F4
:100D6000F1001092F1001092F10081E08093F10007
:100D70001092F1002093F1008AE38093E8009FBF76
:100D800080E008951F920F920FB60F9211248F9357
:100D90009F938091E1001092E100982F83FF11C092
:100DA0001092E90081E08093EB001092EC0082E168
:100DB0008093ED0088E08093F0001092250110925E
:100DC000260192FF13C080912501882379F080913C
:100DD0002701882359F0815080932701882331F41B
:100DE00084E08093E9008AE38093E8009F918F91EB
:100DF0000F900FBE0F901F9018951F920F920FB675
:100E00000F920BB60F9211240F931F932F933F93C2
:100E10004F935F936F937F938F939F93AF93BF9302
:100E2000EF93FF931092E9008091E80083FF3CC1AB
:100E30004091F1003091F1008091F100682F70E055
:100E40002091F100922F80E0682B792B8091F100A6
:100E5000A82FB0E02091F100922F80E0A82BB92BB1
:100E60001091F1000091F10082EF8093E80036309C
:100E700009F05AC021E231E0A90145505040F90182
:100E80003797859194918617970701F5FA01859117
:100E900094918A179B07D1F49A012E5F3F4FF90175
:100EA000659174912E5F3F4FF9014491212F30E0FD
:100EB000902F80E0282B392B2F3F310519F010F0AF
:100EC0002FEF30E0241758F4422F09C0295F3F4F1D
:100ED000495F5F4FF1E02B343F0789F6E5C05EEFD5
:100EE0008091E800282F30E0C90185709070892B2F
:100EF000B9F322FDDCC0342F413108F030E1232F5B
:100F0000CB0106C0FC010196E491E093F100215071
:100F10002223C1F7630F711D431B5093E800442344
:100F2000F9F63031E9F2C3C0353061F48EEF8093C9
:100F3000E8008091E80080FFFCCF862F80688093D6
:100F4000E300B5C0393051F5442309F0ADC06093DA
:100F5000250110922601109227018EEF8093E80060
:100F600084E491E021E02093E900FC010196E49102
:100F7000E093EB00EE2369F0AC014F5F5F4FFC01A3
:100F800084918093EC00CA010196FA013491309368
:100F9000ED002F5F253039F78EE181C0383061F4E4
:100FA000403809F081C08091E80080FFFCCF80913B
:100FB00025018093F10050C0313289F4413A09F0A3
:100FC00073C08091E80080FFFCCFE3E1F1E0819104
:100FD0008093F10081E0EA31F807C9F73DC0303273
:100FE000A1F4413209F060C08091E80082FFFCCF9B
:100FF000E3E1F1E08091F100819381E0EA31F807CB
:10100000C9F78BEF8093E80027C0323251F44132A8
:1010100009F04AC0609326018091E80080FFFCCF70
:101020001BC03323E9F48091E80080FFFCCF4238F5
:1010300011F080E00DC0A093E9008091EB0090E0FA
:1010400025E0969587952A95E1F781701092E90041
:101050008093F1001092F1008EEF8093E80027C09A
:10106000313011F0333001F54230F1F4672BE1F407
:101070002A2F2F77822F81508430B0F48EEF809307
:10108000E8002093E900333079F089E18093EB00A8
:1010900081E090E002C0880F991F2A95E2F78093C3
:1010A000EA001092EA0003C081E28093EB00FF9116
:1010B000EF91BF91AF919F918F917F916F915F91D0
:1010C0004F913F912F911F910F910F900BBE0F9059
:1010D0000FBE0F901F9018950E9436040E941501B4
:1010E00088E088B98CE08BB980EC8DB981E084B957
:1010F0000895DF92EF92FF920F931F93CF93DF93A8
:1011000090E89093610081E08093610090932901C1
:101110000E9478040E9491048823E1F380E197E221
:1011200028EC30E0F9013197F1F70197D9F70E94E7
:101130006C080E9440010E945B09789492E0E92EBD
:10114000F12CC0E2D0E003E010E080E8D82E0E944D
:10115000F302809122018823C1F110922201809133
:1011600029018F5F80932901882311F4D0922901EE
:10117000F0923201E0923101809129018093300197
:10118000D0933401C09333010E946E010E94AA01E2
:101190000E944D018823C9F0809129018F5F8093BF
:1011A0002901882311F4D092290110933201009370
:1011B00031018091290180933001D0933401C09393
:1011C00033010E9461010E94AA0180913B0381309A
:1011D00031F0813008F4BBCF823079F407C00E942F
:1011E0001D0A0E94CE090E94F2090BC00E941D0A2E
:1011F0000E94CE090E94A70904C00E941D0A0E94F5
:10120000CE0910923B03A3CFCF93DF93EC0103C031
:1012100021960E94E70488818823D1F7DF91CF913E
:101220000895882349F4809171008E7F8093710026
:10123000809191008D7F08C08091710081608093C2
:1012400071008091910082608093910010929500CE
:10125000109294000895E0E7F0E010821092B00040
:1012600085EF8093B20082E08093B10017BA81E0ED
:1012700080830895E0E7F0E010821092B0001092B1
:10128000B10017BA1082089585EF8093B200E1EBA8
:10129000F0E0808192E089278083E0E7F0E08081C0
:1012A00091E0892780830895559A569A579A8BB171
:1012B0008F718BB908951092800010928100109266
:1012C0006F0016BA0E94540954985C9808958BB127
:1012D000806E8BB908958BB18F718BB908958BB1E6
:1012E00090EE89278BB908951F920F920FB60F9237
:1012F00011248F939F9385EF8093B2008BB190EE72
:1013000089278BB99F918F910F900FBE0F901F90DF
:10131000189554985C9808951092800081EC809301
:10132000810080E280936F0086BB08951092800058
:101330001092810010926F0016BA0895F894E1E8B7
:10134000F0E0808190E48927808378940895F89470
:1013500082E08093500582E595E090934F0580935D
:101360004E0510924C0510924B0510924D0581E0F0
:101370000E941109E0E7F0E010821092B000109294
:10138000B10017BA10821092800081EC8093810026
:1013900080E280936F0086BB78940895F894109251
:1013A000500582E595E090934F0580934E0510928D
:1013B0004C0510924B0510924D0580E00E941109DA
:1013C000E0E7F0E010821092B0001092B10017BA7E
:1013D0001082109280001092810010926F0016BA55
:1013E00078940895F89481E08093500582E595E023
:1013F00090934F0580934E0581E00E9411090E9451
:101400002B09E0914E05F0914F05918180E02281FA
:10141000820F911D809590959093950080939400F4
:101420003396F0934F05E0934E0583E090E0909360
:101430004C0580934B0578940895F89410925005CC
:1014400082E595E090934F0580934E0510924C05F0
:1014500010924B0580E00E941109E0E7F0E0108255
:101460001092B0001092B10017BA1082109295003D
:1014700010929400789408951F920F920FB60F92D5
:101480000BB60F9211242F933F934F935F936F935B
:101490007F938F939F93AF93BF93EF93FF9320918D
:1014A0005005213009F042C08BB18F718BB985EFA7
:1014B0008093B2008091B10092E089278093B100BF
:1014C00080917000822780937000E0914E05F0912A
:1014D0004F05918180E02281820F911D809590952A
:1014E0009093950080939400809194009091950042
:1014F000892B39F080914B0590914C058B5F914081
:1015000010F00E941D0A80914E0590914F050396A0
:1015100090934F0580934E0580914B0590914C051B
:10152000039690934C0580934B0535C0223099F576
:1015300080914D058C3451F510924D051092500557
:1015400088E090E0909332018093310180E190E057
:101550009093340180933301809129018F5F8093B0
:101560002901882319F480E88093290180912901B9
:10157000809330011092350181E090E090932F012B
:1015800080932E010E94AA010E94CE0980914D05F0
:101590008F5F80934D05FF91EF91BF91AF919F9128
:1015A0008F917F916F915F914F913F912F910F900C
:1015B0000BBE0F900FBE0F901F9018958091910059
:1015C00081FD03C081E00E94110980914B0590913B
:1015D0004C05E0914E05F0914F058B5F9140F0F185
:1015E000109280001092810010926F0016BA8FEF57
:1015F0008083E0914E05F0914F058183E0914E0587
:10160000F0914F05828380E00E94110988E090E00C
:10161000909332018093310180E190E09093340106
:1016200080933301809129018F5F80932901882362
:1016300019F480E880932901809129018093300179
:1016400083E0809350058093350181E090E0909392
:101650002F0180932E010E94AA01089580914D05CB
:1016600080838091940090919500E0914E05F091D7
:101670004F0591838091940090919500E0914E05E3
:10168000F0914F05828380914E0590914F0503960E
:1016900090934F0580934E0510924D0580914B0518
:1016A00090914C05039690934C0580934B051092B6
:1016B00095001092940008951F920F920FB60F920A
:1016C0000BB60F9211242F933F934F935F936F9319
:1016D0007F938F939F93AF93BF93EF93FF930E945A
:1016E000DE0AF894E1E8F0E0808190E489278083C5
:1016F0007894FF91EF91BF91AF919F918F917F91DE
:101700006F915F914F913F912F910F900BBE0F9072
:0C1710000FBE0F901F901895F894FFCFAB
:10171C0007000000000001000200080009000B0097
:0A172C000A000100E10000000008BF
:00000001FF
