:1000000059C1000075C1000073C1000071C100003A
:100010006FC100006DC100006BC1000069C100002C
:1000200067C1000065C100000C94610A61C1000055
:100030005FC100005DC100005BC1000059C100004C
:1000400057C1000055C1000053C1000051C100005C
:100050004FC100004DC100004BC1000049C100006C
:1000600047C1000044C500006DC5000041C100004B
:100070003FC100003DC100003BC1000039C100008C
:1000800037C1000035C1000033C1000031C100009C
:100090002FC100002DC10000212601070000000033
:1000A00005010902A1010901A100950375010509D6
:1000B00019012903150025018102950175058101AA
:1000C0007510950205010930093116008026FF7F61
:1000D000810675089501050109381581257F81067E
:1000E000C0C005010902A1010901A1009503750124
:1000F00005091901290315002501810295017505DE
:10010000810175109502050109300931350046005D
:100110000815002600086511550081027508950133
:10012000050109381581257F8106C0C00501090632
:10013000A10175019508050719E029E715002501BA
:10014000810295017508810395057501050819015E
:10015000290591029501750391039506750815000F
:1001600025650507190029658100C005010905A15C
:100170000115002501350045017501950D05091989
:1001800001290D81029503810105012507463B01E7
:100190007504950165140939814265009501810155
:1001A00026FF0046FF00093009310932093575087C
:1001B000950481020600FF0920092109220923096B
:1001C0002409250926092709280929092A092B951F
:1001D0000C81020A21269508B102C012011001000B
:1001E000000008FFFF9BAC00000102000109026D46
:1001F00000040100C03209040000010301010009EC
:100200002111010001223F000705810308000A09AE
:100210000401000103010200092111010001224231
:10022000000705820308000A090402000103000018
:100230000009211101000122700007058303080055
:100240000A09040300010301020009211101000150
:10025000224A000705840308000A04030904260350
:100260005500410053002000540065006300680001
:100270006E0069006B0075006D002000570069007A
:1002800065006E0000002C034100730054006500FF
:100290005200490043005300200048004900440038
:1002A00020006100630074007500610074006F003D
:1002B0007200000011241FBECFEFD0E2DEBFCDBF21
:1002C00011E0A0E0B1E0E0EAF0E200E00BBF02C024
:1002D00007900D92AC34B107D9F717E1ACE4B1E067
:1002E00001C01D92AC36B107E1F7CBD20C944E1091
:1002F00087CE5F985E9A08955E985F9A0895809180
:100300000B0190910C01009729F0019790930C013B
:1003100080930B018091180190911901009729F0A9
:100320000197909319018093180180912501909174
:100330002601009729F001979093260180932501CB
:100340008091320190913301009729F001979093A9
:100350003301809332010895809168179091691755
:100360000297C1F4809165178130A1F480916417E0
:10037000813A81F48091E800877F8093E80088E9E2
:1003800090E068E070E00E948A0B8091E8008B7733
:100390008093E80008950F931F93CF93DF93182F56
:1003A000092FEB0189E891E044D3892BC9F083E15F
:1003B00090E09983888389E891E012D3803281F4B8
:1003C000812F902F9C01E90189010D5E1F4F89E863
:1003D00091E006D38993C017D107C9F781E001C026
:1003E00080E0DF91CF911F910F910895CF92DF921E
:1003F000FF920F931F93CF93DF938C016B0180913A
:100400005A01882381F110925A0180915901882361
:1004100019F081508093590140915901E42FF0E087
:10042000D801AE0FBF1F12961C92ED5AFE4F1082DC
:10043000E8011882D80120E030E011C0F901E35B47
:10044000FE4F808111968C931197F901ED5AFE4F62
:10045000E80188819081892B88832F5F3F4F119617
:10046000241760F3E6C085E699E0E3D2892B09F40E
:10047000E6C088E090E0E6019983888385E699E00C
:10048000AFD2813109F440C0823109F474C08031A7
:1004900009F0D5C0F0905901E5E0EF15A8F185E627
:1004A00099E09ED2EF2DF0E0E35BFE4F80838091D8
:1004B0005901C82FD0E085E699E092D2CD5ADE4F9F
:1004C0008883409159014F5F40935901E801188298
:1004D000D80120E030E011C0F901E35BFE4F8081DC
:1004E00011968C931197F901ED5AFE4FE80188811E
:1004F0009081892B88832F5F3F4F1196241760F3DB
:1005000081E080935A019EC0F0905901E5E0EF151B
:1005100090F185E699E064D2EF2DF0E0E35BFE4FC9
:10052000808380915901C82FD0E085E699E058D2A8
:10053000CD5ADE4F8883409159014F5F4093590156
:10054000E8011882D80120E030E011C0F901E35B36
:10055000FE4F808111968C931197F901ED5AFE4F51
:10056000E80188819081892B88832F5F3F4F119606
:10057000241760F366C080915901882309F461C093
:1005800085E699E02DD2F82E85E699E029D2609192
:10059000590190E030C0E92FF0E0E35BFE4F80812D
:1005A0008F1541F513C0DE0111969E01235B3E4F6E
:1005B000FD01E35BFE4F8081F9018083CD5ADE4F60
:1005C000AD5ABE4F8C9188839F5F04C0462F50E088
:1005D00041505040C92FD0E0C417D50724F36150D3
:1005E000E62FF0E0D801AE0FBF1F12961C92ED5A15
:1005F000FE4F10829F5F961770F260935901E801D9
:100600001882D80120E030E011C0F901E35BFE4F11
:10061000808111968C931197F901ED5AFE4FE801F4
:1006200088819081892B88832F5F3F4F11962617F1
:1006300060F388E090E0F6019183808302C080E05F
:1006400001C081E0DF91CF911F910F91FF90DF906A
:10065000CF9008950F931F93CF93DF93EC018B01FD
:1006600087E795E0E6D1892B09F440C086E090E069
:10067000F8019183808387E795E0B2D1833081F1DF
:10068000843019F0823091F524C087E795E0A8D135
:10069000082F10E01A83098387E795E0A1D1382F4E
:1006A00020E0200F311F3A83298387E795E098D116
:1006B000082F10E01C830B8387E795E091D1382F3A
:1006C00020E0200F311F3C832B8380914C018883D5
:1006D0000BC087E795E084D1888380934C0104C0E8
:1006E00087E795E07DD18D8381E001C080E0DF91D7
:1006F000CF911F910F910895EF92FF920F931F9347
:10070000CF93DF937C01EB018DE49FE092D1892BA5
:1007100009F43EC086E090E0998388838DE49FE0F1
:100720005FD1823031F1833061F1813089F58DE420
:100730009FE056D1082F10E08DE49FE051D1382F73
:1007400020E0200F311FF701328321838DE49FE0E9
:1007500047D1082F10E08DE49FE042D1382F20E0F0
:10076000200F311FF7013483238380914C01808354
:100770000DC08DE49FE034D1F701808380934C015C
:1007800005C08DE49FE02CD1F701858381E001C095
:1007900080E0DF91CF911F910F91FF90EF9008952E
:1007A0000F931F93F8011182108241E08D3094075E
:1007B00021F4C901B801A0DF18C041E087329407D5
:1007C00021F4C901B80146DF10C041E08030940730
:1007D00021F4C901B8010ADE08C08A51914011F024
:1007E00080E003C0C901B801D6DD811181E01F910D
:1007F0000F9108958BB18F738BB980E091E00E94C7
:100800007A0E882309F45F9A8DE091E00E947A0EB7
:10081000882309F45F9A8AE191E00E947A0E882386
:1008200009F45F9A87E291E00E947A0E882309F426
:100830005F9A8091E20084608093E200089584B71B
:10084000877F84BF88E10FB6F89480936000109290
:1008500060000FBE81E090E020E80FB6F89420938E
:100860006100809361000FBE60E071EE80E090E077
:100870009FD180EC8AB988E090E068EC70E0CBD43E
:100880000AC6DDDFE9D15E985F9A789477D380E07D
:1008900091E00E94BF0D72D38DE091E00E94BF0DE8
:1008A0006DD38AE191E00E94BF0D68D387E291E0A9
:1008B0000E94BF0D63D30E94AC0DE8CFDA019330E4
:1008C000C1F0943030F4913051F0923009F05BC0B7
:1008D0000BC0913221F1923209F055C037C0EBEDD7
:1008E000F1E022E130E053C0EDEEF1E02DE630E042
:1008F0004EC0813051F0813020F0823009F043C089
:1009000008C0EAE5F2E0849107C0EEE5F2E08491E8
:1009100003C0E6E8F2E08491282F30E038C061306F
:1009200051F0613028F0623059F0633061F50BC04E
:10093000EFEFF1E002C0E8E1F2E029E030E027C0AB
:10094000E1E3F2E0FACFEAE4F2E0F7CF613061F000
:10095000613028F0623069F06330A9F40FC0ECE236
:10096000F1E02FE330E013C0E0EAF0E022E430E011
:100970000EC0EBE6F1E020E730E009C0E2EEF0E087
:100980002AE430E004C0E0E0F0E020E030E0ED9365
:10099000FC93C9010895FC01118210821382128216
:1009A000158214820895CF93DF93EC012881398159
:1009B00083E0283E380788F48C819D81FE01E80F92
:1009C000F91F6683019668EE73E00E94FB0F9D831A
:1009D0008C832F5F3F4F39832883DF91CF91089518
:1009E000CF93DF93EC018091C9008F778093C9008A
:1009F000288139812115310511F440E016C08A8122
:100A00009B81FE01E80FF91F4681019668EE73E0B5
:100A10000E94FB0F9B838A832150304039832883B7
:100A20008091C90080688093C900842FDF91CF91A5
:100A30000895FC01808191810895FC0128EE33E046
:100A400080819181281B390BC9010895FC01118215
:100A5000108213821282158214820895CF93DF933D
:100A6000EC012881398181E0243F380788F48C81AA
:100A70009D81FE01E80FF91F6683019664EF71E026
:100A80000E94FB0F9D838C832F5F3F4F3983288308
:100A9000DF91CF910895CF93DF93EC0128813981C5
:100AA0002115310511F440E011C08A819B81FE01BE
:100AB000E80FF91F4681019664EF71E00E94FB0F79
:100AC0009B838A832150304039832883842FDF9190
:100AD000CF910895FC01808191810895FC0124EF5C
:100AE00031E080819181281B390BC90108951F9243
:100AF0000F920FB60F920BB60F9211242F933F93C4
:100B00004F935F936F937F938F939F93AF93BF9315
:100B1000EF93FF936091CE008BE393E144DFFF916D
:100B2000EF91BF91AF919F918F917F916F915F9165
:100B30004F913F912F910F900BBE0F900FBE0F90D2
:100B40001F9018951F920F920FB60F920BB60F922F
:100B500011242F933F934F935F936F937F938F93C2
:100B60009F93AF93BF93EF93FF9383E59DE0B2DF35
:100B7000892B31F083E59DE08EDF8093CE0005C0A8
:100B80008091C9008F7D8093C900FF91EF91BF9143
:100B9000AF919F918F917F916F915F914F913F9115
:100BA0002F910F900BBE0F900FBE0F901F901895B6
:100BB000EF92FF920F931F937B018C018BE393E1E4
:100BC000EADE8DE49FE0E7DE87E795E0E4DE85E698
:100BD00099E0E1DE89E891E0DEDE83E59DE036DF45
:100BE00060E472E48FE090E0A80197010E940F108A
:100BF000215030403093CD002093CC00E8ECF0E061
:100C000080818260808388E98093C9001F910F9161
:100C1000FF90EF9008950F931F93CF93DF938C0174
:100C2000EB018091C9008F7D8093C90006C0F80157
:100C300061918F0183E59DE011DF2197FFEFCF3FA9
:100C4000DF07A9F78091C90080628093C900DF9116
:100C5000CF911F910F91089580E494E590932A1706
:100C60008093291781E091E090932C1780932B17A4
:100C7000089583E59DE032DF282F8E3160F4809166
:100C800032179091331790629093331780933217F5
:100C90005F9A2C3048F010922E1710922D1789E28F
:100CA00097E16BE070E0B7CF089583E59DE016DF34
:100CB000282F8E3160F48091321790913317906213
:100CC00090933317809332175F9A203190F084E02D
:100CD00090E090932E1780932D1789E297E16BE0B7
:100CE00070E099DF60912D1770912E1784E391E0E9
:100CF00092CF089583E59DE0F1DE8E3158F4809126
:100D00003217909133179062909333178093321774
:100D10005F9A089582E190E090932E1780932D17AB
:100D200089E297E16BE070E076DF60912D177091BA
:100D30002E1788E391E06FCF1F93CF93DF93182F87
:100D40008BB190E489278BB94091431720914117CB
:100D5000309142173093311720933017809140170C
:100D600080932F17912F80E0840F911D909333175C
:100D70008093321780913E1714FDE8C0413141F154
:100D8000423130F4442361F0403109F0DBC028C027
:100D9000413859F0423881F0403809F0D3C00CC0D6
:100DA000882309F0CFC0A6DFDEC0882309F0CAC0BF
:100DB00081E080934A01CAC0882309F0C3C081E062
:100DC00080934A0160E071EE80E090E0F1DEBEC009
:100DD000232B09F0B7C0882309F0B4C066DFC3C075
:100DE00024303105B9F12530310540F42130310589
:100DF00091F02130310508F4A5C04DC020313105F6
:100E000008F4A0C02331310508F45CC0203231055C
:100E100009F098C078C0843009F094C08DE49FE058
:100E20000CDE06970CF492C08DE49FE060914117B0
:100E3000BADDC0E0D0E0E0914517F0914617EC0F25
:100E4000FD1F8DE49FE06081AEDD2196C430D105A9
:100E500091F78EC0843009F075C087E795E0EDDD2D
:100E600006970CF473C087E795E0609141179BDD0E
:100E7000C0E0D0E0E0914517F0914617EC0FFD1F60
:100E800087E795E060818FDD2196C430D10591F729
:100E900087E795E06FC0813009F054C08DE49FE092
:100EA000CCDD03970CF452C08DE49FE060914117B4
:100EB0007ADDE0914517F09146178DE49FE060815F
:100EC00072DD56C0823009F03DC085E699E0B5DD9F
:100ED00004970CF43BC085E699E06091411763DD0F
:100EE000E0914517F091461785E699E060815BDD5A
:100EF000E0914517F091461785E699E0618153DD51
:100F000085E699E037C08331E9F489E891E095DD21
:100F10004597E4F089E891E06091411744DDC0E035
:100F2000D0E0E0914517F0914617EC0FFD1F89E8DE
:100F300091E0608138DD2196C331D10591F789E8D0
:100F400091E018C0186002C05F9A1062912F80E093
:100F50002091321730913317822B932B90933317B4
:100F60008093321786DE81E0DF91CF911F91089543
:100F70008DE49FE062DD88973CF3E8CF2F923F92AB
:100F80004F925F926F927F928F929F92AF92BF9299
:100F9000CF92DF92EF92FF920F931F93CF93DF9345
:100FA00061E4C62E67E1D62E53E6B52E42E0242E2C
:100FB000312C2C0C3D1C3BE4432E37E1532E2DEFFE
:100FC000622E2FEF722E6C0C7D1C9BEF892E9FEFF3
:100FD000992E8C0C9D1C83E0A82E04C18BE393E119
:100FE000FFDC482F80915B01873009F48BC088308B
:100FF00080F48330D1F1843028F4813051F1823093
:1010000068F520C0853009F44BC0863008F05BC01D
:1010100041C08B3009F4AAC08C3038F4893009F40F
:1010200087C08A3008F08AC075C08D3009F4C3C00B
:101030008D3008F4BEC08E3009F4BFC08F3009F087
:10104000C6C0BDC010926001403409F0C2C081E04A
:1010500037C0443509F0BBC0E2E051C040933C17B3
:10106000F4011182A0925B01B4C0D42FC0E0809142
:101070003C1790913D178C0F9D1F90933D178093C7
:101080003C17892B29F48091600180618093600175
:10109000F4E03DC040933E17F3011182F5E037C004
:1010A000142F00E080913E1790913F17800F911F01
:1010B00090933F1780933E17459708F088C086E0CD
:1010C00080935B0186C04093401780914A0188233A
:1010D00019F010924A0110C0242F30E080915F0176
:1010E00090E001968F7790702817390729F080914A
:1010F000600182608093600140935F01E7E0E093CC
:101100005B0167C040934117F6011182F8E0F0934C
:101110005B015FC0F42EEE2480914117909142173D
:101120008E0D9F1D909342178093411789E0C8CF81
:1011300040934317F1011182FAE0E9CF4093610136
:1011400080913E1790913F17892B61F08BE080933F
:101150005B01509246174092451710925D01109224
:101160005C0137C040FF30C0ECE0C9CFE0914517CB
:10117000F091461780915C0190915D01E80FF91F95
:10118000408380915C0190915D01019690935D0197
:1011900080935C0120913E1730913F17821793078F
:1011A000C1F48091610180FF0FC080915B018F5F6E
:1011B00087CFFDE0ACCF8EE083CFEFE0A0CF809172
:1011C0006001846080936001B0925B0102C0109264
:1011D0005B0180915B01833629F480916001ACDD75
:1011E00010925B018BE393E124DC892B09F0F6CEAE
:1011F000DF91CF911F910F91FF90EF90DF90CF90F3
:10120000BF90AF909F908F907F906F905F904F9026
:101210003F902F9008952F923F924F925F926F923E
:101220007F928F929F92AF92BF92CF92DF92EF9276
:10123000FF920F931F93CF93DF932C011BB8C0E055
:10124000D0E03B018824992488EC282E312C3BC027
:101250008BB180588BB9C401B301B4D55B016C016B
:1012600020E030E04AEF54E43BD67B018C0120E0E3
:1012700030E040E85FE376D588231CF461E070E05D
:101280001EC0C801B70120E03FEF4FE757E424D666
:10129000181694F4C601B50120E030E040E251E4B4
:1012A0001FD664D505C0C1010197F1F761507040A8
:1012B00061157105C1F706C0C801B70157D5CB014B
:1012C0000197F1F72196C415D50508F4C1CFDF9138
:1012D000CF911F910F91FF90EF90DF90CF90BF9033
:1012E000AF909F908F907F906F905F904F903F90C6
:1012F0002F900895382F282F2CC02093E900231712
:1013000021F4762F942F50E006C07091EC0090915C
:10131000ED005091F00091FF1BC08091EB008E7F9B
:101320008093EB008091ED008D7F8093ED008091A4
:10133000EB0081608093EB007093EC009093ED00E4
:101340005093F0008091EE0087FD02C080E0089588
:101350002F5F273090F23093E90081E0089580916B
:10136000641788239CF404C0809163178823B9F024
:101370008091E80082FFF8CF8091E8008B7780931E
:10138000E800089580916317882349F08091E80070
:1013900080FFF8CF8091E8008E778093E800089571
:1013A0004091E4005091E50024E68091EC0080FF3C
:1013B00024C08091E80080FD1EC0809163178823BF
:1013C00011F482E00895853011F483E0089580914E
:1013D000EB0085FF02C081E008958091E4009091C8
:1013E000E5008417950709F3222311F484E008959A
:1013F0002150AC01DACF80E008958091E80082FFAF
:10140000DCCFF9CFEF92FF920F931F934DD054D0C2
:1014100008ED10E0F80180818F77808380818068FB
:10142000808380818F7D8083E7EDF0E0808180681C
:10143000808319BC1092631710925F171092611786
:101440001092601780EEE82EF12CF70180818B7FDF
:101450008083F80180818160808380E060E042E0E9
:1014600049DFE1EEF0E080818E7F8083E2EEF0E004
:10147000808181608083808188608083F7018081A2
:101480008E7F8083F8018081806180831F910F911E
:10149000FF90EF900895E7EDF0E080818160808318
:1014A00081E080936217AECFE8EDF0E080818C7F21
:1014B00080831092E20008951092DA001092E10009
:1014C00008951F920F920FB60F920BB60F92112430
:1014D0002F933F934F935F936F937F938F939F933C
:1014E000AF93BF93EF93FF938091E10082FF0BC016
:1014F0008091E20082FF07C08091E1008B7F8093A2
:10150000E1000E947F018091DA0080FF1FC080917E
:10151000D80080FF1BC08091DA008E7F8093DA00B4
:101520008091D90080FF0DC084E189BD86E189BD2D
:1015300009B400FEFDCF81E0809363170E9479011A
:1015400005C019BC109263170E947C018091E100D4
:1015500080FF18C08091E20080FF14C08091E200FB
:101560008E7F8093E2008091E20080618093E200B0
:101570008091D80080628093D80019BC85E0809368
:101580006317E9D28091E10084FF2DC08091E200D1
:1015900084FF29C084E189BD86E189BD09B400FECC
:1015A000FDCF8091D8008F7D8093D8008091E1009D
:1015B0008F7E8093E1008091E2008F7E8093E20035
:1015C0008091E20081608093E20080915F17882320
:1015D00031F48091E30087FD02C081E001C084E026
:1015E00080936317B8D28091E10083FF22C080917D
:1015F000E20083FF1EC08091E100877F8093E100BD
:1016000082E08093631710925F178091E1008E7FD4
:101610008093E1008091E2008E7F8093E2008091D0
:10162000E20080618093E20080E060E042E062DE00
:1016300092D2FF91EF91BF91AF919F918F917F9146
:101640006F915F914F913F912F910F900BBE0F9033
:101650000FBE0F901F9018959C0140916A175091F2
:101660006B174617570718F4F90190E03DC0611554
:10167000710511F0AB01F8CF8091E8008E7780936F
:10168000E80040E050E0F0CF809163178823F1F14B
:101690008530F1F18091E80083FF02C081E0089578
:1016A0008091E80082FD2CC08091E80080FF1CC082
:1016B0002091F2003091F30007C081918093F100F6
:1016C000415050402F5F3F4F4115510519F02830D0
:1016D000310598F390E02830310509F491E08091CC
:1016E000E8008E778093E8004115510569F699234B
:1016F00059F606C080916317882341F0853041F088
:101700008091E80082FFF6CF80E0089582E008959E
:1017100083E008959C0140916A1750916B1746171A
:10172000570718F4F90190E040C06115710511F0F8
:10173000AB01F8CF8091E8008E778093E80040E01D
:1017400050E0F0CF80916317882309F440C08530C2
:1017500009F43FC08091E80083FF02C081E0089552
:101760008091E80082FD2DC08091E80080FF1DC0BF
:101770002091F2003091F30008C084918093F10031
:101780003196415050402F5F3F4F4115510519F0A0
:101790002830310590F390E02830310509F491E0CC
:1017A0008091E8008E778093E8004115510551F64D
:1017B000992341F606C080916317882341F0853054
:1017C00041F08091E80082FFF6CF80E0089582E04A
:1017D000089583E00895BF92CF92DF92EF92FF9237
:1017E0000F931F93CF93DF93182F092F7B016A016B
:1017F000D7DDB82E8823B1F5812F902F9C01E90108
:10180000C114D10439F0F60180819181E81AF90AF6
:10181000C80FD91F00E010E022C08091E80085FDCC
:1018200016C08091E8008E778093E80095D1C114AE
:10183000D10449F0F60180819181800F911F91833D
:10184000808385E010C0ACDD882349F00CC089910D
:101850008093F1000894E108F1080F5F1F4FE11435
:10186000F104D9F68B2DDF91CF911F910F91FF904D
:10187000EF90DF90CF90BF9008950F931F93DF9369
:10188000CF93CDB7DEB7AC970FB6F894DEBF0FBEDF
:10189000CDBFE4E6F7E18091F100819327E1EC36DA
:1018A000F207C9F70E94AC018091E80083FF3AC1BA
:1018B0008091641730916517353009F487C0363050
:1018C00040F43130C9F1313070F0333009F02AC1C1
:1018D00033C0383009F4F7C0393009F406C1363066
:1018E00009F020C197C0803821F0823809F01AC170
:1018F00008C09091601780916117882399F09260D9
:1019000011C08091681787708093E9008091EB0087
:1019100090E025E0969587952A95E1F7982F9170AC
:101920001092E9008091E800877F8093E80090930F
:10193000F1001092F100D2C0882319F0823009F032
:10194000F1C090E08F719070009721F0029709F03C
:10195000E9C00CC080916617813009F0E3C0109295
:101960006117333069F5809361172AC0809166173B
:10197000882331F520916817277009F4D3C020938C
:10198000E9008091EB0080FF1BC0333021F480918F
:10199000EB00806213C08091EB0080618093EB00CC
:1019A00081E090E002C0880F991F2A95E2F78093AA
:1019B000EA001092EA008091EB0088608093EB00CF
:1019C0001092E9008091E800877F8BC0882309F09E
:1019D000A9C0109166171F770FB7F8948091E8009F
:1019E000877F8093E800BBDC8091E80080FFFCCF1C
:1019F0008091E3008078812B8093E300806880935E
:101A0000E300112311F482E001C083E080936317A7
:101A10000FBF88C08058823008F084C0809166175C
:101A20009091671723E08C3D920709F033C083E063
:101A30008C838AE28B837FB7F894DE0115966EE083
:101A400040E050E011E2E62FF0E01093570084915F
:101A500040FF03C082958F706F5F8F70282F30E03A
:101A60008A3018F0C901C79602C0C901C0968D938B
:101A70009D934F5F5F4F4431510529F77FBF8091A0
:101A8000E800877F8093E800CE0103966AE270E069
:101A9000E3DD13C060916817AE014F5F5F4F0E9496
:101AA0005E04BC01009709F43DC08091E800877F87
:101AB0008093E80089819A812DDE8091E8008B7700
:101AC0008093E8002FC0803869F58091E800877F17
:101AD0008093E80080915F178093F1008091E80087
:101AE0008E778093E8003BDC1DC08823D9F4909169
:101AF00066179230B8F48091E800877F8093E80001
:101B000090935F172CDC80915F17882331F48091CC
:101B1000E30087FD02C081E001C084E08093631789
:101B20000E94FA038091E80083FF0AC08091EB00D5
:101B300080628093EB008091E800877F8093E800CB
:101B4000AC960FB6F894DEBF0FBECDBFCF91DF913C
:101B50001F910F91089508951F9380916317882313
:101B600061F01091E9001092E9008091E80083FF94
:101B700001C083DE17701093E9001F9108954F9202
:101B80005F926F927F928F929F92AF92BF92CF920D
:101B9000DF92EF92FF920F931F93DF93CF9300D0CA
:101BA0000F92CDB7DEB77C016DB67EB6809163171C
:101BB000843009F086C0F70181818093E90080912B
:101BC000E80085FF7EC05DB64EB647818DB79EB7F3
:101BD000841B91090FB6F8949EBF0FBE8DBF0DB741
:101BE0001EB70F5F1F4F19821B821A82C02E912EC3
:101BF000C80160E070E050E04AD2C701BE016F5FEB
:101C00007F4F40E098018E010E5F1F4F0E94D0036E
:101C1000882EF70181859285892B19F4AA24BB248B
:101C20000BC020E0F70183859485892B09F021E022
:101C300081E02827A22EBB24F7010581168101151A
:101C4000110511F4DD2412C04A815B818C2D992D80
:101C5000B80107D2DD24009711F0DD24D394F701F9
:101C60004781C8016C2D792D50E008D28A819B8173
:101C7000892BF9F0882021F4DD2011F4AB28C9F07C
:101C8000F701818592859487838781818093E9001C
:101C90008981882311F08093F1006A817B818C2DEA
:101CA000992D40E050E097DD8091E8008E77809399
:101CB000E800852D942D9C010FB6F8943EBF0FBE11
:101CC0002DBF0FB6F8947EBE0FBE6DBE0F900F9065
:101CD0000F90CF91DF911F910F91FF90EF90DF90C8
:101CE000CF90BF90AF909F908F907F906F905F90BC
:101CF0004F900895CF93DF93DC010896FC0185E0B7
:101D0000EF0119928A95E9F781E018968C9318975C
:101D100084EF91E01A969C938E93199711963C91BB
:101D2000119712966D917C91139714968C9188233C
:101D300011F440E001C044E020E088E090E003C0FE
:101D40002F5F880F991F86179707D0F3426022955F
:101D5000207F422B832F61ECCDDA811181E0DF916E
:101D6000CF9108956CD008F481E0089594D088F064
:101D70009F5790F0B92F9927B751A0F0D1F0660F77
:101D8000771F881F991F1AF0BA95C9F712C0B13092
:101D900081F09BD0B1E0089598C0672F782F8827F5
:101DA000B85F39F0B93FCCF3869577956795B395D1
:101DB000D9F73EF490958095709561957F4F8F4F40
:101DC0009F4F0895E89409C097FB3EF49095809545
:101DD000709561957F4F8F4F9F4F9923A9F0F92FF1
:101DE00096E9BB279395F695879577956795B7956F
:101DF000F111F8CFFAF4BB0F11F460FF1BC06F5F55
:101E00007F4F8F4F9F4F16C0882311F096E911C066
:101E1000772321F09EE8872F762F05C0662371F087
:101E200096E8862F70E060E02AF09A95660F771F9B
:101E3000881FDAF7880F9695879597F90895990F77
:101E40000008550FAA0BE0E8FEEF16161706E80784
:101E5000F907C0F012161306E407F50798F0621BA5
:101E6000730B840B950B39F40A2661F0232B242B7A
:101E7000252B21F408950A2609F4A140A6958FEF99
:101E8000811D811D089557FD9058440F551F59F02D
:101E90005F3F71F04795880F97FB991F61F09F3F57
:101EA00079F087950895121613061406551FF2CF80
:101EB0004695F1DF08C0161617061806991FF1CFD0
:101EC00086957105610508940895E894BB276627F7
:101ED0007727CB0197F90895B2DF08F48FEF0895C3
:101EE0000BD078C069D028F06ED018F0952309F097
:101EF0005AC05FC01124EACFC6DFA0F3959FD1F38B
:101F0000950F50E0551F629FF001729FBB27F00DA7
:101F1000B11D639FAA27F00DB11DAA1F649F6627FC
:101F2000B00DA11D661F829F2227B00DA11D621F4B
:101F3000739FB00DA11D621F839FA00D611D221F05
:101F4000749F3327A00D611D231F849F600D211DE9
:101F5000822F762F6A2F11249F5750408AF0E1F08C
:101F600088234AF0EE0FFF1FBB1F661F771F881FD5
:101F700091505040A9F79E3F510570F014C0A6CF74
:101F80005F3FECF3983EDCF3869577956795B795C0
:101F9000F795E7959F5FC1F7FE2B880F911D9695EA
:101FA000879597F9089597F99F6780E870E060E05A
:101FB00008959FEF80EC089500240A9416161706E2
:101FC00018060906089500240A941216130614062A
:101FD00005060895092E0394000C11F4882352F08D
:101FE000BB0F40F4BF2B11F460FF04C06F5F7F4F45
:101FF0008F4F9F4F0895AA1BBB1B51E107C0AA1F1B
:10200000BB1FA617B70710F0A61BB70B881F991F99
:102010005A95A9F780959095BC01CD010895A1E24C
:102020001A2EAA1BBB1BFD010DC0AA1FBB1FEE1F52
:10203000FF1FA217B307E407F50720F0A21BB30B9D
:10204000E40BF50B661F771F881F991F1A9469F719
:1020500060957095809590959B01AC01BD01CF0175
:102060000895FB01DC0104C08D910190801921F4D9
:1020700041505040C8F7881B990B0895FB01DC01C3
:1020800002C001900D9241505040D8F70895DC01F4
:1020900001C06D9341505040E0F70895F894FFCF90
:1020A00000010800006801080000000000010208AB
:1020B0000000700106000000000002030800007626
:1020C0000113000000000003040800006201060084
:1020D00000000000040302010000010002000300F0
:0C20E0000400100011001200200001009C
:00000001FF
