:10000000F1C000000C9401110CC100000AC10000F5
:1000100008C1000006C1000004C1000002C10000C8
:1000200000C10000FEC000000C94E4180C942619D6
:10003000F8C00000F6C00000F4C00000F2C00000EC
:10004000F0C00000EEC00000ECC00000EAC00000FC
:10005000E8C00000E6C00000E4C000000C94630C9F
:10006000E0C00000DEC00000DCC00000DAC000001C
:10007000D8C00000D6C00000D4C00000D2C000002C
:10008000D0C00000CEC00000CCC000000C944211D3
:10009000C8C00000C6C00000C118BC18B718B2180C
:1000A000AD18A818A3189E18991894188F188A18B4
:1000B000851880187B18761871186C1867186218E4
:1000C0005D18581853184E18491844183F183A1814
:1000D000351830182B18261821181C181718121844
:1000E0000D1808180318FE17F917F417EF17EA1779
:1000F000E517E017DB17D617D117CC17C717C217AC
:10010000BD17B817B317AE17A917A4179F179A17DB
:10011000951790178B17861781170C033100320043
:100120003300340035000000160355005300420030
:100130002000530065007200690061006C0000003F
:10014000140359006F007500720020004E0061001A
:100150006D006500000004030904000100008E0129
:100160001200020000A00143000300005601040138
:1001700003090440011402030904280116030309BA
:10018000041A010C0001C1120180360181361201EE
:10019000000202000010C0167A04000101020301EF
:1001A00009024300020100C03209040000010202FA
:1001B00001000524001001052401010104240206A8
:1001C0000524060001070582031000400904010010
:1001D000020A000000070503024000000705840230
:1001E0004000000011241FBECFEFD0E2DEBFCDBF24
:1001F00012E0A0E0B1E0E2E8FBE300E00BBF02C0E8
:1002000007900D92A23AB107D9F725E1A2EAB2E030
:1002100001C01D92A731B207E1F70E947A160C9433
:10022000BF1DEECEEAE7F0E095E89083982F90723C
:10023000906890937B008F71806480937C0085EC44
:100240008083808186FDFDCF2091780030917900F8
:10025000932F80E0AC01422B9A01822F932F0895B7
:1002600086EB92E09093B2028093B1021092B502B5
:100270001092B4021092B302089580E494E5909332
:10028000BA048093B90481E390EA9093BC0480930C
:10029000BB040895CF93DF938091E80085FF07C0EA
:1002A000E2ECF4E08081918190629183808380917F
:1002B000E80085FD12C0CDEBD4E08AE090E09983A0
:1002C00088836BE070E089EB94E00E9401176881FD
:1002D000798187E191E00E940117DF91CF91089524
:1002E000CF93DF93CDEBD4E084E090E099838883D3
:1002F0006BE070E089EB94E00E94011768817981DE
:1003000081E291E00E940117DF91CF9108958091E1
:10031000E80085FF07C0E2ECF4E080819181906203
:10032000918380838091E80085FD0AC01092BE040D
:100330001092BD046BE070E089EB94E00C9401171F
:1003400008956BE070E089EB94E00E9401176091E2
:10035000BD047091BE0484EC94E00C94011780E01D
:1003600092E0E6EBF2E0A4ECB4E001900D9201978C
:10037000E1F708954091D6065091D7066091D406D2
:100380007091D5067093C1046093C0049091D30618
:100390009093BF045527382F20E0240F351F30934A
:1003A000C3042093C2049091D10684FD7EC04031E5
:1003B000510509F438C01CF4452B49F076C0413191
:1003C000510579F04238510509F06FC004C0911110
:1003D0006CC060DF6BC0911168C081E08093000148
:1003E00064C06930710551F06B30710599F0672B6D
:1003F00009F05BC0911159C073DF58C08091DC08CF
:100400008093C40481E090E09093BE048093BD0487
:1004100098DF4CC0A4DF80E092E09093BE0480930C
:10042000BD048FDF43C06830710521F06A3071056B
:10043000E1F51AC02091D8062093CA0688E090E022
:100440009093C1048093C00480E190E09093C30432
:100450008093C2042093C40481E090E09093BE0492
:100460008093BD046EDF22C080E092E0E8EDF6E00C
:10047000A6EBB2E001900D920197E1F789E090E0E0
:100480009093C1048093C00481E190E09093C304F1
:100490008093C20484E08093C40481E090E0909350
:1004A000BE048093BD044DDF01C031DF81E00895BB
:1004B0003F924F925F926F927F928F929F92AF92F4
:1004C000BF92CF92DF92EF92FF920F931F93CF9341
:1004D000DF930F2EF4EDEF2EF6E0FF2EF02D689453
:1004E000552453F8C1EDD6E00F2EF3E6BF2EF02DC4
:1004F0000F2EFCE03F2EF02D0F2EFEE06F2EF02D84
:100500000F2EFDE07F2EF02D0F2EFFE08F2EF02D11
:100510000F2EF6EDCF2EF6E0DF2EF02D0F2EFAE0A7
:100520009F2EF02D0F2EFBE04F2EF02D0F2EF9E019
:10053000AF2EF02D0FEC16E0FAC00E94B616482F31
:100540002091A602273009F48AC068F42330D9F13B
:1005500020F4213039F178F51CC0253009F44EC063
:1005600008F05EC044C02B3009F4A8C030F4293034
:1005700009F488C008F08DC079C02D3009F4BDC0E1
:1005800008F4B8C02E3009F4BBC02F3009F0C3C046
:10059000BAC01092A702803409F0C0C081E08093F5
:1005A000A602C5C0843521F482E08093A602BFC0B4
:1005B0001092A602BCC09927F8019183808383E042
:1005C0008093A602B4C0982F8827F801208131813A
:1005D000820F931F91838083892B29F48091A70236
:1005E00080618093A70284E08093A602A0C099272F
:1005F0009983888385E08093A60299C0982F8827E5
:1006000028813981820F931F99838883813092409A
:1006100018F01092A6028BC086E08093A60287C0D5
:100620008093D30620910001222319F0109200013B
:1006300010C099272091A80230E02F5F3F4F2F77FD
:1006400030788217930729F08091A7028260809307
:10065000A7024093A80287E08093A60268C099276A
:10066000F701918380835092A60261C0982F88275A
:10067000F70120813181820F931F91838083A092A3
:10068000A60255C09927F601918380839092A60215
:100690004EC08093A90228813981232B39F04092E2
:1006A000A6021092A5021092A40238C080FF03C0D7
:1006B0003092A6023CC0B092A60234C08091A4023F
:1006C0009091A502FC01E353F94F43870196909363
:1006D000A5028093A4022881398182179307F1F43F
:1006E0008091A90280FF03C03092A60220C0B09280
:1006F000A60218C07092A6021AC06092A60217C085
:100700008092A60214C08091A70284608093A70201
:10071000B092A60207C01092A60209C08091A6025C
:10072000833629F48091A70225DE1092A6020E944A
:10073000E716811102CFDF91CF911F910F91FF90AA
:10074000EF90DF90CF90BF90AF909F908F907F9071
:100750006F905F904F903F900895CF93DF93EC019F
:100760006091F4087091F50880E090E0AE010E947D
:10077000DC0E2091F4083091F5088E859F85280FB6
:10078000391F68894E895F89649FC001659F900DFC
:100790001124280F391F822F932FDF91CF910895B5
:1007A000CF93DF93CDB7DEB7D2500FB6F894DEBF4C
:1007B0000FBECDBFAE014F5F5F4F60E070E0CB0179
:1007C0000E94DC0EC150DE4F8881CF5FD14085355D
:1007D00009F060C0C050DE4F8881C050D2408A3AD4
:1007E00009F058C0C953DE4F8881C75CD140C85357
:1007F000DE4F7881C85CD14060E0680F711D709356
:10080000F5086093F40880E090E0AE014F5F5F4F21
:100810000E94DC0EC150DE4F8881CF5FD14085350C
:1008200039F4C050DE4F8881C050D2408A3A61F01E
:100830001092F5081092F408AE014F5F5F4F60E030
:1008400070E0CB010E94DC0E8E858093780D8F8541
:1008500098899093910C8093900C8C859D85880F3E
:10086000991F82959295907F9827807F9827892F4E
:1008700086958093A40C1092A50CCE0101966DDF95
:100880002091A40C3091A50C820F931F9093A50C7E
:100890008093A40CDE5F0FB6F894DEBF0FBECDBF11
:1008A000DF91CF9108958F929F92AF92BF92CF9296
:1008B000DF92EF92FF920F931F93CF93DF936B0121
:1008C0007A01FB014081518162817381452B462B66
:1008D000472B51F08F3FFFEF9F0709F44BC0C0E05B
:1008E000D0E020E030E00CC0A0E0B0E0F601808372
:1008F0009183A283B3833EC08F3FFFEF9F07D1F167
:10090000880F991F88248A94992493948822992285
:10091000A090900CB090910C4091F4085091F50883
:10092000A40EB51E892F99278695A80EB91EA2166A
:10093000B30639F0B50180E090E0A7010E94DC0E1B
:100940009501F701E80DF91D118100E08081A801F2
:10095000480F511DCA0121964E01A12CB12CF60160
:10096000408151816281738184169506A606B7067F
:1009700019F6BACFDF91CF911F910F91FF90EF90B1
:10098000DF90CF90BF90AF909F908F9008952F925F
:100990003F924F925F926F927F928F929F92AF920F
:1009A000BF92CF92DF92EF92FF920F931F93CF935C
:1009B000DF9300D000D0CDB7DEB7A62E1A012901F3
:1009C00019821A821B821C82009749F4C801C5DE75
:1009D000A0E0B0E089839A83AB83BC8322C0A801E6
:1009E000BE016F5F7F4F5FDFA091780D49815A8113
:1009F0006B817C819A01AB01225031094109510977
:100A0000B0E00E94E91A2091A40C3091A50CDC0101
:100A1000CB01820F931FA11DB11D89839A83AB83E4
:100A2000BC8389809A80E12CF12C380120E2620E8F
:100A3000711C68018EEFD81AB12CB40180E090E0EF
:100A4000A8010E94DC0ED8012C91222309F445C094
:100A5000C301F80107C0FC018096DC0190972C913E
:100A60002223F1F133853F3089F1253E79F1AE142F
:100A7000BF0449F5BF0120E04EE2CB01DB013C9110
:100A8000303251F0283019F4D8014D938D01DC013A
:100A90008C91D8018D938D012F5F6F5F7F4F2B302D
:100AA00061F7D8011C928385D2018C93448D558DBA
:100AB000668D778DD1014D935D936D937C931397E4
:100AC000228D338D0FC0BFEFEB1AFB0A8C159D05ED
:100AD00011F6EFEF8E1A9E0AB0CF2FEF3FEF02C054
:100AE0002FEF3FEF822F932F0F900F900F900F90CB
:100AF000DF91CF911F910F91FF90EF90DF90CF90FA
:100B0000BF90AF909F908F907F906F905F904F902D
:100B10003F902F9008954F925F926F927F928F92A5
:100B20009F92AF92BF92CF92DF92EF92FF920F937C
:100B30001F93CF93DF9300D000D0CDB7DEB75C0119
:100B40008B0169017A012091780D30E040E050E09E
:100B5000C701B6010E94C11A29833A834B835C8383
:100B6000A801BE016F5F7F4FC5019DDE8090780DAB
:100B7000912CA12CB12C89819A81AB81BC81BC01C3
:100B8000CD016250710981099109A50194010E946A
:100B9000B21A2091A40C3091A50C2B013C01420EFD
:100BA000531E611C711CC701B601A50194010E946E
:100BB000C11A640D751D861D971D69837A838B8309
:100BC0009C83A8010E94DC0E0F900F900F900F9055
:100BD000DF91CF911F910F91FF90EF90DF90CF9019
:100BE000BF90AF909F908F907F906F905F904F904D
:100BF00008955F926F927F928F929F92AF92BF9271
:100C0000CF92DF92EF92FF920F931F93CF93DF93D8
:100C10004C017B015A016901E801FB016080718090
:100C2000512C8E019601A501652DC301B0DEF7019F
:100C300091838083019661F0BE01C4010E942A1D48
:100C4000892B41F0539424E65212EBCF82E003C08B
:100C500080E001C081E0DF91CF911F910F91FF9063
:100C6000EF90DF90CF90BF90AF909F908F907F904C
:100C70006F905F900895681748F09FEFE82FF0E0BD
:100C8000EB54FB4E90838F5F6817C0F7883028F4D1
:100C9000E82FF0E0EB54FB4E11820895CF9380E8EB
:100CA0008093B604E1E6F0E0808381E08083579A88
:100CB0005F98569A5E9872D69DD6A0D02FEF84E3A7
:100CC0009CE0215080409040E1F700C0000085E2A8
:100CD00091E010D760E080E0CEDF85EB94E122D791
:100CE0000E949D162FEF84E39CE0215080409040AD
:100CF000E1F700C000008EE291E0FCD685EB94E1C4
:100D000011D70E944E0F87E391E0F4D661E081E0B5
:100D1000B2DF85EB94E106D70E94241080E491E0D5
:100D2000E9D662E082E0A7DF85EB94E1FBD6C0E084
:100D30000AC0CF5F2FE78AE196E0215080409040C3
:100D4000E1F700C000005ED7882319F0C63089F7AC
:100D500002C0C63090F089E491E0CCD682E591E003
:100D6000E1D62FEF83ED90E3215080409040E1F7F2
:100D700000C000000E94E31129C083E691E0BAD6CA
:100D800064E082E078DF85EB94E1CCD62FEF80E75A
:100D900092E0215080409040E1F700C0000000DD6B
:100DA0008CE691E0A7D666E084E065DF85EB94E110
:100DB000B9D62FEF80E792E0215080409040E1F7D4
:100DC00000C000000E94F2110E94061649DA55DAAE
:100DD00085E791E08FD667E082E04DDF85EB94E117
:100DE000A1D62FEF89E698E1215080409040E1F7AD
:100DF00000C0000030D17894CF91089589E091E04F
:100E000079D681E091E08EC6CF938091AC0D8111AF
:100E100012C080918E0BC1E1C89FC0011124885C73
:100E2000944F68D680918E0BC89FC00111248B50BF
:100E3000944F78D60EC1813009F062C080911A14A7
:100E4000823089F130F4882351F0813009F001C1FA
:100E500018C0833089F1843009F0FBC03FC0809115
:100E60008E0BC2E2C89FC00111248B53904F42D613
:100E700080918E0BC89FC00111248C54904F52D684
:100E8000E8C080918E0BC2E2C89FC00111248B5331
:100E9000904F30D680918E0BC89FC00111248C5486
:100EA000904F40D6D6C08EE791E024D68BE492E0F6
:100EB00039D60E943C10CDC080918E0BC1E1C89FF5
:100EC000C00111248157944F15D680918E0BC89F75
:100ED000C0011124855E9B4E25D6BBC080918E0B30
:100EE000C1E1C89FC00111248758924F03D6809159
:100EF0008E0BC89FC00111248D50934F13D6A9C0EB
:100F0000823009F0A6C080911A14823020F083301C
:100F100009F09FC01EC080918E0B882399F08091AC
:100F2000171422E2829FC00111248B53904FE2D507
:100F300080918E0B21E1829FC0011124895F964F21
:100F4000F1D587C087E099E0D5D58DE791E0EAD566
:100F500080C080911714823009F458C0833009F49E
:100F600067C0813009F075C080918E0B813061F0CF
:100F700020F0823009F06DC028C08BE59CE0BAD526
:100F80008DE791E0CFD565C08091C0148093770D37
:100F90008CE69CE0AFD54AE050E066E67DE08091CB
:100FA000770D90E00E94741DBDD58FE39FE10197FE
:100FB000F1F700C0000080918E0B21E1829FC001FB
:100FC00011248F579B4E68D544C08091F7148093AD
:100FD000770D8DE79CE08ED54AE050E066E67DE037
:100FE0008091770D90E00E94741D9CD58FE39FE166
:100FF0000197F1F700C0000080918E0B21E1829FE4
:10100000C00111248F579B4E47D523C080918E0B72
:10101000811107C085E891E06DD58DE791E082D51B
:1010200018C083EE98E066D58AE49CE07BD511C0B9
:1010300080918E0B811107C085E891E05BD58DE72B
:1010400091E070D506C086EF98E054D583E99CE026
:1010500069D5CF910895CF93DF931092770D1092B9
:10106000AC0D10928E0B10921A141092171410924D
:10107000AF0D85E08093B41481E08093F00C96E08E
:101080009093F10C93E09093F20C10928D0B90934F
:10109000DE0892E09093DF089093E0088093E108E7
:1010A0008093E2088093B20F8093B30F88E0ECE85E
:1010B000F1E0A8E3BBE001900D928A95E1F789E0A9
:1010C000E4E9F1E0A5EFBBE001900D928A95E1F72C
:1010D00085E0EDE9F1E0A9E4BBE001900D928A958D
:1010E000E1F789E0E2EAF1E0A6E0BCE001900D92D0
:1010F0008A95E1F78EE495E6A7E7B0E080935A0B76
:1011000090935B0BA0935C0BB0935D0B89E0EBEAD3
:10111000F1E0A7E1BCE001900D928A95E1F789E04A
:10112000E4EBF1E0ABE6BBE001900D928A95E1F7CC
:1011300089E0E1EFF1E0A8E2BCE001900D928A9530
:10114000E1F789E0EDEBF1E0ACE7BBE001900D9257
:101150008A95E1F789E0EBE0F2E0A9E3BCE00190D9
:101160000D928A95E1F787E0E5E8F1E0AFE8BBE0B2
:1011700001900D928A95E1F710921B1489E0E6EC3C
:10118000F1E0A0EABBE001900D928A95E1F789E0D9
:10119000E4E9F1E0ACE2B4E101900D928A95E1F767
:1011A00089E0EFECF1E0A1EBBBE001900D928A95B4
:1011B000E1F789E0E2EAF1E0ADE3B4E101900D92FC
:1011C0008A95E1F788E0E8EDF1E0A2ECBBE0019060
:1011D0000D928A95E1F789E0EBEAF1E0AEE4B4E143
:1011E00001900D928A95E1F789E0E0EEF1E0A3ED40
:1011F000BBE001900D928A95E1F781E1E9EEF1E023
:10120000AFE5B4E101900D928A95E1F789E0EAEF4C
:10121000F1E0A4EEBBE001900D928A95E1F781E147
:10122000E3E0F2E0A0E7B4E101900D928A95E1F7E6
:1012300087E0E5E8F1E0ABE5BCE001900D928A952E
:10124000E1F71092811486E0E4E1F2E0ACE6BCE064
:1012500001900D928A95E1F785E0EAE1F2E0A2E9DA
:10126000B4E101900D928A95E1F788E0EFE1F2E0B8
:10127000ADE7BCE001900D928A95E1F787E0E7E2E7
:10128000F2E0A3EAB4E101900D928A95E1F789E0DA
:10129000EEE2F2E0AAE4BCE001900D928A95E1F75B
:1012A00089E0EEE2F2E0A3E9BCE001900D928A95BC
:1012B000E1F787E0E5E8F1E0A9E7BDE001900D92F4
:1012C0008A95E1F7C3EFDCE0188287E0E7E3F2E01C
:1012D000AAE8BDE001900D928A95E1F7198A88E0AD
:1012E000EEE3F2E0ABE9BDE001900D928A95E1F703
:1012F0001AA28ADDDF91CF910895AF92BF92CF926B
:10130000DF92EF92FF920F931F93CF93DF93EC0145
:101310005B0110928F0C10928E0C00EB1DE022E905
:101320003CE048EA5CE06EE87CE08BEE94E161DC56
:10133000813029F51092C8141092C71410920B1521
:10134000C12CD12C7601A701960160EB7DE0809144
:101350008E0C90918F0CDFDBA501BE0180EB9DE030
:101360000E94BB13019759F08FEFC81AD80AE80AF8
:10137000F80A80E8C816D104E104F10421F780914D
:10138000F9140E94B41587E099E00E944E16DF918F
:10139000CF911F910F91FF90EF90DF90CF90BF9072
:1013A000AF9008958F929F92AF92BF92CF92DF92AB
:1013B000EF92FF920F931F93CF93DF93EC017B018A
:1013C0006A0110928F0C10928E0C00EB1DE022E946
:1013D0003CE048EA5CE06EE87CE08BEE94E109DCFE
:1013E000813041F51092C8141092C71410920B1559
:1013F0000E943001812C912C5401A501940160EBD5
:101400007DE080918E0C90918F0C85DB9601A70179
:10141000BE0180EB9DE00E948314019759F08FEF8D
:10142000881A980AA80AB80A80E888169104A104C4
:10143000B10419F7DF91CF911F910F91FF90EF90B9
:10144000DF90CF90BF90AF909F908F900895809144
:101450008E0B882319F0815080938E0BD5CC809110
:10146000AC0D8130A9F020F0823009F04CC023C0CF
:1014700040918E0B242F30E08091B41490E00197BE
:10148000281739070CF03FC04F5F40938E0B3BC0CD
:1014900040918E0B242F30E0E0911A14F0E0E251DD
:1014A000F34F808190E001972817390764F54F5F6B
:1014B00040938E0B28C080911A14823018F083302C
:1014C00011F50FC040918E0B242F30E080918D0BD1
:1014D00090E0019728173907B4F44F5F40938E0BC3
:1014E00012C040918E0B242F30E0E0911714F0E0F1
:1014F000E352F74F808190E00197281739071CF4D9
:101500004F5F40938E0B80CC8091AC0D882321F0EF
:10151000813009F062C012C080918E0BE82FF0E09C
:10152000E251F34F9081992309F457C091E09093D1
:10153000AC0D80931A14109217144FC080911A1496
:10154000833051F120F4823008F047C004C0843069
:1015500009F043C032C010921415109216148091F5
:101560008E0B22E2829FC0011124BC016B53704F8D
:101570008C54904FC2DE80911614882371F18F5FD6
:1015800080938D0B80918E0B809317148091AC0DFE
:101590008F5F8093AC0D21C080918E0BE82FF0E01F
:1015A000E352F74F90819923C1F092E09093AC0DF4
:1015B000809317141092AF0D10C080918E0BE82FFE
:1015C000F0E0EE54F04F9081992339F092E090933F
:1015D000AC0D809317141092AF0D10928E0B0895DE
:1015E0008091AC0D833051F48091AF0D80938E0BC0
:1015F0001092AF0D82E08093AC0D0895823051F4CB
:101600008091171480938E0B1092171481E08093B1
:10161000AC0D0895813059F480911A1480938E0B8B
:101620001092171410921A141092AC0D0895811193
:1016300004C010921A141092171408958091AC0DE2
:10164000813039F020F0823009F003C1C5C05CDF81
:1016500000C180911A14833089F020F4823008F0A0
:10166000F8C004C0843009F0F4C010C080918E0B23
:10167000811102C0B5DFEDC047DFEBC080918E0B5A
:10168000811102C0ADDFE5C03FDFE3C080918E0B6A
:10169000813039F020F0823009F0DBC04BC0A0DF90
:1016A000D8C087E392E026D22FEF81EE94E021505C
:1016B00080409040E1F700C0000087E392E01AD23A
:1016C0008CE492E02FD22FEF81EE94E02150804005
:1016D0009040E1F700C0000087E392E00BD28AE47B
:1016E00092E020D22FEF81EE94E021508040904094
:1016F000E1F700C0000087E392E0FCD188E492E0CB
:1017000011D22FEF81EE94E0215080409040E1F71C
:1017100000C0000087E392E0EDD186E492E002D2BF
:101720002FEF81EE94E0215080409040E1F700C01F
:101730000000B4CA8EE392E0DDD12FEF80E792E0A3
:10174000215080409040E1F700C000008EE392E01D
:10175000D1D18CE492E0E6D12FEF80E792E02150E6
:1017600080409040E1F700C000008EE392E0C2D1DB
:101770008AE492E0D7D12FEF80E792E021508040B9
:101780009040E1F700C000008EE392E0B3D188E41E
:1017900092E0C8D12FEF80E792E021508040904046
:1017A000E1F700C000008EE392E0A4D186E492E06D
:1017B000B9D12FEF80E792E0215080409040E1F7CF
:1017C00000C000008DE791E095D11092AC0D109211
:1017D0008E0B10921A14089580911A148130F1F032
:1017E00018F08330B1F530C040918E0B411102C02A
:1017F000F7DE2FC08091171421E1429FA001112430
:10180000495F564F22E2829FC0011124BC016B53F5
:10181000704F8C54904FC6DD42D41BC080918E0B0C
:10182000811102C0DDDE15C08FE492E063D183E553
:1018300092E078D18FEF99E628E1815090402040E6
:10184000E1F700C0000005C080918E0B811101C03E
:10185000C7DEDACAEEE6F0E080818160808314BCE6
:1018600085B5846085BD089580E00E9412010597CA
:101870000CF4E4DE81E00E941201059714F4B0DE5E
:10188000C3DA82E00E94120105970CF4E0DD83E0E8
:101890000E94120105970CF4E2DD84E00E9412011F
:1018A000059754F41092AC0D10928E0B10921A14EE
:1018B00081E080931714A8DA85E00E941201059751
:1018C0000CF4BCCE08951F920F920FB60F92112404
:1018D0000BB60F922F933F934F935F936F937F932A
:1018E0008F939F93AF93BF93EF93FF938091AA023F
:1018F0009091AB0201969093AB028093AA02E3D23F
:101900002091AA023091AB028091C0149091C11431
:101910002817390729F4A8DF1092AB021092AA0207
:10192000FF91EF91BF91AF919F918F917F916F91B7
:101930005F914F913F912F910F900BBE0F900FBE73
:101940000F901F9018958130910539F48EE791E042
:10195000D1D08DE592E0E6D008C0892B31F484E641
:1019600092E0C8D08DE692E0DDD08091AC0D882366
:1019700059F090911A1490938E0B109217141092A4
:101980001A1481508093AC0D2FEF83ED90E321501A
:1019900080409040E1F700C0000036CA81B18FEF6F
:1019A00081B997B187B9159A179A169808954098F2
:1019B00088230CF4409A419886FD419A429885FD0F
:1019C000429A439884FD439A179A82E08A95F1F7E8
:1019D00000C0179882E08A95F1F700C00895CF9370
:1019E000C82F15981798E3DF8C2F8295807FDFDF53
:1019F000CF9108958FE59AEE0197F1F700C00000AE
:101A00001598179880E3D3DF8FE19EE40197F1F7F3
:101A100000C0000080E3CBDF8FE891E00197F1F791
:101A200000C0000080E3C3DF8FE891E00197F1F789
:101A300000C0000088E2BBDF95ED9A95F1F7000049
:101A400088E2CDDF85ED8A95F1F7000088E0C7DFF9
:101A500095ED9A95F1F7000081E0C1DF8FE39FE1FA
:101A60000197F1F700C0000086E0B9DF95ED9A9587
:101A7000F1F700008CE0B3DF85ED8A95F1F7000007
:101A80000895CF93C82F159A179891DF8C2F8295C0
:101A9000807F8DDFCF9108950F931F93CF93DF93B6
:101AA00000D0CDB7DEB78C011A821982E981FA81A4
:101AB000E80FF91F80818823B1F0E981FA81E00FF6
:101AC000F11F8081DEDF89819A8101969A83898363
:101AD00085ED8A95F1F70000E981FA81E00FF11FA9
:101AE00080818111EACF0F900F90DF91CF911F91EC
:101AF0000F910895CF93DF93EC0181E070DF8FE3C6
:101B00009FE10197F1F700C0000080E868DF8FE3F4
:101B10009FE10197F1F700C00000CE01BDDFDF912A
:101B2000CF910895CF93DF93EC0180EC58DF85EDE2
:101B30008A95F1F70000CE01AFDFDF91CF910895D4
:101B4000229A219A209A239883E58CBD8DB58E7FA9
:101B50008DBD08950F931F939FEF9EBD0DB407FE9B
:101B6000FDCF9EB5982F90649EBD0DB407FEFDCFAE
:101B70009EB5072F1127222733270EBD0DB407FE70
:101B8000FDCF9EB58B01222733270EBD0DB407FE76
:101B9000FDCF9EB5052F162F272F33270EBD0DB471
:101BA00007FEFDCF9EB54EBD0DB407FEFDCF9EB521
:101BB000882319F0883079F407C085E98EBD0DB40B
:101BC00007FEFDCF8EB518C087E88EBD0DB407FEA9
:101BD000FDCF8EB511C08FEF8EBD0DB407FEFDCFCA
:101BE0008EB50AC02EBD0DB407FEFDCF8EB58F3F5A
:101BF00031F49150B9F703C09AE02FEFF3CF1F9162
:101C00000F9108958F929F92AF92BF92CF92DF92E1
:101C1000EF92FF92CF93DF9393DF289A8AE09FEFB2
:101C20009EBD0DB407FEFDCF2EB58150C9F7289893
:101C3000C0E0D2E040E050E0BA0180E08BDF8130CC
:101C400041F0C130D10519F4289A81E0AAC021974A
:101C500089F74AEA51E060E070E088E07BDF82FDCE
:101C60002AC08FEF8EBD0DB407FEFDCF8EB58FEF6E
:101C70008EBD0DB407FEFDCF8EB58FEF8EBD0DB4BA
:101C800007FEFDCF0EB400FE8BC08FEF8EBD0DB4EE
:101C900007FEFDCF8EB58A3A09F0FFCF8091AC02E6
:101CA00082608093AC02C0E0D0E8812C912C54017A
:101CB0006894B6F812C040E050E0BA0187E34ADF0A
:101CC00040E050E0BA0189E245DF82FDECCF80912F
:101CD000AC0281608093AC02E6CF8091AC02982F79
:101CE000937091F081FD04C0C12CD12C760102C00B
:101CF0007501640140E050E0BA0187E32BDFB701D2
:101D0000A60189E227DF05C040E050E0BA0181E08A
:101D100021DF80FF05C0219701F7289A81E041C0AB
:101D20008091AC0281FF29C040E050E0BA018AE313
:101D300011DF882319F0289A81E033C08FEF8EBD20
:101D40000DB407FEFDCF0EB406FE05C08091AC02B7
:101D500084608093AC028FEF8EBD0DB407FEFDCF83
:101D60008EB58FEF8EBD0DB407FEFDCF8EB58FEF14
:101D70008EBD0DB407FEFDCF8EB540E052E060E0B1
:101D800070E080E1E7DE882319F0289A81E009C03D
:101D9000289A80E58CBD8DB581608DBD80E001C045
:101DA00081E0DF91CF91FF90EF90DF90CF90BF90D7
:101DB000AF909F908F9008958F929F92AF92BF9215
:101DC000CF92DF92EF92FF920F93CF93DF93EA01CE
:101DD000AB01BC01032E39E0440F551F661F771F6E
:101DE0003A95D1F7302D4A015B0128988091AC02D9
:101DF00081FF13C0242F392D4A2D5B2D60E070E048
:101E000080E090E009E00E94F31AF22FE32F942F74
:101E1000852F4F2F5E2F692F782F81E19BDE88233E
:101E200019F0289A81E02EC09FEF9EBD0DB407FEE9
:101E3000FDCF8EB58E3FC9F780E090E03FEF3EBD0D
:101E40000DB407FEFDCF2EB5811542E0940708F4CE
:101E500029930196811522E0920789F78FEF8EBDB5
:101E60000DB407FEFDCF8EB58FEF8EBD0DB407FE0E
:101E7000FDCF8EB5289A8FEF8EBD0DB407FEFDCF36
:101E80008EB580E0DF91CF910F91FF90EF90DF90C2
:101E9000CF90BF90AF909F908F90089509980A9827
:101EA0000898109A129A119A1092BE141092BF14A8
:101EB0001092C61410921615109215151092131543
:101EC00010921215C7CC20B140B1469541702470D4
:101ED00030E0C90195958795842B8093BE1483309B
:101EE00009F043C08091BF14813031F54091121543
:101EF00050911315415051095093131540931215E9
:101F000060E070E02091F7143091F81480E090E0E8
:101F1000A1E0B0E0821B930BA109B1094817590752
:101F20006A077B0729F493DA1092131510921215A1
:101F30008091BE148330C9F48091BF148230A9F41B
:101F4000809112159091131501969093131580931B
:101F500012152091F7143091F8148217930729F481
:101F60007EDA109213151092121500991DC08091FF
:101F70001515909116152091C0143091C114821737
:101F8000930729F4109216151092151502C0892B8B
:101F900009F454DB809115159091161501969093D4
:101FA00016158093151504C010921615109215156C
:101FB0008091BE148093BF14089581110FC0E1E792
:101FC000F0E080818E7F8083E1E9F0E080818D7F89
:101FD000808310929500109294000895E1E7F0E05C
:101FE000808181608083E1E9F0E08081826080838C
:101FF00010929500109294000895269AA1E8B0E0FE
:102000008C9180618C938C9188608C93E0E8F0E0F7
:1020100080818260808380818E7F80838C918D7FA0
:102020008C93A6E8B0E089E190E011969C938E93A2
:102030008081806380838D919C9196958795909304
:102040008B0080938A0008955098589AE9E6F0E052
:10205000808181608083E89880E090E0AEDFCDCF22
:10206000E0E8F0E0908180E289278083908180E140
:10207000892780832E98089586E792E03BDD82E0F1
:102080008093DC08F8940E94300181E096DFE1E85B
:10209000F0E080818D7F8083E89A78940895F894A9
:1020A00081E08093DC080E94300181E086DFA5DFBB
:1020B000E1E8F0E0808182608083E091B102F091FC
:1020C000B202918180E02281820F911D80959095CE
:1020D00090939500809394003396F093B202E0932E
:1020E000B10278940895F8941092DC0886EB92E09F
:1020F0009093B2028093B1021092B4021092B30294
:102100001092B50280E059DFE1E8F0E080818D7F38
:102110008083789408958091910081FD02C081E0D0
:102120004CDF8091B3029091B4028B3F914008F450
:102130003DC0E898E091B102F091B2028FEF808348
:10214000E091B102F091B2028183E091B102F0918D
:10215000B202828383E08093DC0888E090E0909371
:10216000C1048093C00480E190E09093C304809305
:10217000C2048091B6048F5F19F08093B60403C047
:1021800080E88093B6048091B6048093BF0483E016
:102190008093C40481E090E09093BE048093BD04DA
:1021A0000E94A101A0DF80E090E0CDCBE091B102E0
:1021B000F091B2028091B5028083A091B102B091FA
:1021C000B202E4E9F0E08081918111969C93A091A4
:1021D000B102B091B2028081918112968C931297D4
:1021E0001396B093B202A093B1028091B302909182
:1021F000B40203969093B4028093B30211821082CA
:1022000008951F920F920FB60F9211240BB60F92E2
:102210002F933F934F935F936F937F938F939F93EE
:10222000AF93BF93EF93FF9376DFFF91EF91BF9151
:10223000AF919F918F917F916F915F914F913F915E
:102240002F910F900BBE0F900FBE0F901F901895FF
:10225000F8941092DC0886EB92E09093B20280939F
:10226000B1021092B4021092B30280E0A6DEE1E85F
:10227000F0E080818D7F8083109295001092940011
:10228000789408951F920F920FB60F9211240BB6F7
:102290000F922F933F934F935F936F937F938F93FF
:1022A0009F93AF93BF93EF93FF938091DC088130AE
:1022B000A9F5D6DEE1E8F0E0908182E0892780830D
:1022C000E091B102F091B202918180E02281820F0F
:1022D000911D80959095E4E9F0E091838083808161
:1022E0009181892B39F08091B3029091B4028B3F98
:1022F000914008F0ADDF8091B1029091B202039657
:102300009093B2028093B1028091B3029091B40293
:1023100003969093B4028093B30237C08230A9F53C
:102320008091B5028C3461F51092B5021092DC08F0
:102330001092C4048091B6048F5F19F08093B604A4
:1023400003C080E88093B6048091B6048093BF04F4
:1023500088E090E09093C1048093C00480E190E015
:102360009093C3048093C20481E090E09093BE04F4
:102370008093BD040E94A101B6DE81E090E0E3DA23
:102380008091B5028F5F8093B502FF91EF91BF916D
:10239000AF919F918F917F916F915F914F913F91FD
:1023A0002F910F900BBE0F900FBE0F901F9018959E
:1023B0000C943D1D08950C943D1D08956F5E7F4F54
:1023C00041960C943D1D1092C21410920C158DE391
:1023D00090E09093C1148093C0141092EE0C109270
:1023E000EF0C08950F931F93CF93DF9300D000D08D
:1023F0001F92CDB7DEB71092C21410920C15109236
:10240000920C1092A80C1092A90C1092AA0C109287
:10241000AB0C10928F0C10928E0C00EB1DE022E999
:102420003CE048EA5CE06EE87CE083E892E00E94F1
:10243000F905813009F08EC020E030E0A901B80133
:1024400080918E0C90918F0C0E948B058091B00D25
:10245000882309F47FC08CE290E09D838C838DE01B
:102460009AE0A0E089839A83AB83BE016C5F7F4FC3
:10247000C8010E94271DBE016F5F7F4F80E090E082
:102480000E94271D0E940A1D9093C1148093C014BE
:10249000BE016C5F7F4F80E090E00E94271DBE016F
:1024A0006F5F7F4F80E090E00E94271D0E940A1D11
:1024B0009093F8148093F714BE016C5F7F4F80E017
:1024C00090E00E94271DBE016F5F7F4F80E090E08B
:1024D0000E94271DBC018BEE94E10E94461D6BEE0D
:1024E00074E183EE98E00E94461DBE016C5F7F4F51
:1024F00080E090E00E94271DBE016F5F7F4F80E06B
:1025000090E00E94271D0E940A1D8093F9148130DB
:1025100071F018F08230F1F414C089E0EEE8F2E0D6
:10252000A6EFB8E001900D928A95E1F713C085E01F
:10253000E7E9F2E0A6EFB8E001900D928A95E1F7A5
:1025400009C085E0ECE9F2E0A6EFB8E001900D9259
:102550008A95E1F70F900F900F900F900F90DF91F9
:10256000CF911F910F9108955F926F927F928F92FA
:102570009F92AF92BF92CF92DF92EF92FF920F9312
:102580001F93CF93DF936C01FC012081222309F478
:10259000DBC0C0E0D0E00F2EF2E26F2EF02D04C0C1
:1025A0002181222309F4D3C02D3031F02C3209F4DB
:1025B0005BC02A3009F065C05090BD14552009F465
:1025C00044C0852D90E08C0101501109F2F1812C5D
:1025D000912C712C689E9001699E300D11240F2E54
:1025E000F4EBEF2EFFE0FF2EF02DE20EF31E0F2E88
:1025F000F5ECAF2EFFE0BF2EF02DA20EB31E689CAF
:10260000B001699C700D11246C54704FC7010E9479
:102610003D1D282F392F232B91F4689CB001699C14
:10262000700D11246B53704FC5010E943D1D282F62
:10263000392F232B21F45A945092BD1406C0739461
:10264000872C912C08151905D4F61092C8141092F5
:10265000C7148091BD148F5F8093BD14F60131962D
:10266000219610920B155CC08091C7149091C814EC
:1026700001969093C8148093C71410920B15F6011D
:102680004FC08091C7149091C814009721F0019712
:1026900009F045C022C08091BD1490E030910B1527
:1026A000689EF001699EF00D1124E30FF11DEC54BA
:1026B000F04F2083303118F43F5F30930B15209199
:1026C0000B15689EF001699EF00D1124E20FF11DBB
:1026D000EC54F04F1082F60123C08091BD1490E0BD
:1026E00030910B15689EF001699EF00D1124EC5499
:1026F000F04FE30FF11D218B303118F43F5F309321
:102700000B1520910B15689EF001699EF00D1124A8
:10271000EC54F04FE20FF11D118AF60101C0F601F1
:102720006F018FEFC81AD80A2196C11582E0D80729
:1027300008F436CF8091BD148F5F8093EE0C8093A8
:10274000EF0C20E030E005C021E030E002C021E0E5
:1027500030E0822F932FDF91CF911F910F91FF9047
:10276000EF90DF90CF90BF90AF909F908F907F9031
:102770006F905F900895AF92BF92CF92DF92EF92E9
:10278000FF920F931F93CF93DF938C016B017A011C
:10279000FC012081222309F4A4C0C0E0D0E00F2E68
:1027A000F1E1BF2EF02D04C02181222309F49CC049
:1027B0002D3021F02C3261F12A30D9F5B7018AEDA4
:1027C00094E10E943D1D282F392F232BB9F4B60127
:1027D00089EC94E10E943D1D282F392F232B71F4A1
:1027E000A0901415BA9CC00111246AEF74E1895FAE
:1027F000964F0E94461DA394A09214151092C814DF
:102800001092C714F8013196219610920B1559C0F9
:102810008091C7149091C8148F3FFFEF9F0729F054
:1028200001969093C8148093C71410920B15F80169
:1028300048C08091C7149091C81481309105C1F0AF
:1028400018F00297E9F528C080910B15E82FF0E009
:10285000E753FB4E2083803118F48F5F80930B1574
:10286000E0910B15F0E0E753FB4E1082F80129C010
:1028700080910B15E82FF0E0E652FB4E208380316B
:1028800018F48F5F80930B15E0910B15F0E0E65282
:10289000FB4E1082F80115C080910B15E82FF0E077
:1028A000E650FB4E2083803118F48F5F80930B1528
:1028B000E0910B15F0E0E650FB4E1082F80101C0EC
:1028C000F8018F010F5F1F4F2196C11522E0D2073B
:1028D00008F46ACF809114158093161420E030E03C
:1028E00005C021E030E002C021E030E0822F932FCC
:1028F000DF91CF911F910F91FF90EF90DF90CF90DC
:10290000BF90AF9008956F927F928F929F92AF92F7
:10291000BF92CF92DF92EF92FF920F931F93CF93CC
:10292000DF938C014B017A013901FC0120812223C4
:1029300009F4E7C0C0E0D0E00F2EF6EBCF2EF2E0B6
:10294000DF2EF02D04C02181222309F4DDC02D30BB
:1029500029F02C3289F12A3009F068C0B7018AEDDC
:1029600094E10E943D1D282F392F232B99F4B401A7
:1029700089EC94E10E943D1D282F392F232B51F41F
:10298000B3018AEF94E10E943D1D282F392F232B9C
:1029900009F4BDC0D092B202C092B1021092B4024A
:1029A0001092B3021092C8141092C714F801319615
:1029B000219610920B1599C08091C7149091C8145C
:1029C000039718F18091B3029091B4028F3F914028
:1029D000E0F4A090B102B090B20283EC94E10E94C6
:1029E0000A1DF50180838091B1029091B202019697
:1029F0009093B2028093B1028091B3029091B4029D
:102A000001969093B4028093B3028091C714909181
:102A1000C8148F3FFFEF9F0729F001969093C814C9
:102A20008093C71410920B15F8015FC08091C714F2
:102A30009091C81481309105C1F018F00297D9F532
:102A400027C080910B15E82FF0E0E753FB4E208361
:102A5000803108F043C08F5F80930B15E82FF0E0C2
:102A6000E753FB4E1082F80140C080910B15E82F10
:102A7000F0E0E652FB4E2083803190F58F5F80932B
:102A80000B15E82FF0E0E652FB4E1082F8012DC046
:102A900080910B15E82FF0E0E650FB4E208380314B
:102AA00008F58F5F80930B15E82FF0E0E650FB4EA2
:102AB0001082F8011AC080910B15E82FF0E0ED5359
:102AC000FB4E2083823080F48F5F80930B15E82FBC
:102AD000F0E0ED53FB4E1082F80107C0F80105C08D
:102AE000F80103C0F80101C0F8018F010F5F1F4F0B
:102AF0002196C11522E0D20708F425CF20E030E06E
:102B000008C021E030E005C021E030E002C020E054
:102B100030E0822F932FDF91CF911F910F91FF9083
:102B2000EF90DF90CF90BF90AF909F908F907F906D
:102B30006F900895813019F08230A9F40AC0609135
:102B4000BD142EED31E142E250E070E084EB9FE0F5
:102B5000A7C56091BD142BED31E142E250E070E079
:102B600084EB9FE09DC508958150823050F46091C0
:102B7000161428ED31E141E150E070E087E099E082
:102B80008FC50895CF92DF92EF92FF920F931F931C
:102B9000CF93F090BD14CF2DC15028F10F2EF2E24B
:102BA000EF2EF02DC132E8F48C2F90E09C012F5FC6
:102BB0003F4FE89E8001E99E100D1124B8016B5330
:102BC000704FE29E6001E39ED00C1124C6018B532E
:102BD000904F5CD7B8016C54704FC6018C54904F25
:102BE00055D7C150F8F687E0E5E8F1E0A5ECBFE085
:102BF00001900D928A95E1F71092B40FCF911F9139
:102C00000F91FF90EF90DF90CF900895CF92DF92D9
:102C1000EF92FF920F931F9310928F0C10928E0CD5
:102C200000EB1DE022E93CE048EA5CE06EE87CE075
:102C30008BEE94E10E94F905813049F51092C81499
:102C40001092C71410920B151092BD14C12CD12CE8
:102C50007601A701960160EB7DE080918E0C90914A
:102C60008F0C0E948B0580EB9DE07EDC019759F074
:102C70008FEFC81AD80AE80AF80A80E8C816D10403
:102C8000E104F10431F78091F91454DF7BDF1F91E7
:102C90000F91FF90EF90DF90CF9008950F931F93C7
:102CA000CF93DF93EC01109116141150B0F001E1B5
:102CB000113288F4212F30E0BE01019F600D711D9B
:102CC00011242F5F3F4F029FC001039F900D1124DD
:102CD0008C0F9D1FDBD6115058F787E0E5E8F1E037
:102CE000DE0101900D928A95E1F7DF91CF911F915E
:102CF0000F9108950E944E06D2E0C1E00E94580252
:102D00008091CA06813021F0C8F3823089F408C06E
:102D1000C093DC089DDAE7D9C2D91092CA06EECF7B
:102D2000D093DC0895DADFD9A7D91092CA06E6CF8E
:102D30008FDAD9D91092CA06E1CF81E88093D70003
:102D400080EA8093D80086E189BD09B400FEFDCFFA
:102D500080E98093D8001092E0001092AE021092A9
:102D6000AF028CE08093E200789408953FB7F89426
:102D70008091AE02811104C03FBF2FEF3FEF24C00E
:102D800083E08093E9008091E80085FD12C082FD18
:102D900004C00BC082FD04C008C0E8EEF0E09BE672
:102DA0009083808185FFF6CF04C03FBF2FEF3FEFB8
:102DB0000BC02091F1008091E80085FD03C08BE6F7
:102DC0008093E8003FBF30E0822F932F08959FB794
:102DD000F8948091AE02882389F083E08093E90023
:102DE0008091F20081110BC02091E80022FF07C002
:102DF00025FD05C02BE62093E80001C080E09FBFC1
:102E000008956F927F928F929F92AF92BF92CF92CE
:102E1000DF92EF92FF920F931F93CF93DF934C01BA
:102E20008091AE02882309F4B9C1FFB6F89484E01A
:102E30008093E9008091B002882349F08091E800F6
:102E400085FD03C0FFBE8FEFB0C11092B0026115C7
:102E5000710509F4A5C1A4EEB0E00F2EF8EE6F2EB7
:102E6000712CF02D29EE30E06894EE24E2F802EFA8
:102E700010E06894CC24C6F881EF90E00F2EFAE3BE
:102E8000BF2EF02D0F2EF5E0DF2EF02D5C91575E5A
:102E9000E301488145FD1FC0FFBE4C91451749F035
:102EA0004091AE0241110FC07DC1FFBE4C91451350
:102EB00005C081E08093B0028FEF77C14091AE02F0
:102EC000442309F471C1FFB6F894F901E082E301EB
:102ED000488145FFEACFF8014081AC2CA41A4A2D65
:102EE00050E06417750708F4A62E6A1971094A2D77
:102EF00050E04134510508F03FC1445B5F4FFA0197
:102F000062C3E40149914E01FC014083E40149910F
:102F10004E01FC014083E40149914E01FC014083D4
:102F2000E40149914E01FC014083E40149914E01C5
:102F3000FC014083E40149914E01FC014083E4011E
:102F400049914E01FC014083E40149914E01FC018D
:102F50004083E40149914E01FC014083E401499121
:102F60004E01FC014083E40149914E01FC01408384
:102F7000E40149914E01FC014083E40149914E0175
:102F8000FC014083E40149914E01FC014083E401CE
:102F900049914E01FC014083E40149914E01FC013D
:102FA0004083E40149914E01FC014083E4014991D1
:102FB0004E01FC014083E40149914E01FC01408334
:102FC000E40149914E01FC014083E40149914E0125
:102FD000FC014083E40149914E01FC014083E4017E
:102FE00049914E01FC014083E40149914E01FC01ED
:102FF0004083E40149914E01FC014083E401499181
:103000004E01FC014083E40149914E01FC014083E3
:10301000E40149914E01FC014083E40149914E01D4
:10302000FC014083E40149914E01FC014083E4012D
:1030300049914E01FC014083E40149914E01FC019C
:103040004083E40149914E01FC014083E401499130
:103050004E01FC014083E40149914E01FC01408393
:10306000E40149914E01FC014083E40149914E0184
:10307000FC014083E40149914E01FC014083E401DD
:1030800049914E01FC014083E40149914E01FC014C
:103090004083E40149914E01FC014083E4014991E0
:1030A0004E01FC014083E40149914E01FC01408343
:1030B000E40149914E01FC014083E40149914E0134
:1030C000FC014083E40149914E01FC014083E4018D
:1030D00049914E01FC014083E40149914E01FC01FC
:1030E0004083E40149914E01FC014083E401499190
:1030F0004E01FC014083E40149914E01FC014083F3
:10310000E40149914E01FC014083E40149914E01E3
:10311000FC014083E40149914E01FC014083E4013C
:1031200049914E01FC014083E40149914E01FC01AB
:103130004083E40149914E01FC014083E40149913F
:103140004E01FC014083E40149914E01FC014083A2
:10315000E40149914E01FC014083E40149914E0193
:10316000FC014083E40149914E01FC014083E401EC
:1031700049914E01FC014083E40149914E01FC015B
:103180004083E301488145FFB882D092AD02FFBE83
:103190006115710509F07ACE80E007C08FEF05C098
:1031A00080E003C08FEF01C08FEFDF91CF911F91BF
:1031B0000F91FF90EF90DF90CF90BF90AF909F90D6
:1031C0008F907F906F9008951F920F920FB60F927D
:1031D00011240BB60F928F939F93EF93FF93E1EE21
:1031E000F0E08081108283FF11C01092E90091E02D
:1031F0009093EB001092EC0092E19093ED0098E038
:103200009093F0001092AE021092AF0282FF13C0B2
:103210008091AE02882379F08091AD02882359F025
:1032200081508093AD02811106C084E08093E90053
:103230008AE38093E800FF91EF919F918F910F9027
:103240000BBE0F900FBE0F901F9018951F920F92FC
:103250000FB60F9211240BB60F920F931F932F935B
:103260003F934F935F936F937F938F939F93AF930E
:10327000BF93CF93DF93EF93FF931092E900809178
:10328000E80083FF51C1E1EFF0E0708140812081CF
:103290003081932F80E0DC01A22B9D015081608161
:1032A000962F80E0852BA081B08152EF5093E800EB
:1032B000463009F05CC004C081E28093EB003BC162
:1032C000C6E04AE551E0FA01659174912617370787
:1032D00019F0495F5F4F20C0FA01329665917491F1
:1032E0008617970719F0495F5F4F16C0FA013496A9
:1032F00085919491282F392FFA01369644919B2F6E
:1033000080E08A2B8F3F910519F010F08FEF90E04D
:10331000841728F4482F03C0C150A9F6CDCFC8EEBA
:10332000D0E07EEFA1EFB0E010E18881982F95709A
:10333000E1F382FD00C1642F413108F0612F662363
:1033400009F4F6C0C901562FFC010196E491EC93F3
:103350005150D1F7862F815090E00196280F391FE8
:10336000461B78834111E1CF6031F9F2E4C045306A
:1033700061F48EEF8093E800E8EEF0E0808180FF5A
:10338000FDCF20682093E300D6C04930A1F571112C
:103390005BC02093AE021092AF021092AD028EEF8E
:1033A0008093E80011E084E891E0C9EED0E0ABEE54
:1033B000B0E06CEE70E04DEE50E018839C012F5FA2
:1033C0003F4FFC0104910C93002359F0F901249123
:1033D000FB012083FC01329603962491FA0120839D
:1033E00001C0C9011F5F153041F7EAEEF0E08EE140
:1033F00080831082A0C0483081F4703809F03FC04B
:10340000E8EEF0E0808180FFFDCF8091AE028093F6
:10341000F1008EEF8093E8008EC04132A9F4713A3A
:10342000F1F5E8EEF0E0808180FFFDCFE0E1F1E032
:10343000A1EFB0E081918C9341E0E731F407D1F73F
:103440008EEF8093E80077C04032C9F4713209F002
:103450006BC0E8EEF0E0808182FFFDCFE0E1F1E0BB
:10346000A1EFB0E08C91819351E0E731F507D1F7FE
:10347000E8EEF0E08BEF80838EEF80835CC0423219
:1034800071F4713209F050C02093AF02E8EEF0E021
:10349000808180FFFDCF8EEF8093E8004CC041110A
:1034A0001AC0E8EEF0E0208120FFFDCF723851F421
:1034B000E9EEF0E080838091EB0085FB882780F9BE
:1034C000108201C080E0E1EFF0E0808310828EEF97
:1034D0008093E80030C0413011F0433029F572305C
:1034E00019F5232B09F58F779927382F3150343070
:1034F000D8F43EEF3093E8008093E900433021F4A4
:1035000081E28093EB0017C099E19093EB0021E0FA
:1035100030E0D90102C0AA0FBB1F8A95E2F7EAEE9C
:10352000F0E0A083108207C081E28093EB0003C02B
:1035300078834111FACEFF91EF91DF91CF91BF9146
:10354000AF919F918F917F916F915F914F913F913B
:103550002F911F910F910F900BBE0F900FBE0F90E8
:103560001F901895DB018F939F9333D0BF91AF913C
:10357000A29F800D911DA39F900DB29F900D1124CD
:103580000895A1E21A2EAA1BBB1BFD010DC0AA1FA4
:10359000BB1FEE1FFF1FA217B307E407F50720F0BC
:1035A000A21BB30BE40BF50B661F771F881F991F37
:1035B0001A9469F760957095809590959B01AC0180
:1035C000BD01CF010895EE0FFF1F0590F491E02D8E
:1035D000099418D0A59F900DB49F900DA49F800DC5
:1035E000911D112408950F930F7351F096958795AF
:1035F0007795679557954795379527950A95B1F72C
:103600000F910895A29FB001B39FC001A39F01D065
:10361000B29F700D811D1124911D0895FB01DC01E5
:10362000CA012C9130813D932193019718161906F8
:10363000C4F30895CF92DF92EF92FF920F931F93FE
:10364000CF93DF936C018B017A01E901F9010995B0
:10365000B70197FF0CC0C801FE01099597FD16C080
:10366000B701C601FE01099597FF0DC00EC0C80144
:10367000FE010995181619064CF0B701C601FE01A6
:10368000099597FF02C0860101C08701C801DF913B
:10369000CF911F910F91FF90EF90DF90CF90089501
:1036A0002F923F924F925F926F927F928F929F9252
:1036B000AF92BF92CF92DF92EF92FF920F931F9340
:1036C000CF93DF93CDB7DEB728970FB6F894DEBF60
:1036D0000FBECDBF8C016B0158874F8359014B83BF
:1036E0005C8327E0C216D10488F5EF80F884E00EF1
:1036F000F11E4F815885C49E4001C59E900CD49EFA
:10370000900C1124800E911E1BC04F815885B6016C
:10371000C30184DF36010615170528F06F8178850F
:10372000E60EF71E0DC063018F819885C81AD90A6D
:10373000B301C601F50109951816190634F3EECF49
:10374000E814F90408F04DC13701E5CFC60196959C
:1037500087952F813885829F7001839FF00C929FFF
:10376000F00C1124E00EF11E37E0C316D10409F469
:103770004CC0C60101974F815885849F4001859FA9
:10378000900C949F900C1124800E911E59E2C51646
:10379000D104A0F1C60123E0969587952A95E1F71B
:1037A0006F817885869F3001879F700C969F700C83
:1037B00011241301220C331CA801420D531DB80122
:1037C000660D771D9501C80135DF2C01A701460D57
:1037D000571D7194619471089501B701C701860D59
:1037E000971D28DF7C01B401660D771D9501A401AA
:1037F000C401821993091EDF4C0101C02801950103
:10380000A401B701C20116DF7C014B815C81B701C5
:10381000C80104DF4F805884400E511EC601019735
:10382000EF81F8858E9F30018F9F700C9E9F700CEA
:103830001124600E711E43017201120120E030E07C
:1038400011C0892B59F44B815C81B701C101E6DEBF
:103850002F813885220E331E21E030E04F815885BC
:10386000E40EF51E8E149F04D8F0B801C7012D8315
:103870003E83F50109952D813E811816190684F0C5
:10388000E0CF892B59F44B815C81B301C401C6DEC2
:103890002F813885621A730A21E030E089809A808E
:1038A0008E149F0408F490C0B801C4012D833E8398
:1038B000F5010995A4016F817885461B570B5A8342
:1038C00049832D813E8197FFDCCF70C04801880E6F
:1038D000991E1BC04B815C81B601C7019FDE76013A
:1038E0000E151F0528F08F819885480E591E0DC0B2
:1038F0006701EF81F885CE1ADF0AB701C601F5012D
:1039000009951816190634F3EECF4814590408F037
:1039100068C07201E5CF9801280F391F3A832983C7
:10392000270142185308A101401B510B44165506AC
:103930000CF4A201141615062CF4B701641B750BC8
:10394000C8016CDE6301C818D90849815A8146193B
:1039500057096F817885461B570BC416D50608F4A6
:10396000A6011416150634F469817A81641B750B5F
:10397000C70154DE8F8198858415950548F4C201EE
:103980006F817885E8D095014F815885C80188DE20
:10399000EF81F885EC15FD0520F509811A810C19D8
:1039A0001D09C601BF01D7D06B019BCE4B815C8145
:1039B000B401C70133DE2F813885E20EF31E898002
:1039C0009A8021E030E04ECF4F815885C49EC001DF
:1039D000C59E900DD49E900D1124232B09F09BCFF2
:1039E00075CF28960FB6F894DEBF0FBECDBFDF911E
:1039F000CF911F910F91FF90EF90DF90CF90BF90EC
:103A0000AF909F908F907F906F905F904F903F907E
:103A10002F900895FC0188279927E894219120325E
:103A2000E9F3293010F02E30C8F32B3239F02D3263
:103A300031F4689403C077D0820F911D21912053F7
:103A40002A30C8F31EF4909581959F4F089542EA5D
:103A500052E023C0FB01DC018D9181341CF08B35D9
:103A60000CF4805E619161341CF06B350CF4605E87
:103A7000861B611189F3990B0895FB01DC018D917F
:103A8000019080190110D9F3990B0895FB01DC0115
:103A900001900D920020E1F70895FA01A191B08103
:103AA000009719F41097E1F0CD01DC01CD010D90E4
:103AB000002011F4C00113C0FB012191222319F051
:103AC0002015D9F7F3CFFB012191201519F41E928F
:103AD000119606C02223C1F70D900020A1F7D00156
:103AE000FA01A193B0830895FB019F01E89442304D
:103AF000BCF04532ACF44A3029F497FB1EF49095A3
:103B000081959F4F642F772726D0805D8A330CF0F4
:103B1000895D8193CB010097A9F716F45DE251937B
:103B20001082C90108C07AE0979F902D879F802D51
:103B3000910D11240895DC01FC01672F7191772309
:103B4000E1F7329704C07C916D9370836291AE1758
:103B5000BF07C8F30895AA1BBB1B51E107C0AA1FEA
:103B6000BB1FA617B70710F0A61BB70B881F991F1E
:103B70005A95A9F780959095BC01CD010895F894C8
:023B8000FFCF75
:103B82000120444F424C4552002020554C424900EE
:103B920000E100000000080000080009000B000A14
:103BA2000015140305202020202020352500202088
:103BB20020202031302500202020202031352500F2
:103BC20020202020203230250020202020203435C3
:103BD20025004572726F7220617420534420436144
:103BE2007264002020202020353025002020202053
:103BF2002036352500202020203130302500526526
:103C0200636F72640072657475726E0044657669E2
:103C1200636573002020202020312F350045646920
:103C220074002020202020322F3500202020202048
:103C3200332F350053657474696E6773005368756A
:103C420074646F776E004A6F79737469636B0049AD
:103C52005220436F64657300536F7274696E67001C
:103C620053455454494E4734004348414E4745203A
:103C7200202020202020342F350053455454494E13
:103C82004735004348414E47452020202020202030
:103C9200352F350053706565640020312F32005393
:103CA200656E7369622E00202020322F32002020A0
:103CB200202020312F31005265626F6F74005374DF
:103CC200616E646279002E2E2E2E2E2E2E2E006E06
:103CD2006F7400617661696C61626C65006661692E
:103CE2006C656400737563636573732E007265633C
:103CF2006F72646564005265636F7264696E672EE9
:103D02002E2E00434F4E4649472E435356004E6FC8
:103D120020536F72742E004E616D65005479706588
:023D220000009F
:00000001FF
