:100000000C94F2000C9411010C9411010C94110148
:100010000C9411010C9411010C9411010C94110118
:100020000C9411010C9411010C94010D0C943C0DD5
:100030000C9411010C9411010C9411010C941101F8
:100040000C9411010C9411010C9411010C941101E8
:100050000C9411010C9478070C9411010C9411016B
:100060000C9411010C9411010C9411010C941101C8
:100070000C9411010C94F5030C9411010C941101D2
:100080000C9411010C9411010C9411010C941101A8
:100090000C94A8090C941101960C930C900C8D0CE7
:1000A0008A0C870C840C810C7E0C7B0C780C750CF4
:1000B000720C6F0C6C0C690C660C630C600C5D0CA4
:1000C0005A0C570C540C510C4E0C4B0C480C450C54
:1000D000420C3F0C3C0C390C360C330C300C2D0C04
:1000E0002A0C270C240C210C1E0C1B0C180C150CB4
:1000F000120C0F0C0C0C090C060C030C000CFD0B65
:10010000FA0BF70BF40BF10BEE0BEB0BE80BE50B1B
:10011000E20BDF0BDC0BD90BD60B000100004E010C
:10012000120002000060014300030000A30104016B
:10013000030904A7011402030904BD0116030309FE
:1001400004D5010C0001C112018036018136120173
:10015000000202000010C0167A040001010203012F
:1001600009024300020100C032090400000102023A
:1001700001000524001001052401010104240206E8
:100180000524060001070582031000400904010050
:10019000020A000000070503024000000705840270
:1001A00040000004030904140359006F0075007235
:1001B0000020004E0061006D006500000016035530
:1001C0000053004200200053006500720069006186
:1001D000006C0000000C03310032003300340035A5
:1001E0000000000011241FBECFEFD0E2DEBFCDBF64
:1001F00011E0A0E0B1E0E8E6FDE100E00BBF02C0E5
:1002000007900D92AC34B107D9F712E0ACE4B1E03D
:1002100001C01D92AB36B107E1F70E9413010C94A7
:10022000B20E0C940000EF92FF920F931F93DF9396
:10023000CF93CDB7DEB7AE970FB6F894DEBF0FBE43
:10024000CDBFCE01019660E070E04EE250E00E942A
:10025000AB0E80E88093610081E08093610008EC40
:1002600010E009C00E94B70A80E197E2F8013197D7
:10027000F1F70197D9F70E94D00A882399F383B741
:10028000817F83BFCE0101960E948B010E94B9033A
:100290000E949C090E94DF030E94C90378940E9477
:1002A000C7030E942908882311F00E94C1038E0110
:1002B0000F5F1F4F88ECE82EF12C83B7816083BF5E
:1002C000889583B78E7F83BF0E94F80A882321F028
:1002D0000E943B030E94C5020E942204882369F009
:1002E00081500E943404B8010E94C701813029F472
:1002F000C8010E94BF020E942D040E94D20C80FD02
:10030000DCCF88E893E1F7013197F1F70197D9F74E
:100310000E940608D2CFCF93DF93DC0127E031E0C3
:1003200080910701FD0181938091080111968C93C2
:10033000DF011196809109018183FD013196E90168
:100340008B8111968C93DF01119680910B01818333
:10035000FD0131968D8111968C93DF01119680916C
:100360000D018183FD01319680910E0111968C93D0
:10037000DF011196888581838091100111968C93FD
:1003800011978A8512968C93DF91CF910895DC01A5
:10039000FB01809118018683809118018F5F80682E
:1003A000809318018C91838711968C911197848783
:1003B00012968C911297858713968C911397868746
:1003C00014968C911497878715968C911597808B2E
:1003D00016968C911697818B17968C911797828B16
:1003E00018968C911897838B19968C911997848BFA
:1003F0001A968C911A97858B1B968C911B97868BDE
:100400001C968C911C97878B1D968C911D97808FC5
:100410001E968C911E97818F1F968C911F97828FAD
:1004200050968C915097838F51968C915197848FD1
:1004300052968C915297858F53968C915397868FB5
:1004400054968C915497878F55968C91559780A38D
:1004500056968C91569781A357968C91579782A365
:1004600058968C91589783A359968C91599784A349
:100470005A968C915A9785A35B968C915B9786A32D
:100480005C968C915C9787A35D968C915D9780A715
:100490005E968C915E9781A75F968C915F9782A7FD
:1004A00090968C91909783A791968C91919784A721
:1004B00092968C9185A781E0089520910701309153
:1004C00008012093E5013093E60120910901309164
:1004D0000A012093E7013093E8018093E9019093AA
:1004E000EA0180914A028093EB0180914B02909146
:1004F0004C028093EC019093ED0180914D0280932A
:10050000EE016093EF01089583E090E060E00E94C7
:100510005D02A4E0B1E02BE030E08D91F901EB51F8
:10052000FE4F8083F901EA51FE4F10822E5F3F4F4C
:100530002131310591F708950895682F80E090E00A
:100540000E945D0285EE91E06BE070E00E94880BF6
:10055000089584E090E060E00E945D0281E0809375
:10056000F0018FEF8093F1011092F2018093F3017B
:1005700085EE91E06FE070E00E94880B08956EE2D6
:1005800070E00E94880B81E008951F9380914402DF
:10059000909145028054944509F06BC020914D0222
:1005A00010914E0214FD65C080914C0190914A0259
:1005B000891729F48F5F8F7780934C0104C01260F4
:1005C0009F5F90934C01213159F1223130F4222365
:1005D00061F0203109F04AC011C02138A1F1223860
:1005E000D9F1203809F042C027C08091480290918B
:1005F0004902892BD1F50E9484023BC080914B02B5
:1006000090914C02019791F52091130240911402B0
:10061000942F80E030E0822B932B0E940E0819C0AB
:1006200080914B0290914C02009719F00297E9F4E7
:1006300020C00E94A9021DC08091480290914902E9
:10064000892BA1F012C08091480290914902892B18
:1006500061F40E94D2030AC080914802909149023D
:10066000892B19F40E94060801C01860812F0E948E
:100670009D021F9108950F931F93CF93DF930E94C4
:10068000D30A90934502809344028034910569F423
:100690000E94D30AD82FC0E0CE0180649093450217
:1006A0008093440280549445A1F00E94F80A882364
:1006B00031F75AC00E94D30AFE01ED5EFD4F8083E0
:1006C00021968091480290914902C817D90790F36A
:1006D0004BC00E94D30A8C0190934702809346023C
:1006E0000E94D30A382F20E0202B312B3093470271
:1006F000209346020E94D30A8C0190934902809372
:1007000048020E94D30A382F20E0202B312B30934F
:100710004902209348020E94D30A80934A020E9411
:10072000D30A8C0190934C0280934B020E94D30A0F
:10073000382F20E0202B312B30934C0220934B029A
:100740000E94D30A8C0190934E0280934D020E9426
:10075000D30A382F20E0202B312B30934E022093E8
:100760004D02C0E0D0E0ADCFDF91CF911F910F914E
:100770000895569A579A08958BB190E489278BB9BA
:1007800008955E9A08958BB180588BB908955F9A49
:10079000089584B5826084BD85B5846085BD8DE78C
:1007A00087BD08958091190190911A01039730F047
:1007B00016BC80916E00826080936E000895ECE715
:1007C000F0E0808180668083EAE7F0E080818E68D7
:1007D0008083EEE7F0E08081836080830895EAE71C
:1007E000F0E080818064808308951F920F920FB69D
:1007F0000F920BB60F9211242F933F934F938F9329
:100800009F93EF93FF93409179008091D90190E0FD
:1008100023E230E0829FF001839FF00D929FF00D64
:100820001124E35BFE4F42A3FF91EF919F918F91C3
:100830004F913F912F910F900BBE0F900FBE0F90D5
:100840001F9018959091DA018091D901981711F4B1
:1008500080E00895892F8F5F08958091DA018F5F7E
:1008600083708093DA01089593E2899F90011124A7
:10087000235B3E4FC90108959091D9019F5F93700A
:100880008091DA01981711F09093D90108950F9390
:100890001F93CF93DF938C012091D90130E0DC01CD
:1008A0008D9190E06DE471E043E250E0249FF0010F
:1008B000259FF00D349FF00D1124E60FF71F918353
:1008C00080838091D90190E0849FF001859FF00D95
:1008D000949FF00D1124E60FF71F20813181E8016C
:1008E000998180E0822B932B918380838D010F5F10
:1008F0001F4F8091D90190E011962C9130E0849F98
:10090000F001859FF00D949FF00D1124E60FF71F65
:1009100033832283D80111968091D90190E0849F7E
:10092000F001859FF00D949FF00D1124E60FF71F45
:1009300022813381E801998180E0822B932B93837C
:1009400082838091D90190E011962C91119730E02B
:10095000849FF001859FF00D949FF00D1124E60F08
:10096000F71F358324838091D90190E0849FF001A3
:10097000859FF00D949FF00D1124E60FF71F248141
:10098000358112969C9180E0822B932B95838483F2
:10099000DF91CF911F910F9108950F931F93CF93E4
:1009A000DF938C012091D90130E0DC019D9180E042
:1009B0006DE471E043E250E0249FF001259FF00DCB
:1009C000349FF00D1124E60FF71F978386838091E3
:1009D000D90190E0849FF001859FF00D949FF00D68
:1009E0001124E60FF71F26813781E801898190E005
:1009F000822B932B978386838D010F5F1F4F20914E
:100A0000D90130E011969C9180E0249FF001259F50
:100A1000F00D349FF00D1124E60FF71F91878087AA
:100A2000D80111968091D90190E0849FF001859FB3
:100A3000F00D949FF00D1124E60FF71F20853185EE
:100A4000E801898190E0822B932B91878087209108
:100A5000D90130E011969C91119780E0249FF0011C
:100A6000259FF00D349FF00D1124E60FF71F93879B
:100A700082878091D90190E0849FF001859FF00DDD
:100A8000949FF00D1124E60FF71F228533851296EF
:100A90008C9190E0822B932B93878287DF91CF916B
:100AA0001F910F9108950F931F93CF93DF938C01A4
:100AB0002091D90130E0DC019D9180E06DE471E08E
:100AC00043E250E0249FF001259FF00D349FF00D8C
:100AD0001124E60FF71F958784878091D90190E054
:100AE000849FF001859FF00D949FF00D1124E60F77
:100AF000F71F24853585E801898190E0822B932BAF
:100B0000958784878D010F5F1F4F2091D90130E0B9
:100B100011969C9180E0249FF001259FF00D349F59
:100B2000F00D1124E60FF71F918B808BD8011196E1
:100B30008091D90190E0849FF001859FF00D949FF2
:100B4000F00D1124E60FF71F20893189E801898112
:100B500090E0822B932B918B808B2091D90130E0F8
:100B600011969C91119780E0249FF001259FF00D34
:100B7000349FF00D1124E60FF71F97878687809129
:100B8000D90190E0849FF001859FF00D949FF00DB6
:100B90001124E60FF71F2685378512968C9190E079
:100BA000822B932B97878687DF91CF911F910F918F
:100BB0000895CF92DF92EF92FF920F931F93CF93FE
:100BC000DF938C012091D90130E0DC018D9190E020
:100BD0006DE471E043E250E0249FF001259FF00DA9
:100BE000349FF00D1124E60FF71F938B828B8091B9
:100BF000D90190E0E801298130E0849FF001859FD0
:100C0000F00D949FF00D1124E60FF71F358B248B08
:100C10007D010894E11CF11C67010894C11CD11CE2
:100C20008091D90190E0849FF001859FF00D949F01
:100C3000F00D1124E60FF71F0289138911962C91EC
:100C400030E0C90180739070A4E0880F991FAA95C5
:100C5000E1F7800F911F938B828B8091D90190E0F7
:100C6000849FF001859FF00D949FF00D1124E60FF5
:100C7000F71F84899589207C3070220F331F220F43
:100C8000331F280F391F358B248B8091D90190E0B9
:100C9000F701218130E0849FF001859FF00D949F42
:100CA000F00D1124E60FF71F378B268B86010F5F9F
:100CB0001F4F8091D90190E0E601298130E0849FA7
:100CC000F001859FF00D949FF00D1124E60FF71FA2
:100CD000318F208F78010894E11CF11C6701089482
:100CE000C11CD11C8091D90190E0849FF001859FA7
:100CF000F00D949FF00D1124E60FF71FA689B78918
:100D0000E801298130E0C9018073907014E0880FF8
:100D1000991F1A95E1F78A0F9B1F978B868B8091FD
:100D2000D90190E0849FF001859FF00D949FF00D14
:100D30001124E60FF71F808D918D207C3070220FDB
:100D4000331F220F331F280F391F318F208F8091BF
:100D5000D90190E0F701218130E0849FF001859F67
:100D6000F00D949FF00D1124E60FF71F338F228FA3
:100D700086010F5F1F4F8091D90190E0E601298124
:100D800030E0849FF001859FF00D949FF00D1124B9
:100D9000E60FF71F358F248F78010894E11CF11CB2
:100DA00067010894C11CD11C8091D90190E0849FF7
:100DB000F001859FF00D949FF00D1124E60FF71FB1
:100DC000A28DB38DE801298130E0C9018073907054
:100DD00014E0880F991F1A95E1F78A0F9B1F938FD4
:100DE000828F8091D90190E0849FF001859FF00D62
:100DF000949FF00D1124E60FF71F848D958D207CB4
:100E00003070220F331F220F331F280F391F358FE9
:100E1000248F8091D90190E0F701218130E0849FF7
:100E2000F001859FF00D949FF00D1124E60FF71F40
:100E3000378F268F8091D90190E0E601298130E03B
:100E4000849FF001859FF00D949FF00D1124E60F13
:100E5000F71F31A320A38091D90190E0849FF00176
:100E6000859FF00D949FF00D1124E60FF71FA68DBE
:100E7000B78D2A8130E0C9018073907014E0880F2B
:100E8000991F1A95E1F78A0F9B1F978F868F809184
:100E9000D90190E0849FF001859FF00D949FF00DA3
:100EA0001124E60FF71F80A191A1207C3070220F42
:100EB000331F220F331F280F391F31A320A3DF91C7
:100EC000CF911F910F91FF90EF90DF90CF900895F9
:100ED0002091D90130E043E250E0249FF001259FAA
:100EE000F00D349FF00D1124E35BFE4F82A30895B3
:100EF0001F920F920FB60F920BB60F9211242F93E1
:100F00003F934F935F936F937F938F939F93AF9391
:100F1000BF93EF93FF938091DB019091DC018230CE
:100F20009105F1F08330910530F4009751F001976D
:100F300009F043C00EC083309105C9F00497E9F56C
:100F400025C00E94290883FD1BC086E391E062E072
:100F500032C00E94290880FD13C08BE191E014C0CB
:100F60000E94290881FD0CC084E291E00DC00E941E
:100F7000290882FF07C080917A00806480937A00FC
:100F80005E9A1BC08DE291E069E015C00E942908BD
:100F900083FF0EC09091D9019F5F93708091DA0119
:100FA000981711F09093D9018BB180588BB905C077
:100FB00088E391E06DE00E942C082091DB013091E4
:100FC000DC018091190190911A012817390728F046
:100FD0001092DC011092DB0106C02F5F3F4F30936F
:100FE000DC012093DB01FF91EF91BF91AF919F91C5
:100FF0008F917F916F915F914F913F912F910F90C2
:101000000BBE0F900FBE0F901F9018950E944C08BA
:10101000EEE6F0E080818D7F80830895CF93DF93AB
:10102000EC01D695C795D695C7952197C430D105C3
:1010300038F4209719F0C4E0D0E002C00E940608FE
:10104000F894D0931A01C09319017894DF91CF914D
:1010500008958091DE010895DC01F8948091DD010E
:101060008823B9F420E030E0462F50E007C08D918E
:10107000F901E95AFD4F80832F5F3F4F4217530715
:10108000B4F760935602789485EA8093BC0081E0BF
:101090000895789480E008958091DD018823E1F738
:1010A00008958695833551F0843518F48E31C9F44E
:1010B0000DC0883589F08836A1F404C08091DE0126
:1010C000816007C08091DE01826003C08091DE01F3
:1010D00084608093DE0108958091DE0188608093B2
:1010E000DE010895CF92DF92EF92FF920F931F934C
:1010F000CF93DF93D82EF62E8A01E22E84EA8093D6
:10110000BC008091BC0087FFFCCF8091B900887F34
:10111000883029F08D2D0E9451080E94C103D09281
:10112000BB0084E88093BC008091BC0087FFFCCFAB
:101130008091B900887F883129F08D2D0E94510857
:101140000E94C103F092BB0084E88093BC008091B0
:10115000BC0087FFFCCF8091B900887F883229F0DE
:101160008D2D0E9451080E94C103C0E0D0E0FF24F1
:1011700084E8C82E17C0F80180818093BB00C0921C
:10118000BC008091BC0087FFFCCF8091B900887FB4
:10119000883229F08D2D0E9451080E94C1030F5FF3
:1011A0001F4F2196CE15DF0534F384E98093BC00F0
:1011B0008091BC0084FDFCCF80E991E028EC30E018
:1011C000F9013197F1F70197D9F7DF91CF911F918D
:1011D0000F91FF90EF90DF90CF900895FF920F93C3
:1011E0001F93182F062FF42E84EA8093BC00809161
:1011F000BC0087FFFCCF8091B900887F883029F040
:10120000812F0E9451080E94C1031093BB0084E803
:101210008093BC008091BC0087FFFCCF8091B90017
:10122000887F883129F0812F0E9451080E94C103D4
:101230000093BB0084E88093BC008091BC0087FFD2
:10124000FCCF8091B900887F883229F0812F0E94DD
:1012500051080E94C103F092BB0084E88093BC0057
:101260008091BC0087FFFCCF8091B900887F8832D5
:1012700029F0812F0E9451080E94C10384E98093C4
:10128000BC008091BC0084FDFCCF80E991E028EC9B
:1012900030E0F9013197F1F70197D9F71F910F91DC
:1012A000FF90089580EB60E341E00E94EE0880EB40
:1012B00066E040E90E94EE0880EB68E040EC0E94A6
:1012C000EE0880EB6AE140E40E94EE0880EB63E305
:1012D00043E00E94EE0880EB60E348E00E94EE08E5
:1012E00008958CE360E048E70E94EE088CE362E03A
:1012F00040E00E94EE08089580ED6EE340E80E9411
:10130000EE0880ED65E143E10E94EE0880ED66E1C4
:1013100048E10E94EE0880ED6EE341E00E94EE0895
:10132000089586EA6CE248E00E94EE0886EA6DE2E3
:1013300048E00E94EE08089580E28093B8000E9481
:1013400091090E947C090E9471090E945209089526
:101350001F920F920FB60F920BB60F9211242F937C
:101360003F934F935F936F937F938F939F93AF932D
:10137000BF93EF93FF938091B90090E0887F9070C6
:101380008033910509F4DAC081339105D4F48031BA
:10139000910509F441C0813191053CF4009709F4AD
:1013A000CDC0089709F0D0C029C08032910509F45A
:1013B000C5C08832910509F440C0489709F0C4C0FF
:1013C0002BC08834910509F4B9C0893491054CF4D7
:1013D0008833910509F4B2C08034910509F0B4C096
:1013E00058C08835910509F475C0883F910509F406
:1013F000A5C08035910509F0A7C04FC081E080935A
:10140000DD0110925502E0915502F0E0E95AFD4FDE
:1014100080818093BB005CC0E0915502F0E0E95A06
:10142000FD4F80818093BB0085E88093BC00809154
:1014300055028F5F8093550287C09091550280912D
:101440005602981710F5E0915502F0E0E95AFD4F69
:101450008081873AC1F0E0915502F0E0E95AFD4FF2
:101460008081813D81F0E0915502F0E0E95AFD4F25
:1014700080818D3341F0E0915502F0E0E95AFD4F53
:101480008081813B49F685EA05C085E98093BC00EF
:1014900052C085EC8093BC0057C0809155022091CA
:1014A000560290E0029630E08217930749F4E091EB
:1014B0005502F0E08091BB00E95AFD4F8083B4CF24
:1014C000E0915502F0E08091BB00E95AFD4F808326
:1014D00085ECABCFE0915502F0E08091BB00E95A7A
:1014E000FD4F808385E98093BC0080915902873A43
:1014F00021F48AE592E00E94470480915902813DDF
:1015000021F48AE592E00E94CD04809159028D3346
:1015100031F48AE592E00E9453050E94EF03809126
:101520005702813B41F488E592E00E94D9050E9470
:101530003C040E94C3031092DD0106C08091570253
:101540000E9451080E94C103FF91EF91BF91AF919A
:101550009F918F917F916F915F914F913F912F91CB
:101560000F900BBE0F900FBE0F901F90189581E843
:101570008093D70080EA8093D80086E189BD09B4C2
:1015800000FEFDCF80E98093D8001092E000109219
:10159000DF011092E0018CE08093E20078940895DE
:1015A0008091DF0108952FB7F8948091DF0188239F
:1015B00069F083E08093E9009BE68091E80085FD77
:1015C00009C082FF03C09093E800F7CF2FBF2FEF31
:1015D0003FEF0CC09091F1008091E80085FD03C0C1
:1015E0008BE68093E8002FBF292F30E0C9010895D2
:1015F0002FB7F8948091DF01882311F490E010C098
:1016000083E08093E9009091F200992349F480915E
:10161000E80082FF05C085FD03C08BE68093E800EB
:101620002FBF892F08958091DF01882371F09FB724
:10163000F89483E08093E9002BE602C02093E80051
:101640008091E80085FDFACF9FBF0895482F8091D3
:10165000DF018823D9F12FB7F89484E08093E90063
:101660008091E201882341F08091E80085FD02C06D
:101670002FBF12C01092E2019091E400975E34E017
:101680008091E80085FD13C02FBF8091E400891789
:1016900029F481E08093E2018FEF08958091DF01CA
:1016A0008823A1F02FB7F8943093E900E9CF409355
:1016B000F1008091E80085FD03C08AE38093E80093
:1016C00085E08093E1012FBF80E008958FEF0895BA
:1016D000282F8091DF01882351F09FB7F89484E090
:1016E0008093E9008091E80085FD03C09FBF8FEFE4
:1016F00008952093F1008091E80085FD03C08AE3FE
:101700008093E80085E08093E1019FBF80E0089529
:10171000CF93DF93EC018091DF01882309F41CC192
:101720003FB7F89484E08093E9008091E201882338
:1017300009F408C18091E80085FD02C03FBF0CC1DB
:101740001092E201FFC09091E400975E8091E80062
:1017500085FD13C03FBF8091E400891721F481E02B
:101760008093E201F9C08091DF01882309F4F4C07D
:101770003FB7F894B093E900E9CF8091F200242FAD
:10178000281B822F90E06817790708F4262F822FF4
:1017900090E08134910508F0C6C0845B9F4FFC0146
:1017A000EE0FFF1F0590F491E02D0994899180932D
:1017B000F10089918093F10089918093F1008991E2
:1017C0008093F10089918093F10089918093F100D9
:1017D00089918093F10089918093F10089918093A0
:1017E000F10089918093F10089918093F1008991B2
:1017F0008093F10089918093F10089918093F100A9
:1018000089918093F10089918093F100899180936F
:10181000F10089918093F10089918093F100899181
:101820008093F10089918093F10089918093F10078
:1018300089918093F10089918093F100899180933F
:10184000F10089918093F10089918093F100899151
:101850008093F10089918093F10089918093F10048
:1018600089918093F10089918093F100899180930F
:10187000F10089918093F10089918093F100899121
:101880008093F10089918093F10089918093F10018
:1018900089918093F10089918093F10089918093DF
:1018A000F10089918093F10089918093F1008991F1
:1018B0008093F10089918093F10089918093F100E8
:1018C00089918093F10089918093F10089918093AF
:1018D000F10089918093F10089918093F1008991C1
:1018E0008093F10089918093F10089918093F100B8
:1018F00089918093F10089918093F100899180937F
:10190000F10089918093F10089918093F100899190
:101910008093F10089918093F10089918093F10087
:1019200089918093F10089918093F1008091E80082
:1019300085FD02C05093E800621B7109A093E1018C
:101940003FBF04C0B4E040E45AE3A5E0611571056F
:1019500009F0F9CE80E001C08FEFDF91CF910895BB
:101960009FB7F8948091E101882341F084E080934F
:10197000E9008AE38093E8001092E1019FBF089597
:101980006091450170914601809147019091480115
:10199000089580914901089580914A0108958091A8
:1019A0004B0108958091E0010895282F9FB7F89486
:1019B0008091DF01882339F082E08093E9008091F3
:1019C000E80085FD03C09FBF8FEF089581EA8093F3
:1019D000F10080E28093F1001092F1001092F1008A
:1019E0001092F1001092F10081E08093F1001092CA
:1019F000F1002093F1008AE38093E8009FBF80E02C
:101A000008951F920F920FB60F9211248F939F93F8
:101A10008091E1001092E100982F83FF11C0109295
:101A2000E90081E08093EB001092EC0082E180936A
:101A3000ED0088E08093F0001092DF011092E00149
:101A400092FF13C08091DF01882379F08091E1013A
:101A5000882359F081508093E101882331F484E098
:101A60008093E9008AE38093E8009F918F910F9023
:101A70000FBE0F901F9018951F920F920FB60F92E6
:101A80000BB60F9211240F931F932F933F934F93F5
:101A90005F936F937F938F939F93AF93BF93EF93D6
:101AA000FF931092E9008091E80083FF3CC14091D0
:101AB000F1003091F1008091F100682F70E02091E9
:101AC000F100922F80E0682B792B8091F100A82FF4
:101AD000B0E02091F100922F80E0A82BB92B10915B
:101AE000F1000091F10082EF8093E800363009F0B8
:101AF0005AC021E231E0A90145505040F901379721
:101B0000859194918617970701F5FA018591949133
:101B10008A179B07D1F49A012E5F3F4FF901659117
:101B200074912E5F3F4FF9014491212F30E0902FA7
:101B300080E0282B392B2F3F310519F010F02FEFC3
:101B400030E0241758F4422F09C0295F3F4F495F06
:101B50005F4FF1E02B343F0789F6E5C05EEF8091DF
:101B6000E800282F30E0C90185709070892BB9F307
:101B700022FDDCC0342F413108F030E1232FCB01AE
:101B800006C0FC010196E491E093F100215022236C
:101B9000C1F7630F711D431B5093E8004423F9F60E
:101BA0003031E9F2C3C0353061F48EEF8093E80044
:101BB0008091E80080FFFCCF862F80688093E3004F
:101BC000B5C0393051F5442309F0ADC06093DF0151
:101BD0001092E0011092E1018EEF8093E80084E41E
:101BE00091E021E02093E900FC010196E491E0936B
:101BF000EB00EE2369F0AC014F5F5F4FFC01849175
:101C00008093EC00CA010196FA0134913093ED0003
:101C10002F5F253039F78EE181C0383061F44038CC
:101C200009F081C08091E80080FFFCCF8091DF0146
:101C30008093F10050C0313289F4413A09F073C009
:101C40008091E80080FFFCCFE5E4F1E08191809392
:101C5000F10081E0EC34F807C9F73DC03032A1F45F
:101C6000413209F060C08091E80082FFFCCFE5E4DA
:101C7000F1E08091F100819381E0EC34F807C9F73D
:101C80008BEF8093E80027C0323251F4413209F0E3
:101C90004AC06093E0018091E80080FFFCCF1BC048
:101CA0003323E9F48091E80080FFFCCF423811F043
:101CB00080E00DC0A093E9008091EB0090E025E06A
:101CC000969587952A95E1F781701092E9008093A7
:101CD000F1001092F1008EEF8093E80027C03130C0
:101CE00011F0333001F54230F1F4672BE1F42A2F83
:101CF0002F77822F81508430B0F48EEF8093E800EC
:101D00002093E900333079F089E18093EB0081E0A2
:101D100090E002C0880F991F2A95E2F78093EA00AD
:101D20001092EA0003C081E28093EB00FF91EF91F3
:101D3000BF91AF919F918F917F916F915F914F91E3
:101D40003F912F911F910F910F900BBE0F900FBEDF
:101D50000F901F901895DC0101C06D9341505040C9
:081D6000E0F70895F894FFCFAD
:101D680001FF00FF000102405401A223000002000D
:101D7800200000000000000080F900A632A7000043
:101D880000000000D01DD10000000000003C033D11
:101D9800000000000000B037B100000000000000A3
:0C1DA800000000000000E1000000000846
:00000001FF
