:100000000C94F2000C9411010C9411010C94110148
:100010000C9411010C9411010C9411010C94110118
:100020000C9411010C9411010C9435060C9470067B
:100030000C9411010C9411010C9411010C941101F8
:100040000C9411010C9411010C9411010C941101E8
:100050000C9411010C9411010C9411010C94BA032D
:100060000C9411010C9411010C9411010C941101C8
:100070000C9411010C9411010C9411010C941101B8
:100080000C9411010C9411010C9411010C941101A8
:100090000C9411010C941101CA05C705C405C105D2
:1000A000BE05BB05B805B505B205AF05AC05A9058C
:1000B000A605A305A0059D059A059705940591053C
:1000C0008E058B058805850582057F057C057905EC
:1000D0007605730570056D056A056705640561059C
:1000E0005E055B055805550552054F054C0549054C
:1000F0004605430540053D053A05370534053105FC
:100100002E052B052805250522051F051C051905AB
:100110001605130510050D050A05000100004E0126
:10012000120002000060014300030000A30104016B
:10013000030904A7011402030904BD0116030309FE
:1001400004D5010C0001C112018036018136120173
:10015000000202000010C0167A040001010203012F
:1001600009024300020100C032090400000102023A
:1001700001000524001001052401010104240206E8
:100180000524060001070582031000400904010050
:10019000020A000000070503024000000705840270
:1001A00040000004030904140359006F0075007235
:1001B0000020004E0061006D006500000016035530
:1001C0000053004200200053006500720069006186
:1001D000006C0000000C03310032003300340035A5
:1001E0000000000011241FBECFEFD0E2DEBFCDBF64
:1001F00011E0A0E0B1E0E4E7F0E100E00BBF02C0F5
:1002000007900D92A431B107D9F711E0A4E1B1E054
:1002100001C01D92A336B107E1F70E94E4070C94D8
:1002200038080C94000080E480937C0087E0809381
:100230007A0080917A00806880937A0080917A00B9
:10024000806480937A0080917A0086FDFCCF809153
:1002500078009091790008959C018130910571F0AA
:100260008230910519F424E030E008C08330910514
:1002700029F08430910511F422E030E080917C0077
:10028000922F9F71807E982B90937C0080917A00B2
:10029000806480937A0080917A0086FDFCCF209163
:1002A000780030917900C901089580E494E5909335
:1002B00024018093230181E094EA909326018093A6
:1002C000250108950F931F9381E090E00E942C0177
:1002D0008C0182E090E00E942C01081B190B009316
:1002E0002E01012F110F110B00932F0184E090E0DC
:1002F0000E942C018C0183E090E00E942C01081BDD
:10030000190B00933001012F110F110B00933101D4
:1003100080E090E00E942C019C0180933201232F09
:10032000330F330B2093330186E090E09093280144
:10033000809327011F910F9108950F931F9303E25C
:1003400011E0C8016BE070E00E94BC0460912701DD
:1003500070912801C8010B960E94BC041F910F9157
:1003600008958091E80085FF09C080912C0190914B
:100370002D01906290932D0180932C018091E800D3
:1003800085FD0AC0109228011092270183E291E0B6
:100390006BE070E00E94BC04089584E090E09093CC
:1003A00028018093270183E291E06BE070E00E94D6
:1003B000BC04609127017091280180E091E00E94C7
:1003C000BC0408958091E80085FF09C080912C014C
:1003D00090912D01906290932D0180932C0180913A
:1003E000E80085FD14C086E090E09093280180939A
:1003F000270183E291E06BE070E00E94BC04609111
:1004000027017091280184E091E00E94BC040895C6
:1004100040914C0160914A0170914B0170932B0106
:1004200060932A019091490190932901382F20E08F
:10043000240F311D30932D0120932C019091470101
:1004400084FD43C04131F1F0423128F4442341F0AE
:100450004031D9F528C0413841F04238B1F50AC0E1
:10046000992399F50E94E20132C0992371F50E9407
:10047000AE032BC0992349F581E080930A010E94C5
:10048000B40323C06115710521F062307105E9F4F0
:1004900005C09923D1F40E94CD0119C00E946201C8
:1004A0000E949D0114C06130710579F4923069F4A5
:1004B000F89420914E0190914F0180E0820F911DA0
:1004C00090931B0180931A0178940E94B10181E0FE
:1004D00008952F923F924F925F926F927F928F92E8
:1004E0009F92AF92BF92CF92DF92EF92FF920F93C3
:1004F0001F93CF93DF93FAE4CF2EF1E0DF2EE3E6F4
:10050000BE2E7CE0A72E62E0462E512C4C0C5D1CCA
:100510005DEF652E5FEF752E6C0C7D1C4BEF842E0E
:100520004FEF942E8C0C9D1C33E0332E2224239409
:10053000F8C00E940704482F80911401873009F405
:100540008AC0883080F48330D9F1843028F4813037
:1005500059F1823070F520C0853009F44CC08630E6
:1005600008F05CC042C08B3009F4A4C08C3038F471
:10057000893009F486C08A3008F089C074C08D3093
:1005800009F4B7C08D3008F4B0C08E3009F4B3C0A0
:100590008F3009F0BAC0B1C010921801403409F090
:1005A000B6C020921401B3C0443509F0AEC082E059
:1005B00032C040934501F401118230921401A7C06A
:1005C000D42FC0E080914501909146018C0F9D1F72
:1005D0009093460180934501892B29F4809118015D
:1005E000806180931801F4E03BC040934701F30120
:1005F0001182F5E035C0142F00E080914701909101
:100600004801800F911F90934801809347014097C4
:1006100008F07BC086E08093140179C040934901C3
:1006200080910A01882319F010920A0110C0242F2A
:1006300030E08091170190E001968F779070281735
:10064000390729F080911801826080931801409346
:100650001701E7E04BC040934A01F6011182F8E030
:10066000F093140154C0F42EEE2480914A0190912D
:100670004B018E0D9F1D90934B0180934A0189E0A1
:10068000CACF40934C01F2011182FAE0E9CF4093C6
:1006900019018091470190914801892B41F08BE02D
:1006A00080931401109216011092150130C040FF82
:1006B00029C018C08091150190911601FC01ED5BD5
:1006C000FE4F438701969093160180931501209168
:1006D00047013091480182179307C9F480911901AD
:1006E00080FF10C0A092140112C0EDE0E09314014D
:1006F0000EC0FEE0B5CF8FE08ECF809118018460F0
:1007000080931801B092140102C0109214018091DC
:100710001401833631F4809118010E94080210926E
:1007200014010E942C04882309F003CFDF91CF919C
:100730001F910F91FF90EF90DF90CF90BF90AF90FF
:100740009F908F907F906F905F904F903F902F90F1
:10075000089583E886BD83E085BD0895EEE6F0E068
:100760008081816080830895EEE6F0E080818E7F55
:10077000808308951F920F920FB60F9211242F932A
:100780003F938F939F9383E886BD80911A01909148
:100790001B01892BB9F080911D0190911E010196DA
:1007A00090931E0180931D0120911A0130911B012D
:1007B0008217930738F010921E0110921D0181E0FC
:1007C00080931C019F918F913F912F910F900FBEAD
:1007D0000F901F90189581E88093D70080EA80934E
:1007E000D80086E189BD09B400FEFDCF80E9809381
:1007F000D8001092E00010921F01109220018CE0AE
:100800008093E2007894089580911F0108952FB796
:10081000F89480911F01882369F083E08093E900B8
:100820009BE68091E80085FD09C082FF03C090939C
:10083000E800F7CF2FBF2FEF3FEF0CC09091F100F2
:100840008091E80085FD03C08BE68093E8002FBF10
:10085000292F30E0C90108952FB7F89480911F0126
:10086000882311F490E010C083E08093E900909118
:10087000F200992349F48091E80082FF05C085FDCC
:1008800003C08BE68093E8002FBF892F08958091E5
:100890001F01882371F09FB7F89483E08093E900EB
:1008A0002BE602C02093E8008091E80085FDFACF96
:1008B0009FBF0895482F80911F018823D9F12FB73A
:1008C000F89484E08093E90080912201882341F02C
:1008D0008091E80085FD02C02FBF12C01092220156
:1008E0009091E400975E34E08091E80085FD13C0AC
:1008F0002FBF8091E400891729F481E080932201C1
:100900008FEF089580911F018823A1F02FB7F894ED
:100910003093E900E9CF4093F1008091E80085FD34
:1009200003C08AE38093E80085E0809321012FBF14
:1009300080E008958FEF0895282F80911F0188236C
:1009400051F09FB7F89484E08093E9008091E8002B
:1009500085FD03C09FBF8FEF08952093F100809124
:10096000E80085FD03C08AE38093E80085E080937A
:1009700021019FBF80E00895CF93DF93EC01809128
:100980001F01882309F41CC13FB7F89484E08093C9
:10099000E90080912201882309F408C18091E800D0
:1009A00085FD02C03FBF0CC110922201FFC0909193
:1009B000E400975E8091E80085FD13C03FBF809101
:1009C000E400891721F481E080932201F9C080912D
:1009D0001F01882309F4F4C03FB7F894B093E900ED
:1009E000E9CF8091F200242F281B822F90E0681716
:1009F000790708F4262F822F90E08134910508F0C2
:100A0000C6C0845B9F4FFC01EE0FFF1F0590F49161
:100A1000E02D099489918093F10089918093F100F0
:100A200089918093F10089918093F100899180935D
:100A3000F10089918093F10089918093F10089916F
:100A40008093F10089918093F10089918093F10066
:100A500089918093F10089918093F100899180932D
:100A6000F10089918093F10089918093F10089913F
:100A70008093F10089918093F10089918093F10036
:100A800089918093F10089918093F10089918093FD
:100A9000F10089918093F10089918093F10089910F
:100AA0008093F10089918093F10089918093F10006
:100AB00089918093F10089918093F10089918093CD
:100AC000F10089918093F10089918093F1008991DF
:100AD0008093F10089918093F10089918093F100D6
:100AE00089918093F10089918093F100899180939D
:100AF000F10089918093F10089918093F1008991AF
:100B00008093F10089918093F10089918093F100A5
:100B100089918093F10089918093F100899180936C
:100B2000F10089918093F10089918093F10089917E
:100B30008093F10089918093F10089918093F10075
:100B400089918093F10089918093F100899180933C
:100B5000F10089918093F10089918093F10089914E
:100B60008093F10089918093F10089918093F10045
:100B700089918093F10089918093F100899180930C
:100B8000F10089918093F10089918093F10089911E
:100B90008093F1008091E80085FD02C05093E80049
:100BA000621B7109A09321013FBF04C0B4E040E47F
:100BB0005AE3A5E06115710509F0F9CE80E001C0A6
:100BC0008FEFDF91CF9108959FB7F8948091210125
:100BD000882341F084E08093E9008AE38093E80071
:100BE000109221019FBF089560910B0170910C013B
:100BF00080910D0190910E01089580910F0108954B
:100C00008091100108958091110108958091200133
:100C10000895282F9FB7F89480911F01882339F0F9
:100C200082E08093E9008091E80085FD03C09FBFCA
:100C30008FEF089581EA8093F10080E28093F100C4
:100C40001092F1001092F1001092F1001092F10058
:100C500081E08093F1001092F1002093F1008AE38B
:100C60008093E8009FBF80E008951F920F920FB617
:100C70000F9211248F939F938091E1001092E100D5
:100C8000982F83FF11C01092E90081E08093EB0060
:100C90001092EC0082E18093ED0088E08093F000F8
:100CA00010921F011092200192FF13C080911F012A
:100CB000882379F080912101882359F08150809315
:100CC0002101882331F484E08093E9008AE3809352
:100CD000E8009F918F910F900FBE0F901F90189575
:100CE0001F920F920FB60F920BB60F9211240F9313
:100CF0001F932F933F934F935F936F937F938F93A4
:100D00009F93AF93BF93EF93FF931092E90080916D
:100D1000E80083FF3CC14091F1003091F1008091E7
:100D2000F100682F70E02091F100922F80E0682B95
:100D3000792B8091F100A82FB0E02091F100922F43
:100D400080E0A82BB92B1091F1000091F10082EF07
:100D50008093E800363009F05AC021E231E0A90161
:100D600045505040F9013797859194918617970720
:100D700001F5FA01859194918A179B07D1F49A01A4
:100D80002E5F3F4FF901659174912E5F3F4FF9013E
:100D90004491212F30E0902F80E0282B392B2F3FDA
:100DA000310519F010F02FEF30E0241758F4422FDE
:100DB00009C0295F3F4F495F5F4FF1E02B343F0788
:100DC00089F6E5C05EEF8091E800282F30E0C90188
:100DD00085709070892BB9F322FDDCC0342F41312E
:100DE00008F030E1232FCB0106C0FC010196E4910D
:100DF000E093F10021502223C1F7630F711D431BC3
:100E00005093E8004423F9F63031E9F2C3C035309D
:100E100061F48EEF8093E8008091E80080FFFCCFC2
:100E2000862F80688093E300B5C0393051F54423A4
:100E300009F0ADC060931F011092200110922101B2
:100E40008EEF8093E80084E491E021E02093E900B4
:100E5000FC010196E491E093EB00EE2369F0AC0114
:100E60004F5F5F4FFC0184918093EC00CA010196B3
:100E7000FA0134913093ED002F5F253039F78EE180
:100E800081C0383061F4403809F081C08091E800B9
:100E900080FFFCCF80911F018093F10050C0313260
:100EA00089F4413A09F073C08091E80080FFFCCFDB
:100EB000EBE0F1E081918093F10081E0E231F8070D
:100EC000C9F73DC03032A1F4413209F060C08091D1
:100ED000E80082FFFCCFEBE0F1E08091F10081932C
:100EE00081E0E231F807C9F78BEF8093E80027C073
:100EF000323251F4413209F04AC0609320018091AE
:100F0000E80080FFFCCF1BC03323E9F48091E800A8
:100F100080FFFCCF423811F080E00DC0A093E900C3
:100F20008091EB0090E025E0969587952A95E1F772
:100F300081701092E9008093F1001092F1008EEF21
:100F40008093E80027C0313011F0333001F5423092
:100F5000F1F4672BE1F42A2F2F77822F8150843010
:100F6000B0F48EEF8093E8002093E900333079F0FD
:100F700089E18093EB0081E090E002C0880F991F27
:100F80002A95E2F78093EA001092EA0003C081E21A
:100F90008093EB00FF91EF91BF91AF919F918F9163
:100FA0007F916F915F914F913F912F911F910F9181
:100FB0000F900BBE0F900FBE0F901F9018950E94C0
:100FC000A9030E9413010895FF920F931F93CF93DB
:100FD000DF9380E88093610081E0809361000E944C
:100FE000EB030E9404048823E1F380E197E228ECFC
:100FF00030E0F9013197F1F70197D9F70E94DF0747
:101000000E945501789402E010E0C0E2D0E080E850
:10101000F82E0E94690280911C018823D1F310925E
:101020001C01809112018F5F80931201882311F4BB
:10103000F092120110932B0100932A01809112016A
:1010400080932901D0932D01C0932C010E9462014D
:101050000E949D01DECFCF93DF93EC0103C0219668
:101060000E945A0488818823D1F7DF91CF91089597
:04107000F894FFCF22
:10107400785634120000010002000100E100000073
:0410840000088000E0
:00000001FF
