:100000000C9434000C9451000C9451000C94510049
:100010000C9451000C9451000C9451000C9451001C
:100020000C9451000C9451000C9451000C9451000C
:100030000C9451000C9481060C9451000C945100C6
:100040000C94BD050C9451000C94E2040C940A0528
:100050000C9451000C9451000C9451000C945100DC
:100060000C9451000C94510011241FBECFEFD8E026
:10007000DEBFCDBF11E0A0E0B1E0E6E8FDE002C0E8
:1000800005900D92AA31B107D9F713E0AAE1B1E0CA
:1000900001C01D92A735B107E1F70E9493000C94AF
:1000A000C1060C94000080E480937C0087E080937C
:1000B0007A0080917A00806880937A0080917A003B
:1000C000806480937A0080917A0086FDFCCF8091D5
:1000D000780090917900089590917C008F71907EC6
:1000E000892B80937C0080917A00806480937A00D1
:1000F00080917A0086FDFCCF2091780030917900C4
:10010000C901089584B7877F84BF8CE084B9289A99
:1001100060E072EC81E090E00E943E050E94530096
:100120000E94A4050895CF92DF92EF92FF920F9361
:100130001F93CF93DF930E9482000E941C0189B11C
:1001400080933E0183B180933D01789495E0E92E40
:10015000F12CC0E2D0E080E8D82ECC24C39403E098
:1001600010E00E94F302809131018823D9F01092AF
:100170003101809100018F5F80930001882311F489
:10018000D0920001F0924901E09248018091000173
:1001900080934701D0934B01C0934A010E943601DE
:1001A0000E94B30123B130E02170307080913D0195
:1001B00090E028173907F9F080911A0190911B01FE
:1001C000019690931B0180931A018051974298F0F9
:1001D00010921B0110921A0183B1817080933D012E
:1001E00090912E01882311F0946001C09B7F909321
:1001F0002E01C092320180913201882309F4B1CFDF
:1002000010923201809100018F5F8093000188235A
:1002100011F4D0920001109349010093480180919C
:10022000000180934701D0934B01C0934A010E9483
:1002300029010E94B30195CF80E494E59093420197
:100240008093410181E090EA9093440180934301BF
:10025000089510924C0180912E0180934D0182E00F
:1002600090E0909346018093450108950F931F936A
:1002700000911601109117010E947306992787FDBE
:100280009095800F911F909317018093160197FF0F
:1002900004C01092170110921601809116019091DE
:1002A00017018D52914034F08CE291E09093170148
:1002B0008093160100911801109119010E947A068D
:1002C000992787FD9095800F911F90931901809336
:1002D000180197FF04C01092190110921801809123
:1002E0001801909119018D52914034F08CE291E007
:1002F0009093190180931801809116019091170134
:1003000080934C01892F990F990B80934D01809117
:1003100018019091190180934E01892F990F990B23
:1003200080934F0182E090E00E946C008093500126
:100330009093510185E090E00E946C0080935201FF
:10034000909353011092540110925501109256014E
:10035000109257018CE090E0909346018093450104
:100360001F910F91089589E891E00E94D90420918E
:10037000450130914601255F3F4F8217930750F4A6
:1003800080914A0190914B01906290934B01809330
:100390004A01089581E491E06BE070E00E948205DB
:1003A00060914501709146018CE491E00E948205C4
:1003B000089589E891E00E94D904282F8E3158F4DD
:1003C00080914A0190914B01906290934B018093F0
:1003D0004A012C3050F0109246011092450181E400
:1003E00091E06BE070E00E948205089589E891E059
:1003F0000E94D904282F8E3158F480914A0190919F
:100400004B01906290934B0180934A012031A0F000
:1004100084E090E0909346018093450181E491E06F
:100420006BE070E00E948205609145017091460189
:1004300081E091E00E948205089589E891E00E94A0
:10044000D904282F8E3158F480914A0190914B01A4
:10045000906290934B0180934A012C31A0F080E18F
:1004600090E0909346018093450181E491E06BE038
:1004700070E00E948205609145017091460185E01F
:1004800091E00E94820508956091680140916601A3
:100490005091670150934901409348019091650143
:1004A00090934701382F20E0260F311D30934B01E8
:1004B00020934A019091630184FD91C0613119F14B
:1004C000623130F4662351F0603109F088C044C0D5
:1004D000613851F0623809F082C00CC0992309F0EC
:1004E0007EC00E941D027DC0992309F078C00E9441
:1004F000B10575C0992309F072C081E080931501A0
:100500000E94B7056CC04330510561F0453051057C
:10051000F1F0452B09F063C0992309F060C00E94F7
:10052000F6015FC010924C0180912E0180934D0125
:1005300082E090E090934601809345010E94B301D0
:1005400089B180933E0183B180933D014AC00E94EE
:1005500036010E94B30145C042305105A1F043303D
:10056000510520F441305105D1F507C04430510503
:1005700001F14630510599F52CC0923081F58091FA
:100580006A018AB92CC0923051F580916A018BB909
:1005900080916B0181FF23C082E390E0909317016B
:1005A0008093160190931901809318012A982B9833
:1005B00016C09230A1F4F89420916A0190916B01D9
:1005C00080E0820F911D9093300180932F017894E9
:1005D00006C0923021F480916A0180931F010E942D
:1005E000D90181E008952F923F924F925F926F92CE
:1005F0007F928F929F92AF92BF92CF92DF92EF92B3
:10060000FF920F931F93CF93DF93A6E6CA2EA1E02C
:10061000DA2EF3E6BF2EECE0AE2E72E0472E512C20
:100620004C0C5D1C6DEF662E6FEF762E6C0C7D1CF6
:1006300052E0252E4BEF842E4FEF942E8C0C9D1CF8
:1006400033243394FAC085E292E00E945C04482F80
:1006500080911C01873009F48AC0883080F483308F
:10066000D9F1843028F4813059F1823078F520C0F6
:10067000853009F44CC0863008F05CC042C08B3035
:1006800009F4A4C08C3038F4893009F486C08A306B
:1006900008F089C074C08D3009F4B7C08D3008F4FB
:1006A000B0C08E3009F4B3C08F3009F0BAC0B1C009
:1006B00010922201403409F0B6C030921C01B3C040
:1006C000443509F0AEC020921C01ADC040936101D9
:1006D000F4011182F3E050C0D42FC0E08091610199
:1006E000909162018C0F9D1F909362018093610134
:1006F000892B29F48091220180618093220184E07A
:1007000016C040936301F3011182F5E035C0142F48
:1007100000E08091630190916401800F911F90939C
:10072000640180936301409708F07BC086E080936A
:100730001C0179C04093650180911501882319F04F
:100740001092150110C0242F30E08091210190E01B
:1007500001968F7790702817390729F08091220130
:1007600082608093220140932101E7E04BC04093D7
:100770006601F6011182F8E0F0931C0154C0F42EDA
:10078000EE2480916601909167018E0D9F1D9093DC
:1007900067018093660189E0CACF40936801F20146
:1007A0001182FAE0E9CF4093230180916301909197
:1007B0006401892B41F08BE080931C0110921E0193
:1007C00010921D0130C040FF29C018C080911D014A
:1007D00090911E01FC01E15AFE4F438701969093D0
:1007E0001E0180931D0120916301309164018217E5
:1007F0009307C9F48091230180FF10C0A0921C01CF
:1008000012C0EDE0E0931C010EC0FEE0B5CF8FE01A
:100810008ECF80912201846080932201B0921C01CE
:1008200002C010921C0180911C01833631F480912A
:1008300022010E94440210921C0185E292E00E9473
:100840008504892B09F0FFCEDF91CF911F910F9185
:10085000FF90EF90DF90CF90BF90AF909F908F90E0
:100860007F906F905F904F903F902F900895FC0184
:100870001182108213821282158214820895CF93FE
:10088000DF93EC012881398181E02C32380788F42C
:100890008C819D81FE01E80FF91F668301966CE251
:1008A00071E00E948B069D838C832F5F3F4F3983BD
:1008B0002883DF91CF910895CF93DF93EC0180914E
:1008C000C1008F778093C1002881398121153105BE
:1008D00011F440E016C08A819B81FE01E80FF91FE8
:1008E000468101966CE271E00E948B069B838A83AD
:1008F00021503040398328838091C10080688093E3
:10090000C100842FDF91CF910895FC0180819181F6
:100910000895FC012CE231E080819181281B390B84
:10092000C9010895FC01118210821382128215827E
:1009300014820895CF93DF93EC0128813981263901
:10094000310588F48C819D81FE01E80FF91F6683D3
:10095000019666E970E00E948B069D838C832F5F71
:100960003F4F39832883DF91CF910895CF93DF9351
:10097000EC01288139812115310511F440E011C0C5
:100980008A819B81FE01E80FF91F4681019666E985
:1009900070E00E948B069B838A832150304039830C
:1009A0002883842FDF91CF910895FC01808191816C
:1009B0000895FC0126E930E080819181281B390BE4
:1009C000C90108951F920F920FB60F9211242F9311
:1009D0003F934F935F936F937F938F939F93AF93C7
:1009E000BF93EF93FF936091C60085E292E00E946F
:1009F0003F04FF91EF91BF91AF919F918F917F91B4
:100A00006F915F914F913F912F910F900FBE0F907B
:100A10001F9018951F920F920FB60F9211242F93CB
:100A20003F934F935F936F937F938F939F93AF9376
:100A3000BF93EF93FF938091890190918A01892B55
:100A400039F089E891E00E94B6048093C60005C0A1
:100A50008091C1008F7D8093C100FF91EF91BF9184
:100A6000AF919F918F917F916F915F914F913F9146
:100A70002F910F900FBE0F901F9018959B01AC0106
:100A8000109226021092250210922802109227023C
:100A900010922A021092290210928A011092890162
:100AA00010928C0110928B0110928E0110928D0188
:100AB00060E874E88EE190E00E949F06215030408B
:100AC0003093C5002093C400E0ECF0E080818260A8
:100AD000808388E98093C1000895982F8091C00099
:100AE00085FFFCCF9093C6000895FC0107C080915C
:100AF000C00085FFFCCF9093C6003196908199236A
:100B0000B1F708950F931F93CF93DF938C01EB01FF
:100B10008091C1008F7D8093C10007C0F801619171
:100B20008F0189E891E00E949A042197FFEFCF3F5F
:100B3000DF07A1F78091C10080628093C100DF913F
:100B4000CF911F910F91089586E086BD23E025BDCA
:100B50008BEF9FEF9093850080938400209381001A
:100B60000895EEE6F0E08081816080830895EEE6EE
:100B7000F0E080818E7F808308951F920F920FB6E0
:100B80000F9211242F933F938F939F9386E086BDFE
:100B900080912F0190913001892BB9F0809139011A
:100BA00090913A01019690933A01809339012091F6
:100BB0002F01309130018217930738F010923A01DB
:100BC0001092390181E08093310110922801349B09
:100BD00003C083E080932801339B06C080912801E5
:100BE00091E0892780932801809126019091280126
:100BF000891B809329018091290180FF0DC080917C
:100C0000280180932601909124018091290191501F
:100C10008270980F9093240110922A01309B03C098
:100C200083E080932A01319B06C080912A0191E0E4
:100C3000892780932A018091270190912A01891B9D
:100C400080932B0180912B0180FF0DC080912A01A0
:100C5000809327019091250180912B019150827002
:100C6000980F909325018091290180FF17C08091F2
:100C70002C018F5F80932C0180912C01803170F0CA
:100C800010922C0180912E0191E0892780932E01F2
:100C90009093320185B198E0892785B980912B0125
:100CA00080FF18C080912D018F5F80932D0180916E
:100CB0002D01803178F010922D0180912E0192E06B
:100CC000892780932E0181E08093320185B194E0E1
:100CD000892785B99F918F913F912F910F900FBEDA
:100CE0000F901F901895F894809124011092240180
:100CF00078940895F89480912501109225017894B4
:100D000008951F920F920FB60F9211240F900FBEED
:100D10000F901F901895AA1BBB1B51E107C0AA1F7B
:100D2000BB1FA617B70710F0A61BB70B881F991F8C
:100D30005A95A9F780959095BC01CD010895A1E23F
:100D40001A2EAA1BBB1BFD010DC0AA1FBB1FEE1F45
:100D5000FF1FA217B307E407F50720F0A21BB30B90
:100D6000E40BF50B661F771F881F991F1A9469F70C
:100D700060957095809590959B01AC01BD01CF0168
:060D80000895F894FFCF76
:100D860080080706050000010002000300040005B4
:0A0D960000060007000132003200E1
:00000001FF
