:10000000E7C0000002C1000000C10000FEC0000007
:10001000FCC00000FAC00000F8C00000F6C00000FC
:10002000F4C00000F2C0000096C10000B5C100009D
:10003000ECC00000EAC00000E8C00000E6C000001C
:10004000E4C00000E2C00000E0C00000DEC000002C
:10005000DCC00000DAC00000D8C00000D6C000003C
:10006000D4C0000088C30000B1C30000CEC00000AF
:10007000CCC00000CAC00000C8C00000C6C000005C
:10008000C4C00000C2C00000C0C00000BEC000006C
:10009000BCC00000BAC0000000010000EA0012006D
:1000A000020000FC0022002100000E0109002200D5
:1000B000001E0170000300008E0104010309049278
:1000C000010A020309049E013001C136000000212B
:1000D00026010700000000000008808080800000EA
:1000E00000000000000000000000120110010000EC
:1000F0000040C410C0820001010200010902220078
:100100000101008032090400000103000000092100
:10011000110100012270000705810340000A05015A
:100120000905A10115002501350045017501950D51
:1001300005091901290D8102950381010501250792
:10014000463B0175049501651409398142650095A6
:1001500001810126FF0046FF0009300931093209FB
:10016000357508950481020600FF0920092109223E
:100170000923092409250926092709280929092A03
:10018000092B950C81020A21269508B102C00403AF
:1001900009040A03530045004700410000003003F2
:1001A0005600490052005400550041002000530001
:1001B0005400490043004B002000480069006700DC
:1001C00068002000470072006100640065000000C4
:1001D00011241FBECFEFD0E2DEBFCDBF11E0A0E003
:1001E000B1E0EEE8FEE000E00BBF02C007900D9228
:1001F000A631B107D9F714E0A6E1B1E001C01D9224
:10020000A03BB107E1F752D040C6FACE84B7877F52
:1002100084BF88E10FB6F89480936000109260006C
:100220000FBE80E090E020E80FB6F89420936100C4
:10023000809361000FBE60E072EC81E090E0FCD240
:1002400080E48AB98AE090E060E570E0B9D584E1A5
:1002500090E068E270E0B4D533D049D08823E9F368
:1002600080E197E220E931E0F9013197F1F7019758
:10027000D9F70895CF93DF9382E391E021D2892BC0
:1002800089F082E391E0F4D1803261F4CFE1D1E0F2
:1002900082E391E0EDD1899381E0C233D807C1F7C1
:1002A00081E001C080E0DF91CF910895AFDF14D3EA
:1002B0008FEF8BB97894B2D10AD4DCDF1BD0FCCF9E
:1002C00081E88093D70080EA8093D80086E189BDD9
:1002D00009B400FEFDCF80E98093D8001092E000C1
:1002E000109216018CE08093E2007894089580913A
:1002F0001601089580911601882359F12FB7F894BB
:1003000081E08093E9009091E4009E5C31E080916F
:10031000E80085FF03C0EFE1F1E00EC02FBF809140
:1003200016018823B1F08091E400891791F02FB76E
:10033000F8943093E900EBCF81918093F10081E054
:10034000E233F807C9F78AE38093E8002FBF80E023
:1003500008958FEF08951F920F920FB60F921124F8
:100360008F938091E1001092E10083FF0FC0109203
:10037000E90081E08093EB001092EC0082E380932F
:10038000ED0088E08093F000109216018F910F909D
:100390000FBE0F901F9018951F920F920FB60F92DD
:1003A0000BB60F9211240F931F932F933F934F93EC
:1003B0005F936F937F938F939F93AF93BF93EF93CD
:1003C000FF931092E9008091E80083FF0FC14091F4
:1003D000F1003091F1008091F100682F70E02091E0
:1003E000F100922F80E0682B792B8091F100A82FEB
:1003F000B0E02091F100922F80E0A82BB92B109152
:10040000F1000091F10082EF8093E800363009F0AE
:100410005AC02FE930E0A90145505040F901379703
:10042000859194918617970701F5FA01859194912A
:100430008A179B07D1F49A012E5F3F4FF90165910E
:1004400074912E5F3F4FF9014491212F30E0902F9E
:1004500080E0282B392B2F3F310519F010F02FEFBA
:1004600030E0241758F4422F09C0295F3F4F495FFD
:100470005F4FF0E0203D3F0789F6B8C05EEF809106
:10048000E800282F30E0C90185709070892BB9F3FE
:1004900022FDAFC0342F413408F030E4232FCB01CC
:1004A00006C0FC010196E491E093F1002150222363
:1004B000C1F7630F711D431B5093E8004423F9F605
:1004C0003034E9F296C0353061F48EEF8093E80065
:1004D0008091E80080FFFCCF862F80688093E30046
:1004E00088C0393051F5442309F03DC060931601AE
:1004F0008EEF8093E80089EC90E021E02093E90002
:10050000FC010196E491E093EB00EE2369F0AC016D
:100510004F5F5F4FFC0184918093EC00CA0101960C
:10052000FA0134913093ED002F5F253039F78EE1D9
:100530008093EA001092EA005CC0383049F44038F9
:1005400091F48091E80080FFFCCF8091160132C0C9
:10055000332349F48091E80080FFFCCF1092F10032
:100560001092F1003FC0AB2B09F040C0413A29F591
:10057000313079F48091E80080FFFCCFEFECF0E0BF
:1005800084918093F100319680E0E73DF807C1F750
:1005900029C0323039F48091E80080FFFCCF80918F
:1005A000170108C0333011F58091E80080FFFCCFBF
:1005B000809100018093F10015C04132B9F43930C7
:1005C00041F48091E80082FFFCCF8BEF8093E8003C
:1005D00009C03A3019F47093170104C03B3031F46C
:1005E000609300018EEF8093E80003C081E2809366
:1005F000EB00FF91EF91BF91AF919F918F917F9110
:100600006F915F914F913F912F911F910F910F909B
:100610000BBE0F900FBE0F901F9018958FE191E0C9
:1006200067ED70E043E150E027C4FC0111821082C5
:1006300013821282158214820895CF93DF93EC0106
:1006400028813981243B310580F48C819D81FE0114
:10065000E80FF91F6683019664EB70E0D7D39D83A2
:100660008C832F5F3F4F39832883DF91CF9108958B
:10067000CF93DF93EC018091C9008F778093C900FD
:10068000288139812115310511F440E015C08A8196
:100690009B81FE01E80FF91F4681019664EB70E033
:1006A000B5D39B838A83215030403983288380913E
:1006B000C90080688093C900842FDF91CF9108958D
:1006C000FC01808191810895FC0124EB30E0808160
:1006D0009181281B390BC9010895FC0111821082F8
:1006E00013821282158214820895CF93DF93EC0156
:1006F000288139812A35310580F48C819D81FE0164
:10070000E80FF91F668301966AE570E07FD39D8349
:100710008C832F5F3F4F39832883DF91CF910895DA
:10072000CF93DF93EC01288139812115310511F434
:1007300040E010C08A819B81FE01E80FF91F4681CD
:1007400001966AE570E062D39B838A832150304032
:1007500039832883842FDF91CF910895FC01808114
:1007600091810895FC012AE530E080819181281B68
:10077000390BC90108951F920F920FB60F920BB655
:100780000F9211242F933F934F935F936F937F9317
:100790008F939F93AF93BF93EF93FF936091CE009E
:1007A00080EC93E04ADFFF91EF91BF91AF919F9171
:1007B0008F917F916F915F914F913F912F910F900A
:1007C0000BBE0F900FBE0F901F9018951F920F92A7
:1007D0000FB60F920BB60F9211242F933F934F93A6
:1007E0005F936F937F938F939F93AF93BF93EF9399
:1007F000FF9386EA92E0B2DF892B31F086EA92E03D
:100800008FDF8093CE0005C08091C9008F7D8093DB
:10081000C900FF91EF91BF91AF919F918F917F910F
:100820006F915F914F913F912F910F900BBE0F9061
:100830000FBE0F901F901895EF92FF920F931F938A
:100840007B018C0180EC93E0F0DE86E093E0EDDE4E
:100850008CEE91E0EADE82E391E0E7DE86EA92E068
:100860003CDF60E874E88EE190E0A8019701E2D2F5
:10087000215030403093CD002093CC00E8ECF0E0E4
:1008800080818260808388E98093C9001F910F91E5
:10089000FF90EF9008950F931F93CF93DF938C01F8
:1008A000EB018091C9008F7D8093C90006C0F801DB
:1008B00061918F0186EA92E018DF2197FFEFCF3F29
:1008C000DF07A9F78091C90080628093C900DF919A
:1008D000CF911F910F91089580E494E590937B044C
:1008E00080937A0481E091E090937D0480937C046E
:1008F000089581E080931501089586EA92E032DF41
:10090000282F8F3060F4809183049091840490624A
:1009100090938404809383045E982C3048F0109266
:100920007F0410927E048AE794E06BE070E0B3CF1E
:10093000089586EA92E016DF282F8F3050F48091D8
:100940008304909184049062909384048093830440
:100950005E98203190F084E090E090937F04809343
:100960007E048AE794E06BE070E095DF60917E049E
:1009700070917F0481E091E08ECF089586EA92E045
:10098000F1DE282F8F3050F48091830490918404FD
:10099000906290938404809383045E982C3190F04D
:1009A00080E190E090937F0480937E048AE794E056
:1009B0006BE070E070DF60917E0470917F0485E0F1
:1009C00091E069CF08950F931F93CF93DF93082F82
:1009D0008BB130E483278BB9209194044091920429
:1009E0005091930450938204409381048091910428
:1009F00080938004902F80E0820F911D9093840457
:100A00008093830480918F0404FD44C02131B9F0A8
:100A1000223130F4222341F0203109F03AC016C0CF
:100A200020582330B0F504C0882399F5A7DF0CC007
:100A3000882379F58BB183278BB95BDF2BC0452BDE
:100A400041F5882331F575DF10E025C040325105AE
:100A500001F58331F1F482E391E036DE4597D4F07D
:100A600082E391E060919204E8DDC0E0D0E0E091A3
:100A70009604F0919704EC0FFD1F82E391E06081F2
:100A8000DCDD2196C331D10591F711E022E331E09D
:100A900004C0086011E020E030E003FF04C08BB127
:100AA00090E489278BB92115310541F0C9010CDE8D
:100AB0000F9724F48BB190E489278BB9112309F0A7
:100AC0001CDF81E0DF91CF911F910F9108952F924C
:100AD0003F924F925F926F927F928F929F92AF92CE
:100AE000BF92CF92DF92EF92FF920F931F93CF931B
:100AF000DF9362E9C62E64E0D62E53E6B52E42E0BF
:100B0000242E312C2C0C3D1C3CE9432E34E0532E7A
:100B10002DEF622E2FEF722E6C0C7D1C9BEF892E19
:100B20009FEF992E8C0C9D1C83E0A82E04C180ECB5
:100B300093E09EDD482F80911801873009F48BC027
:100B4000883080F48330D1F1843028F4813051F141
:100B5000823068F520C0853009F44BC0863008F03B
:100B60005BC041C08B3009F4AAC08C3038F48930A6
:100B700009F487C08A3008F08AC075C08D3009F446
:100B8000C3C08D3008F4BEC08E3009F4BFC08F30B2
:100B900009F0C6C0BDC010921D01403409F0C2C0AA
:100BA00081E037C0443509F0BBC0E2E051C040935A
:100BB0008D04F4011182A0921801B4C0D42FC0E0BA
:100BC00080918D0490918E048C0F9D1F90938E04C4
:100BD00080938D04892B29F480911D01806180937D
:100BE0001D01F4E03DC040938F04F3011182F5E054
:100BF00037C0142F00E080918F0490919004800FF3
:100C0000911F9093900480938F04459708F088C0BB
:100C100086E08093180186C040939104809115016D
:100C2000882319F01092150110C0242F30E0809114
:100C30001C0190E001968F7790702817390729F0F2
:100C400080911D01826080931D0140931C01E7E0AB
:100C5000E093180167C040939204F6011182F8E016
:100C6000F09318015FC0F42EEE24809192049091CD
:100C700093048E0D9F1D909393048093920489E0BA
:100C8000C8CF40939404F1011182FAE0E9CF409378
:100C90001E0180918F0490919004892B61F08BE06C
:100CA00080931801509297044092960410921A0172
:100CB0001092190137C040FF30C0ECE0C9CFE0917D
:100CC0009604F09197048091190190911A01E80F10
:100CD000F91F40838091190190911A010196909318
:100CE0001A018093190120918F043091900482178A
:100CF0009307C1F480911E0180FF0FC080911801FD
:100D00008F5F87CFFDE0ACCF8EE083CFEFE0A0CF49
:100D100080911D01846080931D01B092180102C072
:100D20001092180180911801833629F480911D01D9
:100D30004ADE1092180180EC93E0C2DC892B09F0A6
:100D4000F6CEDF91CF911F910F91FF90EF90DF9042
:100D5000CF90BF90AF909F908F907F906F905F905B
:100D60004F903F902F900895DF93CF9300D000D005
:100D7000CDB7DEB79C011A8219821C821B821A82AF
:100D8000198212C01C821B8205C08B819C81019636
:100D90009C838B838B819C8182519240B0F38981AB
:100DA0009A8101969A83898389819A818217930710
:100DB00048F30F900F900F900F90CF91DF9108950F
:100DC000DF92EF92FF920F931F93CF93DF937C01FB
:100DD0008B018FEF8BB9C0E0D0E080E4D82E0BC040
:100DE0008BB18D258BB9C801BFDF8BB18D258BB938
:100DF000C801BADF2196CE15DF0590F3DF91CF91C0
:100E00001F910F91FF90EF90DF900895AA1BBB1BDD
:100E100051E107C0AA1FBB1FA617B70710F0A61BFA
:100E2000B70B881F991F5A95A9F780959095BC011B
:100E3000CD010895A1E21A2EAA1BBB1BFD010DC016
:100E4000AA1FBB1FEE1FFF1FA217B307E407F5077A
:100E500020F0A21BB30BE40BF50B661F771F881F56
:100E6000991F1A9469F760957095809590959B01EC
:100E7000AC01BD01CF010895FB01DC0102C005906A
:0E0E80000D9241505040D8F70895F894FFCFDE
:100E8E000104030201000001000200030010001122
:060E9E000012002000011B
:00000001FF
