:100000000C944C000C946B000C946B000C946B00E3
:100010000C946B000C946B000C946B000C946B00B4
:100020000C946B000C946B000C946B000C946B00A4
:100030000C946B000C946B000C946B000C946B0094
:100040000C946B000C946B000C946B000C946B0084
:100050000C9463010C946B000C946B000C946B007B
:100060000C946B000C94FB060C9432070C946B0000
:100070000C946B000C94BB010C946B000C946B0003
:100080000C946B000C946B000C946B000C946B0044
:100090000C946B000C946B0011241FBECFEFD0E2C8
:1000A000DEBFCDBF11E0A0E0B1E0E8EFF1E100E09C
:1000B0000BBF02C007900D92AC30B107D9F711E029
:1000C000ACE0B1E001C01D92AA39B107E1F70E948E
:1000D00020050C94FA080C940000DF93CF93CDB761
:1000E000DEB780E494E5909316018093150181E0DA
:1000F00091EA9093180180931701CF91DF910895B1
:10010000DF93CF9300D000D000D0CDB7DEB78E8381
:100110001A8280913101909132018B8380912F015D
:100120009091300190931D0180931C0180912E01CC
:1001300080931B018E81882F90E0382F22278B819E
:10014000882F90E0820F931F90931F0180931E01D0
:1001500080912C0190912D018A8381E089831D82F9
:100160001C828E81882F90E080719070009709F03A
:100170008DC08B81882F90E081319105A1F1823172
:1001800091053CF4009781F08031910509F441C05C
:100190007AC0803891050CF476C0823891057CF0E5
:1001A00082389105B1F06FC08A81882321F40E94C2
:1001B0002E0219826BC08E8188608E8367C08A810F
:1001C000882319F40E940E0361C08E8188608E839B
:1001D0005DC08A81882319F40E940E0357C08E8166
:1001E00088608E8353C080912F01909130010097D9
:1001F00061F48A81882321F40E946102198203C07C
:100200008E8188608E83000041C08E8188608E83DD
:100210003DC080912F01909130018130910579F599
:100220008A81823039F50E94930280913301909146
:100230003401FC018081882F90E00E943708909360
:100240002701809326010E946F088FE780931B018E
:1002500082E090E090931D0180931C018FE690E076
:100260002FE630E0F90120812160FC0120837894A1
:10027000198203C08E8188608E83000007C08E8142
:1002800088608E8303C08E8188608E838C819D817F
:10029000009751F08C819D810E941C068A30910547
:1002A0001CF48E8180628E838981882311F00E94E4
:1002B000930281E026960FB6F894DEBF0FBECDBF45
:1002C000CF91DF9108951F920F920FB60F92009079
:1002D0005B000F9211242F933F938F939F93EF9383
:1002E000FF93DF93CF93CDB7DEB784E890E0209102
:1002F000260130912701FC013183208380911B016D
:100300008F3F21F480E880931B0105C080911B0181
:100310008F5F80931B0189EC90E029EC30E0F901BC
:1003200020812F7DFC0120838CE790E020E4FC01FC
:1003300020838AE790E02AE730E0F90120812061FC
:10034000FC0120838AE790E02AE730E0F901208170
:100350002064FC012083CF91DF91FF91EF919F9169
:100360008F913F912F910F9000925B000F900FBEE5
:100370000F901F9018951F920F920FB60F9200903A
:100380005B000F9211242F933F934F935F936F93D2
:100390007F938F939F93AF93BF93EF93FF93DF93DD
:1003A000CF93CDB7DEB72897DEBFCDBF80910C01CC
:1003B0008823F9F488E790E0FC018081898389E74C
:1003C00090E0FC0180818A8380910C018F5F809393
:1003D0000C018CE790E020910C01205CFC01208353
:1003E0008AE790E02AE730E0F90120812064FC01EF
:1003F000208380910C01813051F488E790E0FC016A
:1004000080818B8389E790E0FC0180818C838A81E5
:100410008D8389818E838C818F838B81888721ED69
:1004200032E0CE010596F90109952896DEBFCDBFD1
:10043000CF91DF91FF91EF91BF91AF919F918F91FC
:100440007F916F915F914F913F912F910F9000920B
:100450005B000F900FBE0F901F901895DF93CF9306
:100460000F92CDB7DEB78EE391E00E94E406898358
:1004700089818F3048F480911E0190911F01906214
:1004800090931F0180931E0189818231B0F086E034
:1004900090E090931A018093190185E191E06BE05F
:1004A00070E00E94F8078091190190911A019C0157
:1004B00084E091E0B9010E94F8070F90CF91DF919D
:1004C0000895DF93CF930F92CDB7DEB78EE391E01F
:1004D0000E94E406898389818F3048F480911E014F
:1004E00090911F01906290931F0180931E0189815A
:1004F0008031A8F084E090E090931A018093190174
:1005000085E191E06BE070E00E94F80780E091E007
:100510002091190130911A01B9010E94F8070F903A
:10052000CF91DF910895DF93CF930F92CDB7DEB7D0
:100530008EE391E00E94E406898389818F3048F43C
:1005400080911E0190911F01906290931F018093F2
:100550001E0189818C3088F080912F0190913001AB
:100560008130910551F010921A011092190185E124
:1005700091E06BE070E00E94F80780912F0190916C
:1005800030018130910549F489818C3030F085E16A
:1005900091E06BE070E00E94F8070F90CF91DF913F
:1005A0000895DF93CF9300D00F92CDB7DEB79B8332
:1005B0008A838EE391E00E94E406898389818F30EB
:1005C00048F480911E0190911F01906290931F0149
:1005D00080931E0189818031D8F084E090E090936F
:1005E0001A018093190180E290E090931F0180939B
:1005F0001E0185E191E06BE070E00E94F807CE01FA
:1006000002962091190130911A01B9010E94F80750
:100610000F900F900F90CF91DF910895DF93CF93BC
:10062000CDB7DEB78FE690E02FE630E0F90120810C
:100630002E7FFC01208381E080930A01CF91DF911E
:100640000895DF93CF9300D000D00F92CDB7DEB7DF
:1006500019821A821B821C82E4C187E691E00E9403
:10066000B6058D8380910D01882F90E0873091052C
:1006700009F4D7C088309105D4F48330910509F48A
:100680005CC08430910554F481309105E9F18230E9
:1006900091050CF045C0009759F1B3C18530910523
:1006A00009F478C0863091050CF093C066C08B3099
:1006B000910509F410C18C3091054CF489309105F5
:1006C00009F4D1C08A3091050CF0DAC0B7C08D3082
:1006D000910509F443C18D3091050CF430C18E3081
:1006E000910509F456C18F30910509F46CC189C197
:1006F000109212018D81803409F086C180910D0124
:100700008F5F80930D0183C18D81843531F4809199
:100710000D018F5F80930D017AC110920D0177C199
:100720008D81882F90E090932B0180932A018091F6
:100730000D018F5F80930D016AC120912A013091D4
:100740002B018D81882F90E0982F8827820F931F8F
:1007500090932B0180932A0180912A0190912B0183
:10076000009729F480911201806180931201809199
:100770000D018F5F80930D014AC18D81882F90E01C
:1007800090932D0180932C0180910D018F5F8093B8
:100790000D013DC120912C0130912D018D81882FBB
:1007A00090E0982F8827820F931F90932D018093BC
:1007B0002C0180912C0190912D018630910518F02B
:1007C00010920D0124C180910D018F5F80930D0166
:1007D0001EC18D8180932E0180910A01882319F01A
:1007E00010920A0115C08D81282F30E080911301ED
:1007F000882F90E0019640E850E0BA010E94AA08D4
:100800002817390729F08091120182608093120124
:100810008D818093130180910D018F5F80930D0175
:10082000F6C08D81882F90E09093300180932F0146
:1008300080910D018F5F80930D01E9C020912F0100
:10084000309130018D81882F90E0982F8827820F7A
:10085000931F9093300180932F0180910D018F5F42
:1008600080930D01D4C08D81882F90E09093320148
:100870008093310180910D018F5F80930D01C7C07E
:100880008D818093140180912C0190912D0100970E
:1008900081F080910D018F5F80930D0189E391E0DC
:1008A000909334018093330110920F0110920E0146
:1008B000AEC080911401882F90E0817090708823E1
:1008C00031F080910D018E5F80930D01A0C083E611
:1008D00080930D019CC020913301309134018091AF
:1008E0000E0190910F01820F931F2D81FC01208337
:1008F00080910E0190910F01019690930F018093CA
:100900000E0120912C0130912D0180910E019091CA
:100910000F012817390709F079C080911401882F39
:1009200090E081709070882331F080910D018F5F8D
:1009300080930D016CC083E680930D0168C08D81AA
:10094000882F90E0A0E0B0E089839A83AB83BC83DA
:1009500080910D018F5F80930D0159C08D81882F8B
:1009600090E0A0E0B0E0BA2FA92F982F8827298126
:100970003A814B815C81820F931FA41FB51F89832D
:100980009A83AB83BC8380910D018F5F80930D01AF
:100990003EC08D81882F90E0A0E0B0E0DC01992777
:1009A000882729813A814B815C81820F931FA41F84
:1009B000B51F89839A83AB83BC8380910D018F5FC0
:1009C00080930D0124C08D81882F90E0A0E0B0E0DD
:1009D000B82FAA279927882729813A814B815C81E2
:1009E000820F931FA41FB51F89839A83AB83BC8397
:1009F0008091120184608093120183E680930D013F
:100A000006C010920D0103C0000001C000008091DB
:100A10000D01833631F4809112010E948000109202
:100A20000D0187E691E00E940B06009709F015CEB4
:100A30000F900F900F900F900F90CF91DF9108952E
:100A4000DF93CF93CDB7DEB70E942C050E946D00D7
:100A500078940E942103FDCFDF93CF9300D0CDB7D0
:100A6000DEB784E590E024E530E0F9012081277FBE
:100A7000FC01208388E10FB6F89480936000109207
:100A800060000FBE198280E88A838A8199810FB63F
:100A9000F89480936100909361000FBE60E072EC67
:100AA00081E090E00E947C070F900F90CF91DF9142
:100AB0000895DF93CF9300D0CDB7DEB79A838983B3
:100AC00089819A81FC011182108289819A81FC01BD
:100AD0001382128289819A81FC01158214820F90FF
:100AE0000F90CF91DF910895DF93CF9300D00F92B5
:100AF000CDB7DEB79A8389836B8389819A81FC01A4
:100B0000808191818D32910558F589819A81FC010E
:100B10008481958129813A81820F931F06962B81CA
:100B2000FC01208389819A81FC0184819581019651
:100B30002DE230E0B9010E9496089C0189819A81DA
:100B4000FC013583248389819A81FC018081918114
:100B50009C012F5F3F4F89819A81FC013183208363
:100B60000F900F900F90CF91DF910895DF93CF9367
:100B700000D00F92CDB7DEB79B838A8389EC90E0DB
:100B800029EC30E0F90120812F77FC0120838A8154
:100B90009B81FC0180819181009711F480E035C038
:100BA0008A819B81FC01828193812A813B81820F12
:100BB000931F0696FC01808189838A819B81FC01B9
:100BC0008281938101962DE230E0B9010E9496085E
:100BD0009C018A819B81FC01338322838A819B81D2
:100BE000FC01808191819C01215030408A819B8150
:100BF000FC013183208389EC90E029EC30E0F9019D
:100C000020812068FC01208389810F900F900F9034
:100C1000CF91DF910895DF93CF9300D0CDB7DEB7AA
:100C20009A83898389819A81FC01808191810F90C7
:100C30000F90CF91DF910895DF93CF9300D0CDB780
:100C4000DEB79A83898389819A81FC0180819181B1
:100C50002DE230E0A901481B590BCA010F900F90FB
:100C6000CF91DF910895DF93CF9300D0CDB7DEB75A
:100C70009A83898389819A81FC01118210828981FA
:100C80009A81FC011382128289819A81FC0115826A
:100C900014820F900F90CF91DF910895DF93CF933F
:100CA00000D00F92CDB7DEB79A8389836B83898199
:100CB0009A81FC01808191818332910558F5898167
:100CC0009A81FC018481958129813A81820F931F49
:100CD00006962B81FC01208389819A81FC01848105
:100CE0009581019623E230E0B9010E9496089C01AB
:100CF00089819A81FC013583248389819A81FC0151
:100D0000808191819C012F5F3F4F89819A81FC01F5
:100D1000318320830F900F900F90CF91DF91089532
:100D2000DF93CF9300D00F92CDB7DEB79B838A833A
:100D30008A819B81FC0180819181009711F480E080
:100D40002CC08A819B81FC01828193812A813B8115
:100D5000820F931F0696FC01808189838A819B8183
:100D6000FC0182819381019623E230E0B9010E9467
:100D700096089C018A819B81FC01338322838A81AE
:100D80009B81FC01808191819C01215030408A81AE
:100D90009B81FC013183208389810F900F900F90FC
:100DA000CF91DF910895DF93CF9300D0CDB7DEB719
:100DB0009A83898389819A81FC01808191810F9036
:100DC0000F90CF91DF910895DF93CF9300D0CDB7EF
:100DD000DEB79A83898389819A81FC018081918120
:100DE00023E230E0A901481B590BCA010F900F9074
:100DF000CF91DF9108951F920F920FB60F9200903E
:100E00005B000F9211242F933F934F935F936F9347
:100E10007F938F939F93AF93BF93EF93FF93DF9352
:100E2000CF93CDB7DEB78EEC90E0FC01208187E652
:100E300091E0622F0E947405CF91DF91FF91EF91B5
:100E4000BF91AF919F918F917F916F915F914F91E2
:100E50003F912F910F9000925B000F900FBE0F906B
:100E60001F9018951F920F920FB60F9200905B0083
:100E70000F9211240F931F932F933F934F935F93E0
:100E80006F937F938F939F93AF93BF93EF93FF9352
:100E9000DF93CF93CDB7DEB78EE391E00E94D30608
:100EA000009749F00EEC10E08EE391E00E9490066E
:100EB000F801808309C089EC90E029EC30E0F90169
:100EC00020812F7DFC012083CF91DF91FF91EF9155
:100ED000BF91AF919F918F917F916F915F914F9152
:100EE0003F912F911F910F910F9000925B000F90F7
:100EF0000FBE0F901F9018950F931F93DF93CF9302
:100F000000D000D0CDB7DEB769837A838B839C8312
:100F100087E691E00E9459058EE391E00E94330636
:100F20000CEC10E080E894E8AEE1B0E029813A8171
:100F30004B815C81BC01CD010E94BD08DA01C90171
:100F40000197F8019183808388EC90E028EC30E0F1
:100F5000F90120812260FC01208389EC90E028E9DE
:100F6000FC0120838AEC90E026E0FC0120830F90B6
:100F70000F900F900F90CF91DF911F910F910895D7
:100F8000DF93CF930F92CDB7DEB78983000088EC53
:100F900090E0FC018081882F90E080729070009733
:100FA000B1F38EEC90E02981FC0120830F90CF916A
:100FB000DF910895DF93CF9300D0CDB7DEB79A834A
:100FC00089830BC089819A81FC0180810E94C007BE
:100FD00089819A8101969A83898389819A81FC010A
:100FE0008081882379F70F900F90CF91DF9108953A
:100FF000DF93CF9300D000D0CDB7DEB79A8389833B
:101000007C836B8389EC90E029EC30E0F90120814E
:101010002F7DFC0120830EC089819A81FC012081F3
:1010200089819A8101969A8389838EE391E0622F68
:101030000E944E0621E08B819C81009709F420E0FC
:101040008B819C8101979C838B83222329F789ECD8
:1010500090E029EC30E0F90120812062FC0120833E
:101060000F900F900F900F90CF91DF910895DF9325
:10107000CF9300D000D0CDB7DEB79C838B8388EEB2
:1010800093E02B813C81B9010E9496089B01C90124
:101090009C0140E050E089E09DE3A0E0B0E0BC01AD
:1010A000CD010E94BD08DA01C901909581959F4F3D
:1010B0009A83898384E890E029813A81FC01318315
:1010C000208381E890E025E0FC01208389819A81DA
:1010D0000F900F900F900F90CF91DF910895DF93B5
:1010E000CF93CDB7DEB78AE790E026E0FC012083FE
:1010F0008AE790E02AE730E0F90120812061FC01D5
:1011000020838AE790E02AE730E0F9012081206817
:10111000FC0120838AE790E02AE730E0F901208192
:101120002860FC012083CF91DF910895AA1BBB1B8F
:1011300051E107C0AA1FBB1FA617B70710F0A61BD7
:10114000B70B881F991F5A95A9F780959095BC01F8
:10115000CD01089597FB092E07260AD077FD04D00C
:10116000E5DF06D000201AF4709561957F4F089551
:10117000F6F7909581959F4F089597FB092E0526C8
:101180000ED057FD04D014D00AD0001C38F450956E
:101190004095309521953F4F4F4F5F4F0895F6F79B
:1011A00090958095709561957F4F8F4F9F4F0895D3
:1011B000A1E21A2EAA1BBB1BFD010DC0AA1FBB1F5B
:1011C000EE1FFF1FA217B307E407F50720F0A21BCD
:1011D000B30BE40BF50B661F771F881F991F1A943A
:1011E00069F760957095809590959B01AC01BD0164
:0811F000CF010895F894FFCF30
:0C11F80040302010000001000200010047
:00000001FF
