:100000000C94F2000C9411010C9411010C94110148
:100010000C9411010C9411010C9411010C94110118
:100020000C9411010C9411010C94BB030C94F60375
:100030000C9411010C9411010C9411010C941101F8
:100040000C9411010C9429090C9411010C941101C8
:100050000C9411010C9411010C9411010C941101D8
:100060000C9411010C9411010C9411010C941101C8
:100070000C9411010C9411010C9411010C941101B8
:100080000C9411010C9411010C9411010C941101A8
:100090000C9411010C94110150034D034A034703C2
:1000A000440341033E033B033803350332032F036C
:1000B0002C0329032603230320031D031A0317031C
:1000C000140311030E030B03080305030203FF02CD
:1000D000FC02F902F602F302F002ED02EA02E70284
:1000E000E402E102DE02DB02D802D502D202CF0234
:1000F000CC02C902C602C302C002BD02BA02B702E4
:10010000B402B102AE02AB02A802A502A2029F0293
:100110009C029902960293029002000100004E0197
:10012000120002000060014300030000A30104016B
:10013000030904A7011402030904BD0116030309FE
:1001400004D5010C0001C112018036018136120173
:10015000000202000010C0167A040001010203012F
:1001600009024300020100C032090400000102023A
:1001700001000524001001052401010104240206E8
:100180000524060001070582031000400904010050
:10019000020A000000070503024000000705840270
:1001A00040000004030904140359006F0075007235
:1001B0000020004E0061006D006500000016035530
:1001C0000053004200200053006500720069006186
:1001D000006C0000000C03310032003300340035A5
:1001E0000000000011241FBECFEFD0E2DEBFCDBF64
:1001F00012E0A0E0B1E0E4EFFDE100E00BBF02C0DF
:1002000007900D92AC33B107D9F712E0ACE3B2E03E
:1002100001C01D92A83AB107E1F70E9413010C94A6
:10022000F80E0C940000AF92BF92CF92DF92EF9243
:10023000FF920F931F9380E88093610010926100FA
:100240000E9471010E946505509A10925B02109203
:100250005A0210925D0210925C0210927E0210927D
:100260007D021092800210927F021092A3021092DF
:10027000A2021092A1021092A0021092A702109264
:10028000A6021092A5021092A40278940E9404097A
:1002900060915C0270915D0240917D0250917E02FE
:1002A00020917F02309180020091A2021091A3025E
:1002B000E090A002F090A102C090A602D090A70208
:1002C000A090A402B090A50280915A0290915B0286
:1002D0000E9474070E94B2018823D1F20E94340662
:1002E000D7CF81E88093D70080EA8093D80086E159
:1002F00089BD09B400FEFDCF80E98093D80010923B
:10030000E00010923C0210923D028CE08093E200EB
:100310007894089580913C0208952FB7F8948091C5
:100320003C02882369F083E08093E9009BE680919A
:10033000E80085FD09C082FF03C09093E800F7CF75
:100340002FBF2FEF3FEF0CC09091F1008091E8009C
:1003500085FD03C08BE68093E8002FBF292F30E096
:10036000C90108952FB7F89480913C02882311F4B5
:1003700090E010C083E08093E9009091F20099230F
:1003800049F48091E80082FF05C085FD03C08BE63B
:100390008093E8002FBF892F089580913C02882325
:1003A00071F09FB7F89483E08093E9002BE602C0D8
:1003B0002093E8008091E80085FDFACF9FBF089563
:1003C000482F80913C028823D9F12FB7F89484E01C
:1003D0008093E90080913F02882341F08091E800FA
:1003E00085FD02C02FBF12C010923F029091E40021
:1003F000975E34E08091E80085FD13C02FBF8091A7
:10040000E400891729F481E080933F028FEF08957B
:1004100080913C028823A1F02FB7F8943093E90033
:10042000E9CF4093F1008091E80085FD03C08AE3A5
:100430008093E80085E080933E022FBF80E008951E
:100440008FEF0895282F80913C02882351F09FB7A9
:10045000F89484E08093E9008091E80085FD03C072
:100460009FBF8FEF08952093F1008091E80085FDF4
:1004700003C08AE38093E80085E080933E029FBF3B
:1004800080E00895CF93DF93EC0180913C028823B4
:1004900009F41CC13FB7F89484E08093E90080918F
:1004A0003F02882309F408C18091E80085FD02C05D
:1004B0003FBF0CC110923F02FFC09091E400975ED5
:1004C0008091E80085FD13C03FBF8091E40089174B
:1004D00021F481E080933F02F9C080913C0288239F
:1004E00009F4F4C03FB7F894B093E900E9CF8091E4
:1004F000F200242F281B822F90E06817790708F458
:10050000262F822F90E08134910508F0C6C0845BCD
:100510009F4FFC01EE0FFF1F0590F491E02D099411
:1005200089918093F10089918093F1008991809362
:10053000F10089918093F10089918093F100899174
:100540008093F10089918093F10089918093F1006B
:1005500089918093F10089918093F1008991809332
:10056000F10089918093F10089918093F100899144
:100570008093F10089918093F10089918093F1003B
:1005800089918093F10089918093F1008991809302
:10059000F10089918093F10089918093F100899114
:1005A0008093F10089918093F10089918093F1000B
:1005B00089918093F10089918093F10089918093D2
:1005C000F10089918093F10089918093F1008991E4
:1005D0008093F10089918093F10089918093F100DB
:1005E00089918093F10089918093F10089918093A2
:1005F000F10089918093F10089918093F1008991B4
:100600008093F10089918093F10089918093F100AA
:1006100089918093F10089918093F1008991809371
:10062000F10089918093F10089918093F100899183
:100630008093F10089918093F10089918093F1007A
:1006400089918093F10089918093F1008991809341
:10065000F10089918093F10089918093F100899153
:100660008093F10089918093F10089918093F1004A
:1006700089918093F10089918093F1008991809311
:10068000F10089918093F10089918093F100899123
:100690008093F10089918093F10089918093F1001A
:1006A0008091E80085FD02C05093E800621B71094B
:1006B000A0933E023FBF04C0B4E040E45AE3A5E08B
:1006C0006115710509F0F9CE80E001C08FEFDF916F
:1006D000CF9108959FB7F89480913E02882341F00E
:1006E00084E08093E9008AE38093E80010923E0260
:1006F0009FBF0895609100017091010180910201F6
:10070000909103010895809104010895809105015D
:10071000089580910601089580913D020895282F43
:100720009FB7F89480913C02882339F082E080934F
:10073000E9008091E80085FD03C09FBF8FEF089519
:1007400081EA8093F10080E28093F1001092F10041
:100750001092F1001092F1001092F10081E080936C
:10076000F1001092F1002093F1008AE38093E800F9
:100770009FBF80E008951F920F920FB60F92112431
:100780008F939F938091E1001092E100982F83FF57
:1007900011C01092E90081E08093EB001092EC0010
:1007A00082E18093ED0088E08093F00010923C029B
:1007B00010923D0292FF13C080913C02882379F091
:1007C00080913E02882359F0815080933E02882315
:1007D00031F484E08093E9008AE38093E8009F91FC
:1007E0008F910F900FBE0F901F9018951F920F9230
:1007F0000FB60F920BB60F9211240F931F932F93E6
:100800003F934F935F936F937F938F939F93AF9398
:10081000BF93EF93FF931092E9008091E80083FF6C
:100820003CC14091F1003091F1008091F100682FBE
:1008300070E02091F100922F80E0682B792B80915D
:10084000F100A82FB0E02091F100922F80E0A82BBA
:10085000B92B1091F1000091F10082EF8093E80034
:10086000363009F05AC021E231E0A901455050402C
:10087000F9013797859194918617970701F5FA0149
:10088000859194918A179B07D1F49A012E5F3F4F6F
:10089000F901659174912E5F3F4FF9014491212F29
:1008A00030E0902F80E0282B392B2F3F310519F0B5
:1008B00010F02FEF30E0241758F4422F09C0295FC1
:1008C0003F4F495F5F4FF1E02B343F0789F6E5C0AA
:1008D0005EEF8091E800282F30E0C90185709070AC
:1008E000892BB9F322FDDCC0342F413108F030E10F
:1008F000232FCB0106C0FC010196E491E093F100A7
:1009000021502223C1F7630F711D431B5093E80050
:100910004423F9F63031E9F2C3C0353061F48EEF8B
:100920008093E8008091E80080FFFCCF862F8068EC
:100930008093E300B5C0393051F5442309F0ADC0D0
:1009400060933C0210923D0210923E028EEF809323
:10095000E80084E491E021E02093E900FC010196A5
:10096000E491E093EB00EE2369F0AC014F5F5F4F41
:10097000FC0184918093EC00CA010196FA01349144
:100980003093ED002F5F253039F78EE181C038308C
:1009900061F4403809F081C08091E80080FFFCCF0D
:1009A00080913C028093F10050C0313289F4413A89
:1009B00009F073C08091E80080FFFCCFE0E0F1E037
:1009C00081918093F10081E0E730F807C9F73DC0DD
:1009D0003032A1F4413209F060C08091E80082FF1A
:1009E000FCCFE0E0F1E08091F100819381E0E7301D
:1009F000F807C9F78BEF8093E80027C0323251F433
:100A0000413209F04AC060933D028091E80080FFC6
:100A1000FCCF1BC03323E9F48091E80080FFFCCFBA
:100A2000423811F080E00DC0A093E9008091EB0006
:100A300090E025E0969587952A95E1F781701092D0
:100A4000E9008093F1001092F1008EEF8093E800AE
:100A500027C0313011F0333001F54230F1F4672B0B
:100A6000E1F42A2F2F77822F81508430B0F48EEF5B
:100A70008093E8002093E900333079F089E1809396
:100A8000EB0081E090E002C0880F991F2A95E2F701
:100A90008093EA001092EA0003C081E28093EB00A9
:100AA000FF91EF91BF91AF919F918F917F916F9146
:100AB0005F914F913F912F911F910F910F900BBE1E
:100AC0000F900FBE0F901F90189580E494E59093BF
:100AD0005F0280935E0282E090EA909361028093CD
:100AE0006002089584E090E0909363028093620234
:100AF0008EE592E06BE070E00E944202609162023B
:100B00007091630287E091E00E944202089584E0C0
:100B100090E090936302809362028EE592E06BE036
:100B200070E00E94420260916202709163028CE068
:100B300091E00E944202089560918A0240918802E9
:100B4000509189025093660240936502909187020A
:100B500090936402382F20E0260F311D30936802F5
:100B6000209367029091850284FD7CC0603161F022
:100B7000613109F471C0662309F074C0992309F04A
:100B800071C00E9487056EC04130510509F06AC0EE
:100B9000903109F067C090918D0280E020918C0225
:100BA00030E0822B932B90935B0280935A029091BA
:100BB0008F0280E020918E0230E0822B932B909365
:100BC0005D0280935C029091910280E020919002FE
:100BD00030E0822B932B90937E0280937D02909144
:100BE000930280E02091920230E0822B932B90932D
:100BF000800280937F029091950280E02091940280
:100C000030E0822B932B9093A3028093A2029091C9
:100C1000970280E02091960230E0822B932B9093F4
:100C2000A1028093A0029091990280E02091980205
:100C300030E0822B932B9093A7028093A602909191
:100C40009B0280E020919A0230E0822B932B9093BC
:100C5000A5028093A40206C0452B21F4992311F428
:100C60000E94720581E008952F923F924F925F9209
:100C70006F927F928F929F92AF92BF92CF92DF92AC
:100C8000EF92FF920F931F93CF93DF9368E8C62EE6
:100C900062E0D62E53E6B52E4CE0A42E32E0432E71
:100CA000512C4C0C5D1C2DEF622E2FEF722E6C0C14
:100CB0007D1C9BEF892E9FEF992E8C0C9D1C83E051
:100CC000382E22242394F8C00E948D01482F809151
:100CD0004202873009F48AC0883080F48330D9F129
:100CE000843028F4813059F1823070F520C085308D
:100CF00009F44CC0863008F05CC042C08B3009F467
:100D0000A4C08C3038F4893009F486C08A3008F0E9
:100D100089C074C08D3009F4B7C08D3008F4B0C0FC
:100D20008E3009F4B3C08F3009F0BAC0B1C0109250
:100D30004402403409F0B6C020924202B3C04435A8
:100D400009F0AEC082E032C040938302F401118208
:100D500030924202A7C0D42FC0E0809183029091CC
:100D600084028C0F9D1F9093840280938302892BB1
:100D700029F480914402806180934402F4E03BC0F6
:100D800040938502F3011182F5E035C0142F00E095
:100D90008091850290918602800F911F9093860228
:100DA00080938502419708F07BC086E080934202E1
:100DB00079C04093870280910B01882319F010922B
:100DC0000B0110C0242F30E08091430290E0019687
:100DD0008F7790702817390729F08091440282603C
:100DE0008093440240934302E7E04BC04093880263
:100DF000F6011182F8E0F093420254C0F42EEE2482
:100E000080918802909189028E0D9F1D9093890296
:100E10008093880289E0CACF40938A02F20111824E
:100E2000FAE0E9CF409345028091850290918602D5
:100E3000892B41F08BE08093420210924102109284
:100E4000400230C040FF29C018C0809140029091FC
:100E50004102FC01EF57FD4F4387019690934102F9
:100E60008093400220918502309186028217930779
:100E7000C9F48091450280FF10C0A092420212C0C6
:100E8000EDE0E09342020EC0FEE0B5CF8FE08ECFE2
:100E900080914402846080934402B092420202C076
:100EA0001092420280914202833631F480914402D2
:100EB0000E949C05109242020E94B201882309F010
:100EC00003CFDF91CF911F910F91FF90EF90DF90B3
:100ED000CF90BF90AF909F908F907F906F905F90DA
:100EE0004F903F902F9008952F923F924F925F9294
:100EF0006F927F928F929F92AF92BF92CF92DF922A
:100F0000EF92FF920F931F93CF93DF933B011A0150
:100F1000E901A0E0B0E0BC01CD010E94AC0C2DECD9
:100F20003CEC4CE45FE30E945E0B20E030E04FE2DB
:100F300054E40E94310B0E94580C70934902609354
:100F4000480288249924C401B3010E94AC0C2DEC02
:100F50003CEC4CE45FE30E945E0B20E030E04FE2AB
:100F600054E40E94310B0E94580C7093510260931C
:100F7000500244245524C201B1010E94AC0C2DEC56
:100F80003CEC4CE45FE30E945E0B20E030E04FE27B
:100F900054E40E94310B0E94580C709357026093E6
:100FA0005602BE0180E090E00E94AC0C2DEC3CECBF
:100FB0004CE45FE30E945E0B20E030E04FE254E43B
:100FC0000E94310B0E94580C70934F0260934E02A6
:100FD000B80180E090E00E94AC0C2DEC3CEC4CE4BD
:100FE0005FE30E945E0B20E030E04FE254E40E9499
:100FF000310B0E94580C709355026093540200E02C
:1010000010E0C801B7010E94AC0C2DEC3CEC4CE4A4
:101010005FE30E945E0B20E030E04FE254E40E9468
:10102000310B0E94580C70934B0260934A02B60138
:1010300080E090E00E94AC0C2DEC3CEC4CE45FE3D3
:101040000E945E0B20E030E04FE254E40E94310B3E
:101050000E94580C7093530260935202CC24DD24FA
:10106000C601B5010E94AC0C2DEC3CEC4CE45FE3F6
:101070000E945E0B20E030E04FE254E40E94310B0E
:101080000E94580C70934D0260934C02809148026C
:10109000909149028C5D954034F08CED95E09093F1
:1010A00049028093480280915002909151028C5DD8
:1010B000954034F08CED95E090934902809348027E
:1010C00080915602909157028C5D954034F08CEDE2
:1010D00095E0909357028093560280914E02909132
:1010E0004F028C5D954034F08CED95E090934F026B
:1010F00080934E0280915402909155028C5D9540F0
:1011000034F08CED95E090935502809354028091D9
:101110004A0290914B028C5D954034F08CED95E045
:1011200090934B0280934A02809152029091530215
:101130008C5D954034F08CED95E090935302809354
:10114000520280914C0290914D028C5D954034F09A
:101150008CED95E090934D0280934C028091480273
:1011600090914902A0915002B091510240915602D3
:1011700050915702E0904E02F0904F0200915402BD
:1011800010915502E0914A02F0914B026091520297
:101190007091530220914C0230914D0290958195AF
:1011A0009F4F841B950B8052984B8A1B9B0B821B75
:1011B000930B861B970B8E1B9F0B801B910B8E191D
:1011C0009F099093590280935802DF91CF911F910C
:1011D0000F91FF90EF90DF90CF90BF90AF909F90D6
:1011E0008F907F906F905F904F903F902F900895D9
:1011F000EEE6F0E08081816080830895EEE6F0E025
:1012000080818E7F80830895CF93DF93A0E8B0E044
:101210001C92E1E8F0E010821092850010928400A8
:101220002FE630E0E90118828C9180648C938081F4
:1012300088608083808182608083888182608883E7
:1012400080ED97E09093890080938800DF91CF91A3
:1012500008951F920F920FB60F920BB60F921124A2
:101260002F933F938F939F93AF93BF93EF93FF93EE
:10127000DF93CF93CDB7DEB7A497DEBFCDBFDE013E
:101280001196E0E1F1E084E201900D928150E1F7E6
:1012900080914802909149029C838B8380915002F7
:1012A0009091510298878F838091560290915702B6
:1012B0009C878B8780914E0290914F02988B8F87ED
:1012C00080915402909155029C8B8B8B80914A02A5
:1012D00090914B02988F8F8B809152029091530284
:1012E0009C8F8B8F80914C0290914D0298A38F8F91
:1012F00080915802909159029CA38BA320914602A1
:1013000030914702F901EE0FFF1FEC0FFD1F8181A5
:101310009281880F991F909389008093880020FF05
:1013200002C0589A01C05898C9010196909347028B
:1013300080934602429724F0109247021092460290
:10134000A496DEBFCDBFCF91DF91FF91EF91BF910A
:10135000AF919F918F913F912F910F900BBE0F9066
:101360000FBE0F901F901895A0E0B0E0EAEBF9E0F7
:101370000C94C10EDC012B01FA019C91923008F40F
:1013800039C1EB018881823008F433C1943069F4AB
:10139000843009F02FC111969C911197898198177B
:1013A00009F428C1A4E3B1E025C1843009F421C1C6
:1013B0008230A9F4923009F01DC19A01AD0188E094
:1013C000EA010990AE01E90109929E018150C1F73D
:1013D000E201898111969C918923818308C1923011
:1013E00009F407C112962D903C901397EB018A8166
:1013F0009B811496AD90BD90CD90DC901797EC80BA
:10140000FD800E811F819101281B390BB90137FF27
:1014100004C066277727621B730B603271050CF0DE
:1014200061C0121613066CF537014801062E04C080
:1014300096948794779467940A94D2F721E030E0E9
:1014400040E050E004C0220F331F441F551F6A952F
:10145000D2F721503040404050402E213F214023C0
:101460005123211531054105510521F021E030E0DE
:1014700040E050E079018A01E628F7280829192977
:101480003CC0232BD1F1260E371E35014601062E16
:1014900004C096948794779467940A94D2F721E0D5
:1014A00030E040E050E004C0220F331F441F551FBE
:1014B0006A95D2F721503040404050402A213B21CC
:1014C0004C215D21211531054105510521F021E017
:1014D00030E040E050E059016A01A628B728C8284A
:1014E000D9280BC0821593052CF01C01AA24BB241B
:1014F000650103C0EE24FF24870111969C91D2015F
:1015000011968C91981709F445C0992339F0A801D8
:1015100097012A193B094C095D0906C0A6019501EE
:101520002E193F09400B510B57FD08C01182338221
:10153000228224833583468357831DC081E08183C3
:101540003382228288279927DC01821B930BA40B0C
:10155000B50B84839583A683B7830DC0220F331FF9
:10156000441F551F2483358346835783828193818B
:101570000197938382832481358146815781DA01E3
:10158000C9010197A109B1098F5F9F4FAF4FBF43B9
:1015900028F30BC0918333822282EA0CFB1C0C1DC2
:1015A0001D1DE482F5820683178383E080832481F6
:1015B00035814681578157FF1AC0C901AA2797FD77
:1015C000A095BA2F81709070A070B0705695479515
:1015D00037952795822B932BA42BB52B848395834A
:1015E000A683B78382819381019693838283DF01EF
:1015F00001C0D201CD01CDB7DEB7E2E10C94DD0E22
:10160000A0E2B0E0E6E0FBE00C94CD0E69837A83C3
:101610008B839C832D833E834F835887E9E0EE2E96
:10162000F12CEC0EFD1ECE010196B7010E94490E71
:101630008E010F5E1F4FCE010596B8010E94490E24
:101640008A8991E089278A8BC701B801AE01475E7C
:101650005F4F0E94B4090E94740DA096E6E00C94BE
:10166000E90EA0E2B0E0E7E3FBE00C94CD0E698365
:101670007A838B839C832D833E834F835887F9E045
:10168000EF2EF12CEC0EFD1ECE010196B7010E944B
:10169000490E8E010F5E1F4FCE010596B8010E94C4
:1016A000490EC701B801AE01475E5F4F0E94B40901
:1016B0000E94740DA096E6E00C94E90EA0E2B0E062
:1016C000E4E6FBE00C94C10E69837A838B839C83F0
:1016D0002D833E834F835887CE010196BE01675FFD
:1016E0007F4F0E94490ECE010596BE016F5E7F4F6F
:1016F0000E94490E9985923088F089898230C8F01D
:10170000943019F4823051F404C0843029F49230BA
:1017100081F484E391E0C6C0923049F420E09A85D8
:101720008A89981321E02A87CE010996BBC08230AE
:1017300049F420E09A858A89981321E02A8BCE010A
:101740004196B0C02D843E844F8458886D887E8831
:101750008F88988CEE24FF248701AA24BB2465017E
:1017600040E050E060E070E0E0E0F0E0C101817056
:101770009070892BE9F0E60CF71C081D191D9A01E1
:10178000AB012A0D3B1D4C1D5D1D80E090E0A0E0EB
:10179000B0E0E614F7040805190520F481E090E0B4
:1017A000A0E0B0E0BA01A901480F591F6A1F7B1FD2
:1017B000AA0CBB1CCC1CDD1C97FE08C081E090E08D
:1017C000A0E0B0E0A82AB92ACA2ADB2A3196E03282
:1017D000F10549F0660C771C881C991C56944794B7
:1017E00037942794C3CFFA85EA892B893C898B8566
:1017F0009C85280F391F2E5F3F4F17C0CA0181708B
:101800009070892B61F016950795F794E79480E026
:1018100090E0A0E0B0E8E82AF92A0A2B1B2B769585
:101820006795579547952F5F3F4F77FDE7CF0CC0E2
:10183000440F551F661F771F17FD4160EE0CFF1CFC
:10184000001F111F21503040403090E0590790E0B8
:10185000690790E4790760F32B8F3C8FDB01CA01A5
:101860008F779070A070B07080349105A105B1059C
:1018700061F447FD0AC0E114F1040105110529F0E6
:10188000405C5F4F6F4F7F4F40781A8EFE1711F00C
:1018900081E08A8F4D8F5E8F6F8F78A383E0898F71
:1018A000CE0149960E94740DA096E2E10C94DD0EE3
:1018B000ACE0B0E0EEE5FCE00C94D10E69837A83F5
:1018C0008B839C83CE010196BE016B5F7F4F0E948C
:1018D000490E8D81823061F1823050F1843021F4E3
:1018E0008E81882351F12EC02F81388537FD20C08D
:1018F0006E812F3131051CF06623F9F023C08EE193
:1019000090E0821B930B29853A854B855C8504C04A
:1019100056954795379527958A95D2F76623B1F066
:1019200050954095309521953F4F4F4F5F4F0EC0DA
:1019300020E030E040E050E009C02FEF3FEF4FEFF4
:101940005FE704C020E030E040E050E8B901CA01A0
:101950002C96E2E00C94ED0EA8E0B0E0E2EBFCE0A7
:101960000C94C90E7B018C016115710581059105EF
:1019700019F482E0898360C083E089838EE1C82EF8
:10198000D12CDC82CB82ED82FE820F831887C801C6
:10199000B7010E94250DFC013197F7FF3BC02227BC
:1019A00033272E1B3F0B57016801022E04C0D6942B
:1019B000C794B794A7940A94D2F740E050E060E04F
:1019C00070E081E090E0A0E0B0E004C0880F991FD3
:1019D000AA1FBB1F2A95D2F70197A109B1098E2131
:1019E0009F21A023B1230097A105B10521F041E07B
:1019F00050E060E070E04A295B296C297D294D8325
:101A00005E836F8378878EE190E08E1B9F0B9C83B3
:101A10008B8312C0309781F00E2E04C0EE0CFF1C99
:101A2000001F111F0A94D2F7ED82FE820F831887E0
:101A3000CE1ADF0ADC82CB821A82CE0101960E9486
:101A4000740D2896EAE00C94E50EEF92FF920F9346
:101A50001F937B018C0180E0E81680E0F80681E0AE
:101A6000080780E0180788F48FEFE816F1040105F5
:101A7000110531F028F088E090E0A0E0B0E017C058
:101A800080E090E0A0E0B0E012C080E0E81680E0E6
:101A9000F80680E0080781E0180728F088E190E068
:101AA000A0E0B0E004C080E190E0A0E0B0E020E27F
:101AB00030E040E050E0281B390B4A0B5B0B04C0C0
:101AC00016950795F794E7948A95D2F7F701E45CA9
:101AD000FE4F8081281B310941095109C9011F911D
:101AE0000F91FF90EF900895DF92EF92FF920F9386
:101AF0001F93FC01E480F58006811781D1808081ED
:101B0000823048F480E090E0A0E1B0E0E82AF92AD1
:101B10000A2B1B2BA5C0843009F49FC0823021F40E
:101B2000EE24FF24870105C0E114F104010511052D
:101B300019F4E0E0F0E096C0628173819FEF6238B3
:101B400079070CF05BC022E83FEF261B370B2A31E8
:101B500031052CF020E030E040E050E02AC0B80130
:101B6000A701022E04C076956795579547950A946C
:101B7000D2F781E090E0A0E0B0E004C0880F991FA8
:101B8000AA1FBB1F2A95D2F70197A109B1098E217F
:101B90009F21A023B1230097A105B10521F081E089
:101BA00090E0A0E0B0E09A01AB01282B392B4A2B42
:101BB0005B2BDA01C9018F779070A070B070803410
:101BC0009105A105B10539F427FF09C0205C3F4FFD
:101BD0004F4F5F4F04C0215C3F4F4F4F5F4FE0E0DE
:101BE000F0E02030A0E03A07A0E04A07A0E45A075E
:101BF00010F0E1E0F0E079018A0127C0603871055A
:101C000064F5FB01E158FF4FD801C7018F77907051
:101C1000A070B07080349105A105B10539F4E7FEDC
:101C20000DC080E490E0A0E0B0E004C08FE390E05D
:101C3000A0E0B0E0E80EF91E0A1F1B1F17FF05C049
:101C400016950795F794E794319687E016950795D2
:101C5000F794E7948A95D1F705C0EE24FF24870115
:101C6000EFEFF0E06E2F679566276795902F9F77CF
:101C7000D794DD24D7948E2F8695492F462B582F45
:101C80005D29B701CA011F910F91FF90EF90DF907E
:101C90000895FC01DB01408151812281622F6F7721
:101CA00070E0221F2227221F9381892F880F822B09
:101CB000282F30E0991F9927991F11969C9311970F
:101CC00021153105A9F5411551056105710511F47D
:101CD00082E037C082E89FEF13969C938E93129711
:101CE0009A01AB0167E0220F331F441F551F6A950D
:101CF000D1F783E08C930DC0220F331F441F551F73
:101D000012968D919C911397019713969C938E93A5
:101D10001297203080E0380780E0480780E45807B9
:101D200058F314962D933D934D935C931797089514
:101D30002F3F310579F4411551056105710519F4FD
:101D400084E08C93089564FF03C081E08C9312C0FB
:101D50001C9210C02F57304013963C932E9312972D
:101D600083E08C9387E0440F551F661F771F8A9589
:101D7000D1F7706414964D935D936D937C93179790
:101D800008952F923F924F925F926F927F928F921F
:101D90009F92AF92BF92CF92DF92EF92FF920F93FA
:101DA0001F93CF93DF93CDB7DEB7CA1BDB0B0FB604
:101DB000F894DEBF0FBECDBF09942A8839884888C1
:101DC0005F846E847D848C849B84AA84B984C88457
:101DD000DF80EE80FD800C811B81AA81B981CE0F4E
:101DE000D11D0FB6F894DEBF0FBECDBFED01089533
:041DF000F894FFCF95
:101DF40000E10000000008080706050100000100DA
:101E040090014C0490014C049001BC0290014C04DC
:101E14009001BC029001BC029001BC029001BC0282
:101E24009001A02B0000000000000000000102024D
:101E3400030303030404040404040404050505055E
:101E4400050505050505050505050505060606063A
:101E5400060606060606060606060606060606061E
:101E6400060606060606060606060606070707070A
:101E740007070707070707070707070707070707EE
:101E840007070707070707070707070707070707DE
:101E940007070707070707070707070707070707CE
:101EA40007070707070707070707070708080808BA
:101EB400080808080808080808080808080808089E
:101EC400080808080808080808080808080808088E
:101ED400080808080808080808080808080808087E
:101EE400080808080808080808080808080808086E
:101EF400080808080808080808080808080808085E
:101F0400080808080808080808080808080808084D
:101F1400080808080808080808080808080808083D
:0C1F240008080808080808080808080851
:00000001FF
