:10000000A7C10000C2C10000C0C10000BEC1000005
:10001000BCC10000BAC10000B8C10000B6C10000F8
:10002000B4C10000B2C10000FAC2000038C3000031
:10003000ACC10000AAC10000A8C10000A6C1000018
:10004000A4C10000A2C10000A0C100009EC1000028
:100050009CC100009AC1000098C1000096C1000038
:1000600094C1000038C5000007C500008EC1000023
:100070008CC100008AC1000088C1000086C1000058
:1000800084C1000082C1000080C100007EC1000068
:100090007CC100007AC100000A000A446F6E652E20
:1000A000000A0A00415445300D002053656E646912
:1000B0006E673A204154453020284563686F206FB1
:1000C0006666290A000A0A00415451310D00205386
:1000D000656E64696E673A2041545131202873750A
:1000E000707072657373207265706C79206D6573C2
:1000F0007361676573290A000A0A00415452310D81
:10010000002053656E64696E673A20415452312075
:10011000285075742064657669636520696E746F14
:1001200020736C617665206D6F6465290A000A0A88
:100130000041544C3F0D0020517565727920426199
:10014000756420526174650A000A0A004154453FF3
:100150000D00205175657279204563686F206D6FC1
:1001600064650A000A0A0041540D002053656E645C
:10017000696E673A2041540A000A0A00415451301E
:100180000D002053656E64696E673A20415451300A
:100190002028616C6C6F77207265706C79206D65BA
:1001A000737361676573290A000A0A004154453177
:1001B0000D002053656E64696E673A2041544531E5
:1001C00020284563686F206F6E290A000A0A0041E3
:1001D000544C340D002053656E64696E673A2041BB
:1001E000544C342028536574206261756420726118
:1001F000746520746F203537363030290A00416627
:1002000074657220696E697469616C69736174697F
:100210006F6E2C2062617564207261746520697351
:100220002035373630300A0A0053656E64696E67D0
:1002300020415420636F6D6D616E647320746F2074
:1002400042544D2D323232206174203139323030F7
:1002500020426175642E0A00426C7565746F6F747C
:100260006820496E697469616C69736174696F6E45
:100270002073657175656E636520666F72204849ED
:1002800044206163747561746F720A005265706C0A
:10029000793A0000010000CA021200020000DC02EC
:1002A0002200220000FE021500210000EE020900DB
:1002B00003000013030401030904170314020309D4
:1002C000042D0320000001C12600120100020000DD
:1002D0000020C01679040001010200010902220079
:1002E000010100C0320904000001030000000921DF
:1002F00011010001221500070583032000010631CA
:10030000FF0974A1537508150026FF009520097593
:100310008102C004030904140359006F00750072C0
:100320000020004E0061006D0065000000200359B0
:10033000006F00750072002000550053004200203D
:10034000004400650076006900630065000000005D
:1003500011241FBECFEFD0E2DEBFCDBF11E0A0E081
:10036000B1E0E4E7FBE000E00BBF02C007900D92B4
:10037000A030B107D9F711E0A0E0B1E001C01D92B3
:10038000AF36B107E1F736D0F3C33ACE88E893E150
:1003900020E931E0F9013197F1F70197D9F78CE8BD
:1003A00092E0F6D202C049D3F4D05BD38823D9F7C8
:1003B0000895FF920F931F93CF93DF93EC0180E496
:1003C000F82E00E911E0FE0121968491882361F066
:1003D0001ED38BB18F258BB988EE93E0F80131974E
:1003E000F1F70197D9F7EFCFDF91CF911F910F91DF
:1003F000FF90089580E88093610010926100569A02
:100400005E9A60E07BE480E090E0D6D2A8D0BED0D7
:100410008823E9F380E197E220E931E0F90131979F
:10042000F1F70197D9F788E592E0B2D289E292E03C
:10043000AFD28EEF91E0ACD280E29EE420E931E0D1
:10044000F9013197F1F70197D9F781E090E098D25F
:1004500085ED91E09DD28FEC91E0ABDF80E197E2FA
:1004600020E931E0F9013197F1F70197D9F760E020
:1004700071EE80E090E0A0D289DF8CEC91E088D230
:1004800082E090E07DD282EB91E082D28CEA91E032
:1004900090DF7CDF89EA91E07BD283E090E070D24C
:1004A00082E891E075D28CE791E083DF6FDF89E726
:1004B00091E06ED284E090E063D28BE691E068D266
:1004C00087E691E076DF62DF84E691E061D285E045
:1004D00090E056D282E591E05BD28CE491E069DF56
:1004E00055DF89E491E054D286E090E049D287E379
:1004F00091E04ED281E391E05CDF48DF8EE291E053
:1005000047D287E090E03CD281E091E041D28BEF8E
:1005100090E04FDF3BDF88EF90E03AD288E090E058
:100520002FD28EEC90E034D288EC90E042DF2EDFC8
:1005300085EC90E02DD289E090E022D28AEA90E02A
:1005400027D284EA90E035DF21DF81EA90E020D2F3
:100550008AE990E01DD288E990E01AD2FFCF81E8C5
:100560008093D70080EA8093D80086E189BD09B4E2
:1005700000FEFDCF80E98093D8001092E000109239
:1005800000018CE08093E20078940895809100014E
:100590000895482F80910001882309F43EC02FB7A9
:1005A000F89483E08093E90080910201882341F070
:1005B0008091E80085FD02C02FBF12C01092020199
:1005C0009091E4009C5F33E08091E80085FD13C0CA
:1005D0002FBF8091E400891729F481E08093020104
:1005E0008FEF0895809100018823B9F02FB7F89418
:1005F0003093E900E9CF4093F1008091E80085FD58
:1006000006C08AE38093E8001092010103C082E0F3
:10061000809301012FBF80E008958FEF08951F920E
:100620000F920FB60F9211248F939F938091E10048
:100630001092E100982F83FF0FC01092E90081E033
:100640008093EB001092EC0082E28093ED0088E052
:100650008093F0001092000192FF1AC08091000177
:100660008823B1F080910101882391F0815080931B
:100670000101882369F483E08093E90002C01092AD
:10068000F1008091E80085FDFACF8AE38093E800CD
:100690009F918F910F900FBE0F901F9018951F92F2
:1006A0000F920FB60F920BB60F9211242F933F9318
:1006B0004F935F936F937F938F939F93AF93BF936A
:1006C000CF93DF93EF93FF931092E9008091E800BE
:1006D00083FF2CC14091F1003091F1008091F10035
:1006E000A82FB0E02091F100922F80E0A82BB92B29
:1006F0008091F100682F70E02091F100922F80E04E
:10070000682B792B8091F100C82FD0E02091F10067
:10071000922F80E0C82BD92B82EF8093E8003630EF
:1007200009F056C02AE932E0A90145505040F901CC
:100730003797859194918A179B07E1F4FA01859187
:10074000949186179707B1F49A012E5F3F4FF901F4
:10075000659174912E5F3F4FF9012491CE01CF3FF7
:10076000D10519F010F08FEF90E0422F821758F466
:10077000482F09C0295F3F4F495F5F4FF2E02B3C94
:100780003F07A9F6D3C05EEF8091E800282F30E044
:10079000C90185709070892BB9F322FDCAC0342F2E
:1007A000413208F030E2232FCB0106C0FC01019654
:1007B000E491E093F10021502223C1F7630F711DF2
:1007C000431B5093E8004423F9F63032E9F2B1C0FC
:1007D000353061F48EEF8093E8008091E80080FF6F
:1007E000FCCF8A2F80688093E300A3C0393031F5B5
:1007F000442309F09BC0A09300018EEF8093E80092
:1008000084EC92E021E02093E900FC010196E49160
:10081000E093EB00EE2369F0AC014F5F5F4FFC010A
:1008200084918093EC00CA010196FA0134913093CF
:10083000ED002F5F253039F78EE14DC0383061F47F
:10084000403809F073C08091E80080FFFCCF8091B0
:1008500000018093F1001BC03323E9F48091E8008C
:1008600080FFFCCF423811F080E00DC06093E900BA
:100870008091EB0090E025E0969587952A95E1F729
:1008800081701092E9008093F1001092F1008EEFD8
:100890008093E8004EC0313019F0333009F046C083
:1008A0004230F1F4AB2BE1F4262F2F77822F8150C9
:1008B0008430B0F48EEF8093E8002093E900333069
:1008C000A9F189E18093EB0081E090E002C0880FFC
:1008D000991F2A95E2F78093EA001092EA0029C056
:1008E000313021F5413A11F5672B01F54C2F5EEFC0
:1008F0008091E800282F30E0C90185709070892B25
:10090000B9F322FD16C0942F413208F090E2892FEE
:1009100003C01092F10081508823D9F7491B5093EE
:10092000E800442329F7903219F303C081E2809351
:10093000EB00FF91EF91DF91CF91BF91AF919F912C
:100940008F917F916F915F914F913F912F910F9078
:100950000BBE0F900FBE0F901F901895982F8A30E6
:1009600010F087E301C080E3890F13CE1F93182F87
:1009700082958F70F3DF812F8F70F0DF1F910895C4
:100980001F93182F892FF2DF812FF0DF1F91089519
:100990001F93CF93DF93EC01FE0121961491112355
:1009A00039F01A3011F48DE0F4DD812FF2DDF4CF4F
:1009B000DF91CF911F9108959B01AC01F89460E005
:1009C00079E08DE390E0B2D021503040404050407B
:1009D00056954795379527953093CD002093CC00B9
:1009E00082E08093C80088E98093C90086E0809304
:1009F000CA0010922C0180912C0180932B0110923F
:100A00006E0180916E0180936D0178940895282F76
:100A100090912B019F5F983208F090E080912C011B
:100A20008917E1F3E92FF0E0ED5FFE4F208390930B
:100A30002B0188EB8093C900089590916D018091FE
:100A40006E019817D1F390916E019F5F903408F07A
:100A500090E0E92FF0E0E35DFE4F808190936E011E
:100A6000089580916D0190916E01891710F0891B96
:100A70000895805C891B08951F920F920FB60F9204
:100A80000BB60F9211248F939F93EF93FF93909146
:100A90002B0180912C01981721F488E98093C900DB
:100AA0000FC090912C019F5F983208F090E0E92FE1
:100AB000F0E0ED5FFE4F80818093CE0090932C019B
:100AC000FF91EF919F918F910F900BBE0F900FBEF2
:100AD0000F901F9018951F920F920FB60F920BB6A2
:100AE0000F9211242F938F939F93EF93FF93209155
:100AF000CE0090916D019F5F903408F090E080915E
:100B00006E01981739F0E92FF0E0E35DFE4F208386
:100B100090936D01FF91EF919F918F912F910F9085
:100B20000BBE0F900FBE0F901F901895A1E21A2ECA
:100B3000AA1BBB1BFD010DC0AA1FBB1FEE1FFF1F81
:100B4000A217B307E407F50720F0A21BB30BE40BD1
:100B5000F50B661F771F881F991F1A9469F7609518
:100B60007095809590959B01AC01BD01CF010895D2
:040B7000F894FFCF27
:00000001FF
