:100000000C9434000C9451000C9451000C94820018
:100010000C9451000C9491000C9451000C94EA063D
:100020000C9451000C9451000C9451000C94D60780
:100030000C942C080C9443070C9451000C94510020
:100040000C94B9060C9451000C9474050C949C0506
:100050000C9451000C9451000C9451000C945100DC
:100060000C9451000C94510011241FBECFEFD8E026
:10007000DEBFCDBF11E0A0E0B1E0E8EEF0E102C0EC
:1000800005900D92A631B107D9F713E0A6E1B1E0D2
:1000900001C01D92A435B107E1F70E94B1000C9494
:1000A00072080C94000080E480937C0087E08093C9
:1000B0007A0080917A00806880937A0080917A003B
:1000C000806480937A0080917A0086FDFCCF8091D5
:1000D000780090917900089590917C008F71907EC6
:1000E000892B80937C0080917A00806480937A00D1
:1000F00080917A0086FDFCCF2091780030917900C4
:10010000C90108951F920F920FB60F9211248F9379
:1001100081E0809316018F910F900FBE0F901F907A
:1001200018951F920F920FB60F9211248F9381E0B2
:10013000809316018F910F900FBE0F901F9018950E
:1001400084B7877F84BF60E072EC81E090E00E941A
:10015000D0050E9453000E94360685E08093680017
:100160000895DF92EF92FF920F931F93CF93DF9347
:100170000E94A0000E941101789495E0E92EF12CD4
:10018000C0E2D0E080E8D82E03E010E00E948503B2
:10019000809122018823D9F01092220180910001E0
:1001A0008F5F80930001882311F4D0920001F092B8
:1001B0004601E09245018091000180934401D09373
:1001C0004801C09347010E942B010E944601809183
:1001D00016018823D9F2809117018F5F8093170150
:1001E0008150823399F61092160110921701809176
:1001F00000018F5F80930001882311F4D0920001E9
:1002000010934601009345018091000180934401C1
:10021000D0934801C09347010E941E010E944601ED
:10022000B5CF80E494E590933F0180933E0181E057
:1002300090EA9093410180934001089589B18093A1
:10024000490183B180934A0182E090E09093430199
:10025000809342010895CF93DF93C0E0D0E0CE01B8
:100260000E946C00FE01EE0FFF1FE25CFE4F8387D1
:1002700094872196C630D10591F78CE090E0909359
:10028000430180934201DF91CF91089586E891E088
:100290000E946B052091420130914301255F3F4F41
:1002A0008217930750F48091470190914801906222
:1002B000909348018093470108958EE391E06BE0AD
:1002C00070E00E941406609142017091430189E43C
:1002D00091E00E941406089586E891E00E946B0563
:1002E000282F8E3158F480914701909148019062F7
:1002F00090934801809347012C3050F010924301B5
:10030000109242018EE391E06BE070E00E941406CF
:10031000089586E891E00E946B05282F8E3158F4ED
:100320008091470190914801906290934801809399
:1003300047012031A0F084E090E090934301809346
:1003400042018EE391E06BE070E00E941406609140
:1003500042017091430181E091E00E9414060895EA
:1003600086E891E00E946B05282F8E3158F4809129
:100370004701909148019062909348018093470112
:100380002C31A0F080E190E09093430180934201F2
:100390008EE391E06BE070E00E94140660914201F0
:1003A0007091430185E091E00E94140608951F9327
:1003B0006091650140916301509164015093460141
:1003C000409345019091620190934401382F20E0C1
:1003D000260F311D30934801209347019091600111
:1003E00084FD8EC1613199F1623130F4662351F0A0
:1003F000603109F085C14CC0613851F0623809F0B4
:100400007FC10CC0992309F07BC10E94B0017AC161
:10041000992309F075C10E944F0672C1992309F012
:100420006FC181E0809315010E9455061AB81092A1
:100430002F0183E00E947F061092300185E00E9428
:100440007F061092310186E00E947F0659C1433039
:10045000510561F045305105B1F0452B09F050C10F
:10046000992309F04DC10E9489014CC189B1809343
:10047000490183B180934A0182E090E09093430167
:100480008093420102C00E942B010E9446013AC1A2
:100490004430510509F447C04530510540F441301E
:1004A000510571F04230510509F02AC113C04630A0
:1004B000510509F449C04730510509F021C174C004
:1004C000923009F01DC1809167018AB9809168015D
:1004D00084B916C1923009F013C183E00E94A806C6
:1004E000882311F017EF01C01FEF86E00E94A806D5
:1004F00081111F7D85E00E94A80681111F7B8091DC
:100500002F018111177F8091300181111F7D809112
:10051000310181111F7B8091670118231BB98091E4
:10052000680185B9EDC0923009F0EAC0F8942091D5
:1005300067019091680180E0820F911D90932101E5
:10054000809320017894DCC0923009F0D9C083E018
:100550000E94A806882311F017EF01C01FEF85E065
:100560000E94A80681111F7D86E00E94A8068111C5
:100570001F7B80912F018111177F809130018111A4
:100580001F7D8091310181111F7B90916701912323
:1005900090931B018091680180931C018F7380935D
:1005A0006B0090936D00ACC0923009F0A9C08091AF
:1005B000670190E09C01207F30702031310539F0D7
:1005C0008F7090702032310509F06DC049C08F7076
:1005D000907085309105D1F08630910559F10397DF
:1005E00009F08EC083E00E947F0681E080932F0196
:1005F000809168012FE4829FC001112488539D4C93
:1006000090932A0180932901539A27C085E00E9484
:100610007F0681E080933001809168012FE4829F02
:10062000C001112488539D4C90932C0180932B0181
:10063000559A13C086E00E947F0681E080933101C5
:10064000809168012FE4829FC001112488539D4C42
:1006500090932E0180932D01569A0E945B0650C004
:100660008530910571F08630910599F0039709F076
:1006700047C010922F01809168018093260183E08A
:100680000FC010923001809168018093270185E0AE
:1006900007C010923101809168018093280186E0A3
:1006A0000E9465062DC08530910579F08630910550
:1006B000C1F0039729F553985B9810922F0183E0BE
:1006C0000E947F069091300109C055985D98109264
:1006D000300185E00E947F0690912F0180913101C9
:1006E0000BC056985E981092310186E00E947F06FA
:1006F00090912F0180913001892B11F40E945F06A7
:100700000E946C0181E01F9108952F923F924F92B9
:100710005F926F927F928F929F92AF92BF92CF9291
:10072000DF92EF92FF920F931F93CF93DF93F3E645
:10073000CF2EF1E0DF2EE3E6BE2E7CE0A72E62E0B6
:10074000462E512C4C0C5D1C5DEF652E5FEF752E17
:100750006C0C7D1C42E0242E3BEF832E3FEF932E4A
:100760008C0C9D1C33243394FAC082E292E00E94E8
:10077000EE04482F80911801873009F48AC0883030
:1007800080F48330D9F1843028F4813059F18230FB
:1007900078F520C0853009F44CC0863008F05CC084
:1007A00042C08B3009F4A4C08C3038F4893009F48D
:1007B00086C08A3008F089C074C08D3009F4B7C093
:1007C0008D3008F4B0C08E3009F4B3C08F3009F01A
:1007D000BAC0B1C010921E01403409F0B6C03092C8
:1007E0001801B3C0443509F0AEC020921801ADC065
:1007F00040935E01F4011182F3E050C0D42FC0E0B9
:1008000080915E0190915F018C0F9D1F90935F011D
:1008100080935E01892B29F480911E018061809371
:100820001E0184E016C040936001F3011182F5E0DF
:1008300035C0142F00E08091600190916101800F1C
:10084000911F9093610180936001409708F07BC0F5
:1008500086E08093180179C0409362018091150170
:10086000882319F01092150110C0242F30E08091D8
:100870001D0190E001968F7790702817390729F0B5
:1008800080911E01826080931E0140931D01E7E06C
:100890004BC040936301F6011182F8E0F093180118
:1008A00054C0F42EEE2480916301909164018E0D6A
:1008B0009F1D909364018093630189E0CACF4093A8
:1008C0006501F2011182FAE0E9CF40931F018091A6
:1008D000600190916101892B41F08BE080931801B8
:1008E00010921A011092190130C040FF29C018C09F
:1008F0008091190190911A01FC01E45AFE4F43873F
:10090000019690931A018093190120916001309112
:10091000610182179307C9F480911F0180FF10C005
:10092000A092180112C0EDE0E09318010EC0FEE0A5
:10093000B5CF8FE08ECF80911E01846080931E0121
:10094000B092180102C010921801809118018336EC
:1009500031F480911E010E94D7011092180182E2A9
:1009600092E00E941705892B09F0FFCEDF91CF910D
:100970001F910F91FF90EF90DF90CF90BF90AF90BD
:100980009F908F907F906F905F904F903F902F90AF
:100990000895FC0111821082138212821582148242
:1009A0000895CF93DF93EC012881398181E02C32C7
:1009B000380788F48C819D81FE01E80FF91F66835A
:1009C00001966CE271E00E943C089D838C832F5F4E
:1009D0003F4F39832883DF91CF910895CF93DF93E1
:1009E000EC018091C1008F778093C100288139810B
:1009F0002115310511F440E016C08A819B81FE016A
:100A0000E80FF91F468101966CE271E00E943C08F4
:100A10009B838A8321503040398328838091C10091
:100A200080688093C100842FDF91CF910895FC01ED
:100A3000808191810895FC012CE231E080819181D7
:100A4000281B390BC9010895FC0111821082138201
:100A50001282158214820895CF93DF93EC012881CE
:100A600039812639310588F48C819D81FE01E80F9A
:100A7000F91F6683019666E970E00E943C089D8339
:100A80008C832F5F3F4F39832883DF91CF91089567
:100A9000CF93DF93EC01288139812115310511F4C1
:100AA00040E011C08A819B81FE01E80FF91F468159
:100AB000019666E970E00E943C089B838A8321507E
:100AC000304039832883842FDF91CF910895FC0132
:100AD000808191810895FC0126E930E08081918137
:100AE000281B390BC90108951F920F920FB60F9260
:100AF00011242F933F934F935F936F937F938F9323
:100B00009F93AF93BF93EF93FF936091C60082E2F0
:100B100092E00E94D104FF91EF91BF91AF919F911C
:100B20008F917F916F915F914F913F912F910F9096
:100B30000FBE0F901F9018951F920F920FB60F9235
:100B400011242F933F934F935F936F937F938F93D2
:100B50009F93AF93BF93EF93FF9380918601909102
:100B60008701892B39F086E891E00E94480580933F
:100B7000C60005C08091C1008F7D8093C100FF91A8
:100B8000EF91BF91AF919F918F917F916F915F9105
:100B90004F913F912F910F900FBE0F901F9018957E
:100BA0009B01AC01109223021092220210922502A6
:100BB00010922402109227021092260210928701AE
:100BC00010928601109289011092880110928B0177
:100BD00010928A0160E874E88EE190E00E9450086B
:100BE000215030403093C5002093C400E0ECF0E089
:100BF00080818260808388E98093C1000895982F66
:100C00008091C00085FFFCCF9093C6000895FC0141
:100C100007C08091C00085FFFCCF9093C60031963D
:100C200090819923B1F708950F931F93CF93DF938A
:100C30008C01EB018091C1008F7D8093C10007C0C2
:100C4000F80161918F0186E891E00E942C052197BF
:100C5000FFEFCF3FDF07A1F78091C1008062809353
:100C6000C100DF91CF911F910F91089586E086BD5D
:100C700083E085BD109285001092840081E080930E
:100C80008100E0EBF0E08081826080838DE78093DB
:100C9000B300E1EBF0E08081816080830895EEE6AF
:100CA000F0E08081816080830895EEE6F0E080814D
:100CB0008E7F8083089587E080936F000895EFE62C
:100CC000F0E08081887F80830895853049F0863008
:100CD00061F0833071F481E080932301539A09C05D
:100CE00081E080932401559A04C081E0809325011E
:100CF000569A8091700082608093700008958530CC
:100D000051F0863071F0833089F4109223015398AA
:100D1000109226010BC010922401559810922701C1
:100D200005C0109225015698109228018091230148
:100D3000882369F480912401882349F48091250156
:100D4000882329F480916F008D7F80936F00089530
:100D5000833019F4809123010895853019F480912E
:100D600024010895863011F080E0089580912501D6
:100D700008951F920F920FB60F9211242F933F9355
:100D80008F939F9386E086BD8091200190912101F1
:100D9000892BB9F08091360190913701019690939B
:100DA0003701809336012091200130912101821773
:100DB000930738F0109237011092360181E080934A
:100DC00022019F918F913F912F910F900FBE0F9015
:100DD0001F9018951F920F920FB60F9211242F9308
:100DE0003F938F939F9320913401309135018091EF
:100DF000260190E02817390721F480912301811101
:100E00005B988091270190E02817390721F48091A1
:100E1000240181115D988091280190E028173907FD
:100E200021F48091250181115E98C901019690936A
:100E30003501809334018E3F9105E1F480912301C7
:100E4000882321F08091260181115B9A80912401F1
:100E5000882321F08091270181115D9A80912501DD
:100E6000882321F08091280181115E9A109235012A
:100E7000109234019F918F913F912F910F900FBE4F
:100E80000F901F9018951F920F920FB60F9211247A
:100E90002F933F938F939F93809133018823C9F4BD
:100EA000809181008E7F809381008091810082609B
:100EB0008093810084EA93E8909385008093840076
:100EC00080916F00897F80936F0081E08093330170
:100ED00064C0809181008160809381008091810055
:100EE0008D7F8093810080916F00866080936F007A
:100EF00080912F0181115B9A8091300181115D9A5F
:100F00008091310181115E9A80913101882341F0F5
:100F100080912D0190912E0190938B0080938A00F7
:100F200080912F018823D1F0809130018823B1F086
:100F30002091290130912A0180912B0190912C015F
:100F400028173907E8F48091290190912A0190939C
:100F5000890080938800109232011DC080912F017A
:100F6000882351F08091290190912A019093890062
:100F7000809388001092320180913001882359F0CB
:100F800080912B0190912C0190938900809388008F
:100F900081E080933201109233019F918F913F91B4
:100FA0002F910F900FBE0F901F9018951F920F92C8
:100FB0000FB60F9211242F933F938F939F9380919D
:100FC0003201882309F580912F0181115B9880916E
:100FD00030018823C1F180912B0190912C01209147
:100FE000290130912A01821B930BC29708F45D9866
:100FF00080912B0190912C0190938900809388001F
:1010000081E0809332011FC08091300181115D9891
:1010100080912F018823B9F08091290190912A01B4
:1010200020912B0130912C01821B930BC29708F465
:101030005B988091290190912A0190938900809377
:101040008800109232019F918F913F912F910F90C4
:101050000FBE0F901F9018951F920F920FB60F9210
:1010600011248F938091310181115E988F910F909F
:101070000FBE0F901F901895AA1BBB1B51E107C014
:10108000AA1FBB1FA617B70710F0A61BB70B881F18
:10109000991F5A95A9F780959095BC01CD010895A7
:1010A000A1E21A2EAA1BBB1BFD010DC0AA1FBB1F6C
:1010B000EE1FFF1FA217B307E407F50720F0A21BDE
:1010C000B30BE40BF50B661F771F881F991F1A944B
:1010D00069F760957095809590959B01AC01BD0175
:0810E000CF010895F894FFCF41
:1010E800800D07060500000100020003000400054A
:0610F800000600070001E4
:00000001FF
