:100000000C94F2000C9411010C9411010C94110148
:100010000C9411010C9411010C9411010C94110118
:100020000C9411010C9411010C9440060C947B0665
:100030000C9411010C9411010C9411010C941101F8
:100040000C9411010C9411010C9411010C941101E8
:100050000C9411010C9411010C9411010C94C50322
:100060000C9411010C9411010C9411010C941101C8
:100070000C9411010C9411010C9411010C941101B8
:100080000C9411010C9411010C9411010C941101A8
:100090000C9411010C941101D505D205CF05CC05A6
:1000A000C905C605C305C005BD05BA05B705B40534
:1000B000B105AE05AB05A805A505A2059F059C05E4
:1000C00099059605930590058D058A058705840594
:1000D00081057E057B057805750572056F056C0544
:1000E00069056605630560055D055A0557055405F4
:1000F00051054E054B054805450542053F053C05A4
:1001000039053605330530052D052A052705240553
:1001100021051E051B0518051505000100004E01EF
:10012000120002000060014300030000A30104016B
:10013000030904A7011402030904BD0116030309FE
:1001400004D5010C0001C112018036018136120173
:10015000000202000010C0167A040001010203012F
:1001600009024300020100C032090400000102023A
:1001700001000524001001052401010104240206E8
:100180000524060001070582031000400904010050
:10019000020A000000070503024000000705840270
:1001A00040000004030904140359006F0075007235
:1001B0000020004E0061006D006500000016035530
:1001C0000053004200200053006500720069006186
:1001D000006C0000000C03310032003300340035A5
:1001E0000000000011241FBECFEFD0E2DEBFCDBF64
:1001F00011E0A0E0B1E0E0E9F0E100E00BBF02C0F7
:1002000007900D92AE31B107D9F711E0AEE1B1E040
:1002100001C01D92AD36B107E1F70E94F2070C94C0
:1002200046080C94000080E480937C0087E0809373
:100230007A0080917A00806880937A0080917A00B9
:10024000806480937A0080917A0086FDFCCF809153
:10025000780090917900089590917C008F71907E44
:10026000892B80937C0080917A00806480937A004F
:1002700080917A0086FDFCCF209178003091790042
:10028000C901089580E494E590932E0180932D0197
:1002900081E090EA9093300180932F01089580E0EF
:1002A00090E00E942C0180933801292F332727FDED
:1002B0003A952093390184E090E00E942C018093CC
:1002C0003A01292F332727FD3A9520933B0185E0FA
:1002D00090E00E942C0180933C01292F332727FDB9
:1002E0003A9520933D0186E090E00E942C019C010C
:1002F00080933E01232F330F330B20933F0187E080
:1003000090E00E942C019C0180934001232F330F29
:10031000330B209341018AE0809342011092430104
:100320008CE090E0909332018093310108950F9317
:100330001F930DE211E0C8016BE070E00E94C7045A
:100340006091310170913201C8010B960E94C7047F
:100350001F910F9108958091E80085FF09C0809159
:100360003601909137019062909337018093360166
:100370008091E80085FD0AC010923201109231018F
:100380008DE291E06BE070E00E94C704089584E084
:1003900090E090933201809331018DE291E06BE027
:1003A00070E00E94C704609131017091320180E0D9
:1003B00091E00E94C70408958091E80085FF09C07C
:1003C000809136019091370190629093370180932C
:1003D00036018091E80085FD14C080E190E09093A3
:1003E0003201809331018DE291E06BE070E00E9478
:1003F000C704609131017091320184E091E00E9464
:10040000C7040895409156016091540170915501BF
:1004100070933501609334019091530190933301AF
:10042000382F20E0240F311D3093370120933601FF
:100430009091510184FD54C0413109F1423130F4B1
:10044000442351F0403109F04BC038C0413851F0DD
:10045000423809F045C00BC0992309F041C00E9401
:10046000DC0140C09923E1F50E94B90339C099230A
:10047000B9F581E0809314010E94BF0331C063305D
:10048000710569F06530710539F0672B49F59923DD
:1004900039F50E94C70126C00E944F010CC089B1E6
:1004A0008093380183B18093390182E090E090938A
:1004B0003201809331010E94970114C064307105AC
:1004C00079F4923069F4F89420915801909159018F
:1004D00080E0820F911D90932501809324017894F0
:1004E0000E94AB0181E008952F923F924F925F925C
:1004F0006F927F928F929F92AF92BF92CF92DF9234
:10050000EF92FF920F931F93CF93DF9304E5C02EDA
:1005100001E0D02E13E6B12EBCE0AB2EA2E04A2EB5
:10052000512C4C0C5D1CFDEF6F2EFFEF7F2E6C0CE1
:100530007D1CEBEF8E2EEFEF9E2E8C0C9D1C73E03E
:10054000372E22242394F8C00E941204482F809151
:100550001E01873009F48AC0883080F48330D9F1D5
:10056000843028F4813059F1823070F520C0853014
:1005700009F44CC0863008F05CC042C08B3009F4EE
:10058000A4C08C3038F4893009F486C08A3008F071
:1005900089C074C08D3009F4B7C08D3008F4B0C084
:1005A0008E3009F4B3C08F3009F0BAC0B1C01092D8
:1005B0002201403409F0B6C020921E01B3C0443578
:1005C00009F0AEC082E032C040934F01F4011182C5
:1005D00030921E01A7C0D42FC0E080914F019091AE
:1005E00050018C0F9D1F9093500180934F01892BD8
:1005F00029F480912201806180932201F4E03BC0C4
:1006000040935101F3011182F5E035C0142F00E051
:100610008091510190915201800F911F909352014E
:1006200080935101409708F07BC086E080931E01C3
:1006300079C04093530180911401882319F01092DE
:10064000140110C0242F30E08091210190E0019628
:100650008F7790702817390729F0809122018260E6
:100660008093220140932101E7E04BC04093540165
:10067000F6011182F8E0F0931E0154C0F42EEE242E
:1006800080915401909155018E0D9F1D90935501BD
:100690008093540189E0CACF40935601F201118240
:1006A000FAE0E9CF409323018091510190915201EA
:1006B000892B41F08BE080931E0110922001109253
:1006C0001F0130C040FF29C018C080911F019091C8
:1006D0002001FC01E35BFE4F4387019690932001CC
:1006E00080931F012091510130915201821793078D
:1006F000C9F48091230180FF10C0A0921E0112C096
:10070000EDE0E0931E010EC0FEE0B5CF8FE08ECF8E
:1007100080912201846080932201B0921E0102C068
:1007200010921E0180911E01833631F480912201C6
:100730000E94020210921E010E943704882309F0D1
:1007400003CFDF91CF911F910F91FF90EF90DF903A
:10075000CF90BF90AF909F908F907F906F905F9061
:100760004F903F902F90089583E886BD83E085BD2C
:100770000895EEE6F0E08081816080830895EEE6E2
:10078000F0E080818E7F808308951F920F920FB6D4
:100790000F9211242F933F938F939F9383E886BDED
:1007A0008091240190912501892BB9F08091270136
:1007B0009091280101969093280180932701209120
:1007C0002401309125018217930738F010922801F7
:1007D0001092270181E0809326019F918F913F9194
:1007E0002F910F900FBE0F901F90189581E8809366
:1007F000D70080EA8093D80086E189BD09B400FE65
:10080000FDCF80E98093D8001092E000109229017A
:1008100010922A018CE08093E200789408958091F0
:10082000290108952FB7F89480912901882369F050
:1008300083E08093E9009BE68091E80085FD09C094
:1008400082FF03C09093E800F7CF2FBF2FEF3FEF59
:100850000CC09091F1008091E80085FD03C08BE60B
:100860008093E8002FBF292F30E0C90108952FB7EA
:10087000F89480912901882311F490E010C083E05E
:100880008093E9009091F200992349F48091E80067
:1008900082FF05C085FD03C08BE68093E8002FBF73
:1008A000892F089580912901882371F09FB7F894CA
:1008B00083E08093E9002BE602C02093E80080915A
:1008C000E80085FDFACF9FBF0895482F8091290148
:1008D0008823D9F12FB7F89484E08093E9008091C0
:1008E0002C01882341F08091E80085FD02C02FBFD4
:1008F00012C010922C019091E400975E34E0809138
:10090000E80085FD13C02FBF8091E400891729F40A
:1009100081E080932C018FEF089580912901882335
:10092000A1F02FB7F8943093E900E9CF4093F1009C
:100930008091E80085FD03C08AE38093E80085E0AC
:1009400080932B012FBF80E008958FEF0895282F0B
:1009500080912901882351F09FB7F89484E0809317
:10096000E9008091E80085FD03C09FBF8FEF0895E7
:100970002093F1008091E80085FD03C08AE3809315
:10098000E80085E080932B019FBF80E00895CF931E
:10099000DF93EC0180912901882309F41CC13FB742
:1009A000F89484E08093E90080912C01882309F475
:1009B00008C18091E80085FD02C03FBF0CC11092C4
:1009C0002C01FFC09091E400975E8091E80085FDC6
:1009D00013C03FBF8091E400891721F481E0809328
:1009E0002C01F9C080912901882309F4F4C03FB794
:1009F000F894B093E900E9CF8091F200242F281BEE
:100A0000822F90E06817790708F4262F822F90E054
:100A10008134910508F0C6C0845B9F4FFC01EE0F46
:100A2000FF1F0590F491E02D099489918093F100C6
:100A300089918093F10089918093F100899180934D
:100A4000F10089918093F10089918093F10089915F
:100A50008093F10089918093F10089918093F10056
:100A600089918093F10089918093F100899180931D
:100A7000F10089918093F10089918093F10089912F
:100A80008093F10089918093F10089918093F10026
:100A900089918093F10089918093F10089918093ED
:100AA000F10089918093F10089918093F1008991FF
:100AB0008093F10089918093F10089918093F100F6
:100AC00089918093F10089918093F10089918093BD
:100AD000F10089918093F10089918093F1008991CF
:100AE0008093F10089918093F10089918093F100C6
:100AF00089918093F10089918093F100899180938D
:100B0000F10089918093F10089918093F10089919E
:100B10008093F10089918093F10089918093F10095
:100B200089918093F10089918093F100899180935C
:100B3000F10089918093F10089918093F10089916E
:100B40008093F10089918093F10089918093F10065
:100B500089918093F10089918093F100899180932C
:100B6000F10089918093F10089918093F10089913E
:100B70008093F10089918093F10089918093F10035
:100B800089918093F10089918093F10089918093FC
:100B9000F10089918093F10089918093F10089910E
:100BA0008093F10089918093F1008091E80085FDA8
:100BB00002C05093E800621B7109A0932B013FBF54
:100BC00004C0B4E040E45AE3A5E06115710509F002
:100BD000F9CE80E001C08FEFDF91CF9108959FB7EC
:100BE000F89480912B01882341F084E08093E90000
:100BF0008AE38093E80010922B019FBF08956091D3
:100C000015017091160180911701909118010895B6
:100C100080911901089580911A01089580911B0116
:100C2000089580912A010895282F9FB7F894809104
:100C30002901882339F082E08093E9008091E8005F
:100C400085FD03C09FBF8FEF089581EA8093F10077
:100C500080E28093F1001092F1001092F100109266
:100C6000F1001092F10081E08093F1001092F10008
:100C70002093F1008AE38093E8009FBF80E008950D
:100C80001F920F920FB60F9211248F939F93809112
:100C9000E1001092E100982F83FF11C01092E9004B
:100CA00081E08093EB001092EC0082E18093ED00F4
:100CB00088E08093F0001092290110922A0192FF9F
:100CC00013C080912901882379F080912B0188231A
:100CD00059F0815080932B01882331F484E0809374
:100CE000E9008AE38093E8009F918F910F900FBEF7
:100CF0000F901F9018951F920F920FB60F920BB680
:100D00000F9211240F931F932F933F934F935F9351
:100D10006F937F938F939F93AF93BF93EF93FF93C3
:100D20001092E9008091E80083FF3CC14091F100FE
:100D30003091F1008091F100682F70E02091F10076
:100D4000922F80E0682B792B8091F100A82FB0E0E2
:100D50002091F100922F80E0A82BB92B1091F10087
:100D60000091F10082EF8093E800363009F05AC01C
:100D700021E231E0A90145505040F90137978591B2
:100D800094918617970701F5FA01859194918A1736
:100D90009B07D1F49A012E5F3F4FF9016591749141
:100DA0002E5F3F4FF9014491212F30E0902F80E0DA
:100DB000282B392B2F3F310519F010F02FEF30E0A1
:100DC000241758F4422F09C0295F3F4F495F5F4FF6
:100DD000F1E02B343F0789F6E5C05EEF8091E80033
:100DE000282F30E0C90185709070892BB9F322FD5E
:100DF000DCC0342F413108F030E1232FCB0106C095
:100E0000FC010196E491E093F10021502223C1F707
:100E1000630F711D431B5093E8004423F9F63031F2
:100E2000E9F2C3C0353061F48EEF8093E800809121
:100E3000E80080FFFCCF862F80688093E300B5C078
:100E4000393051F5442309F0ADC060932901109267
:100E50002A0110922B018EEF8093E80084E491E048
:100E600021E02093E900FC010196E491E093EB007E
:100E7000EE2369F0AC014F5F5F4FFC0184918093DA
:100E8000EC00CA010196FA0134913093ED002F5F16
:100E9000253039F78EE181C0383061F4403809F0EF
:100EA00081C08091E80080FFFCCF80912901809370
:100EB000F10050C0313289F4413A09F073C0809199
:100EC000E80080FFFCCFE5E1F1E081918093F10043
:100ED00081E0EC31F807C9F73DC03032A1F441326E
:100EE00009F060C08091E80082FFFCCFE5E1F1E00D
:100EF0008091F100819381E0EC31F807C9F78BEF25
:100F00008093E80027C0323251F4413209F04AC0E0
:100F100060932A018091E80080FFFCCF1BC033233F
:100F2000E9F48091E80080FFFCCF423811F080E0C6
:100F30000DC0A093E9008091EB0090E025E096952C
:100F400087952A95E1F781701092E9008093F1006E
:100F50001092F1008EEF8093E80027C0313011F03D
:100F6000333001F54230F1F4672BE1F42A2F2F776B
:100F7000822F81508430B0F48EEF8093E80020936C
:100F8000E900333079F089E18093EB0081E090E073
:100F900002C0880F991F2A95E2F78093EA00109209
:100FA000EA0003C081E28093EB00FF91EF91BF91D3
:100FB000AF919F918F917F916F915F914F913F91F1
:100FC0002F911F910F910F900BBE0F900FBE0F909E
:100FD0001F9018950E94B4030E94130188E081B904
:100FE00082B90895FF920F931F93CF93DF9380E808
:100FF0008093610081E0809361000E94F6030E946B
:101000000F048823E1F380E197E228EC30E0F90156
:101010003197F1F70197D9F70E94EA070E94420140
:10102000789405E010E0C0E2D0E080E8F82E0E945D
:101030007402809126018823D1F3109226018091B9
:101040001C018F5F80931C01882311F4F0921C0116
:10105000109335010093340180911C01809333017A
:10106000D0933701C09336010E944F010E9497012F
:10107000DECFCF93DF93EC0103C021960E9465047D
:1010800088818823D1F7DF91CF910895F894FFCF1D
:101090000807060500000100020003000400050027
:0E10A000060007000100E100000000088000CB
:00000001FF
