:100000000C94F2000C9411010C9411010C94110148
:100010000C9411010C9411010C9411010C94110118
:100020000C9411010C9411010C94BB070C94F6076D
:100030000C9411010C9411010C9411010C941101F8
:100040000C9411010C9431050C944F050C94110182
:100050000C9411010C9411010C9411010C941101D8
:100060000C9411010C9411010C9411010C941101C8
:100070000C9411010C94F5010C9411010C941101D4
:100080000C9411010C9411010C9411010C941101A8
:100090000C9411010C94110150074D074A074707B2
:1000A000440741073E073B073807350732072F074C
:1000B0002C0729072607230720071D071A071707FC
:1000C000140711070E070B07080705070207FF06AD
:1000D000FC06F906F606F306F006ED06EA06E70664
:1000E000E406E106DE06DB06D806D506D206CF0614
:1000F000CC06C906C606C306C006BD06BA06B706C4
:10010000B406B106AE06AB06A806A506A2069F0673
:100110009C069906960693069006000100004E0183
:10012000120002000060014300030000A30104016B
:10013000030904A7011402030904BD0116030309FE
:1001400004D5010C0001C112018036018136120173
:10015000000202000010C0167A040001010203012F
:1001600009024300020100C032090400000102023A
:1001700001000524001001052401010104240206E8
:100180000524060001070582031000400904010050
:10019000020A000000070503024000000705840270
:1001A00040000004030904140359006F0075007235
:1001B0000020004E0061006D006500000016035530
:1001C0000053004200200053006500720069006186
:1001D000006C0000000C03310032003300340035A5
:1001E0000000000011241FBECFEFD0E2DEBFCDBF64
:1001F00011E0A0E0B1E0EEECF2E100E00BBF02C0E4
:1002000007900D92AA31B107D9F711E0AAE1B1E048
:1002100001C01D92AD37B107E1F70E9420010C9497
:1002200065090C9400000E940A050E94B701559AC6
:100230005D98569A5E98259A2D982098289A089548
:10024000CF93DF9380E880936100109261000E9459
:1002500071050E948A058823E1F380E197E220E995
:1002600031E0F9013197F1F70197D9F70E941301B5
:100270000E947B0278940E94CA0380911A01909197
:100280001B01892BC1F30E946202EC0110921B0139
:1002900010921A01809134019091350181309105BD
:1002A00071F08130910538F082309105D9F00397D3
:1002B00009F04BC023C0CE010E94C80246C0209165
:1002C00011013091120180913F01909140018217FC
:1002D0009307D8F58091110190911201C817D907A1
:1002E000A0F11EC0209111013091120180913F01B7
:1002F000909140012817390740F51CC020913F011B
:100300003091400180911101909112012817390715
:1003100050F48091110190911201C817D90718F07B
:1003200080E090E010C0809111019091120182173D
:10033000930758F480911101909112018C179D0739
:1003400020F081E090E00E94B102D0934001C09380
:100350003F0191CFCF93DF93EC0103C021960E9420
:10036000E00588818823D1F7DF91CF91089510921D
:100370001B0110921A0180E180937A0010927B0099
:1003800010927C0010921D0110921C0110921E010F
:1003900081E08093000180E090E0FC01EE0FFF1F00
:1003A000EF5DFE4F11821082019688309105A9F70A
:1003B00080917A00886280937A0080917A008660CA
:1003C00080937A0080917B00856880937B0083E432
:1003D00080937C0080917E00886080937E00809175
:1003E0007A00806880937A0008951F920F920FB66A
:1003F0000F920BB60F9211242F933F934F935F935D
:100400006F937F938F939F93EF93FF9390917800D7
:100410006091790080910001292F30E0882359F004
:10042000962F80E0820F931F9093200180931F01ED
:100430001092000136C040911F0150912001421BD3
:10044000530B962F80E0481B590B20911E0130E082
:10045000F901EE0FFF1FEF5DFE4F6081718180910A
:100460001C0190911D01861B970B51834083840FC3
:10047000951F90931D0180931C012F5F3F4F2770A4
:10048000307020931E01222349F480911A0190912B
:100490001B01019690931B0180931A0181E08093C8
:1004A0000001FF91EF919F918F917F916F915F91EB
:1004B0004F913F912F910F900BBE0F900FBE0F9059
:1004C0001F90189580911C0190911D0197FF0BC002
:1004D00090E080910001882309F491E0909300015D
:1004E00020E030E006C09C0173E0359527957A95B1
:1004F000E1F7C901089580E494E590934201809367
:10050000410181E093EA909344018093430108956F
:10051000809105018F5F80930501882319F480E89D
:1005200080930501809105018093470180E290E06E
:1005300090934B0180934A0108950F931F9301E418
:1005400011E0C8016BE070E00E9442066091450135
:1005500070914601C8010B960E9442061F910F91AF
:10056000089523E030E030934901209348018093BF
:100570004C0181E090E090934601809345010E94F8
:1005800088020E949D028BB190E489278BB908955F
:1005900025E030E0309349012093480180934C01DD
:1005A00090934D0182E090E0909346018093450145
:1005B0000E9488020E949D028BB190E489278BB92A
:1005C00008958091E80085FF09C080914A019091CB
:1005D0004B01906290934B0180934A018091E80017
:1005E00085FD0AC0109246011092450181E491E018
:1005F0006BE070E00E944206089584E090E09093E2
:1006000046018093450181E491E06BE070E00E9437
:100610004206609145017091460181E091E00E949F
:10062000420608958091E80085FF09C080914A0143
:1006300090914B01906290934B0180934A0180917D
:10064000E80085FD14C08AE090E090934601809315
:10065000450181E491E06BE070E00E944206609108
:1006600045017091460186E091E00E94420608959E
:100670004091680160916601709167017093490132
:10068000609348019091650190934701382F20E0D5
:10069000240F311D30934B0120934A019091630147
:1006A00084FD74C0413199F1423130F4442351F05A
:1006B000403109F06BC033C0413851F0423809F085
:1006C00065C01CC0992309F061C00E94120360C07C
:1006D000992309F05BC0F89480E494E5909342017B
:1006E0008093410181E093EA909344018093430118
:1006F0000E9413010E942805789448C0992309F0AC
:1007000045C081E0809310010E942E053FC0672BF9
:1007100009F03CC09923D1F50E94FD0239C0623036
:100720007105E1F06630710589F5923079F5F8943C
:1007300080916A0190E0909335018093340120917B
:1007400034013091350190916B0180E0820F931F4D
:100750009093350180933401789418C09230B1F4AD
:10076000F89480916A0190E09093120180931101B6
:10077000209111013091120190916B0180E0820F64
:10078000931F909312018093110178940E94E102CB
:1007900081E008952F923F924F925F926F927F92E5
:1007A0008F929F92AF92BF92CF92DF92EF92FF9281
:1007B0000F931F93CF93DF9366E6C62E61E0D62E8C
:1007C00053E6B52E4CE0A42E32E0432E512C4C0CB7
:1007D0005D1C2DEF622E2FEF722E6C0C7D1C9BEF9B
:1007E000892E9FEF992E8C0C9D1C83E0382E22249D
:1007F0002394F8C00E948D05482F809131018730E5
:1008000009F48AC0883080F48330D9F1843028F428
:10081000813059F1823070F520C0853009F44CC028
:10082000863008F05CC042C08B3009F4A4C08C3024
:1008300038F4893009F486C08A3008F089C074C061
:100840008D3009F4B7C08D3008F4B0C08E3009F493
:10085000B3C08F3009F0BAC0B1C010923901403432
:1008600009F0B6C020923101B3C0443509F0AEC0E2
:1008700082E032C040936101F40111823092310173
:10088000A7C0D42FC0E080916101909162018C0FCC
:100890009D1F9093620180936101892B29F48091BF
:1008A0003901806180933901F4E03BC040936301DA
:1008B000F3011182F5E035C0142F00E0809163014F
:1008C00090916401800F911F909364018093630164
:1008D000409708F07BC086E08093310179C0409357
:1008E000650180911001882319F01092100110C049
:1008F000242F30E08091380190E001968F7790703E
:100900002817390729F080913901826080933901D5
:1009100040933801E7E04BC040936601F601118235
:10092000F8E0F093310154C0F42EEE24809166017A
:10093000909167018E0D9F1D9093670180936601D2
:1009400089E0CACF40936801F2011182FAE0E9CF51
:1009500040933A018091630190916401892B41F0A9
:100960008BE080933101109233011092320130C03C
:1009700040FF29C018C08091320190913301FC01E1
:10098000E15AFE4F438701969093330180933201E1
:10099000209163013091640182179307C9F480911B
:1009A0003A0180FF10C0A092310112C0EDE0E09347
:1009B00031010EC0FEE0B5CF8FE08ECF80913901BE
:1009C000846080933901B092310102C010923101EC
:1009D00080913101833631F4809139010E943803CE
:1009E000109231010E94B205882309F003CFDF91F4
:1009F000CF911F910F91FF90EF90DF90CF90BF901C
:100A0000AF909F908F907F906F905F904F903F90AE
:100A10002F900895AFE6B0E01C9286E086BB10925E
:100A20008500109284008DE690E090938900809379
:100A3000880085E990E090938B0080938A00E0E83D
:100A4000F0E08081806480838C9186608C9308952F
:100A5000E1E8F0E080818260808308951092810057
:100A600008951F920F920FB60F920BB60F9211249A
:100A70008F939F93EF93FF93E8E8F0E0808191815B
:100A800083599F4F91838083FF91EF919F918F9125
:100A90000F900BBE0F900FBE0F901F9018951F92D6
:100AA0000F920FB60F920BB60F9211248F939F9354
:100AB000EF93FF938BB190E289278BB9EAE8F0E0DE
:100AC0008081918185569F4E91838083FF91EF9124
:100AD0009F918F910F900BBE0F900FBE0F901F90A4
:100AE000189581E88093D70080EA8093D80086E14A
:100AF00089BD09B400FEFDCF80E98093D800109233
:100B0000E00010923B0110923C018CE08093E200E7
:100B10007894089580913B0108952FB7F8948091BF
:100B20003B01882369F083E08093E9009BE6809194
:100B3000E80085FD09C082FF03C09093E800F7CF6D
:100B40002FBF2FEF3FEF0CC09091F1008091E80094
:100B500085FD03C08BE68093E8002FBF292F30E08E
:100B6000C90108952FB7F89480913B01882311F4AF
:100B700090E010C083E08093E9009091F200992307
:100B800049F48091E80082FF05C085FD03C08BE633
:100B90008093E8002FBF892F089580913B0188231F
:100BA00071F09FB7F89483E08093E9002BE602C0D0
:100BB0002093E8008091E80085FDFACF9FBF08955B
:100BC000482F80913B018823D9F12FB7F89484E016
:100BD0008093E90080913E01882341F08091E800F4
:100BE00085FD02C02FBF12C010923E019091E4001B
:100BF000975E34E08091E80085FD13C02FBF80919F
:100C0000E400891729F481E080933E018FEF089575
:100C100080913B018823A1F02FB7F8943093E9002D
:100C2000E9CF4093F1008091E80085FD03C08AE39D
:100C30008093E80085E080933D012FBF80E0089518
:100C40008FEF0895282F80913B01882351F09FB7A3
:100C5000F89484E08093E9008091E80085FD03C06A
:100C60009FBF8FEF08952093F1008091E80085FDEC
:100C700003C08AE38093E80085E080933D019FBF35
:100C800080E00895CF93DF93EC0180913B018823AE
:100C900009F41CC13FB7F89484E08093E900809187
:100CA0003E01882309F408C18091E80085FD02C057
:100CB0003FBF0CC110923E01FFC09091E400975ECF
:100CC0008091E80085FD13C03FBF8091E400891743
:100CD00021F481E080933E01F9C080913B0188239B
:100CE00009F4F4C03FB7F894B093E900E9CF8091DC
:100CF000F200242F281B822F90E06817790708F450
:100D0000262F822F90E08134910508F0C6C0845BC5
:100D10009F4FFC01EE0FFF1F0590F491E02D099409
:100D200089918093F10089918093F100899180935A
:100D3000F10089918093F10089918093F10089916C
:100D40008093F10089918093F10089918093F10063
:100D500089918093F10089918093F100899180932A
:100D6000F10089918093F10089918093F10089913C
:100D70008093F10089918093F10089918093F10033
:100D800089918093F10089918093F10089918093FA
:100D9000F10089918093F10089918093F10089910C
:100DA0008093F10089918093F10089918093F10003
:100DB00089918093F10089918093F10089918093CA
:100DC000F10089918093F10089918093F1008991DC
:100DD0008093F10089918093F10089918093F100D3
:100DE00089918093F10089918093F100899180939A
:100DF000F10089918093F10089918093F1008991AC
:100E00008093F10089918093F10089918093F100A2
:100E100089918093F10089918093F1008991809369
:100E2000F10089918093F10089918093F10089917B
:100E30008093F10089918093F10089918093F10072
:100E400089918093F10089918093F1008991809339
:100E5000F10089918093F10089918093F10089914B
:100E60008093F10089918093F10089918093F10042
:100E700089918093F10089918093F1008991809309
:100E8000F10089918093F10089918093F10089911B
:100E90008093F10089918093F10089918093F10012
:100EA0008091E80085FD02C05093E800621B710943
:100EB000A0933D013FBF04C0B4E040E45AE3A5E085
:100EC0006115710509F0F9CE80E001C08FEFDF9167
:100ED000CF9108959FB7F89480913D01882341F008
:100EE00084E08093E9008AE38093E80010923D015A
:100EF0009FBF0895609113017091140180911501B5
:100F0000909116010895809117010895809118011C
:100F1000089580911901089580913C010895282F2A
:100F20009FB7F89480913B01882339F082E0809349
:100F3000E9008091E80085FD03C09FBF8FEF089511
:100F400081EA8093F10080E28093F1001092F10039
:100F50001092F1001092F1001092F10081E0809364
:100F6000F1001092F1002093F1008AE38093E800F1
:100F70009FBF80E008951F920F920FB60F92112429
:100F80008F939F938091E1001092E100982F83FF4F
:100F900011C01092E90081E08093EB001092EC0008
:100FA00082E18093ED0088E08093F00010923B0195
:100FB00010923C0192FF13C080913B01882379F08D
:100FC00080913D01882359F0815080933D01882311
:100FD00031F484E08093E9008AE38093E8009F91F4
:100FE0008F910F900FBE0F901F9018951F920F9228
:100FF0000FB60F920BB60F9211240F931F932F93DE
:101000003F934F935F936F937F938F939F93AF9390
:10101000BF93EF93FF931092E9008091E80083FF64
:101020003CC14091F1003091F1008091F100682FB6
:1010300070E02091F100922F80E0682B792B809155
:10104000F100A82FB0E02091F100922F80E0A82BB2
:10105000B92B1091F1000091F10082EF8093E8002C
:10106000363009F05AC021E231E0A9014550504024
:10107000F9013797859194918617970701F5FA0141
:10108000859194918A179B07D1F49A012E5F3F4F67
:10109000F901659174912E5F3F4FF9014491212F21
:1010A00030E0902F80E0282B392B2F3F310519F0AD
:1010B00010F02FEF30E0241758F4422F09C0295FB9
:1010C0003F4F495F5F4FF1E02B343F0789F6E5C0A2
:1010D0005EEF8091E800282F30E0C90185709070A4
:1010E000892BB9F322FDDCC0342F413108F030E107
:1010F000232FCB0106C0FC010196E491E093F1009F
:1011000021502223C1F7630F711D431B5093E80048
:101110004423F9F63031E9F2C3C0353061F48EEF83
:101120008093E8008091E80080FFFCCF862F8068E4
:101130008093E300B5C0393051F5442309F0ADC0C8
:1011400060933B0110923C0110923D018EEF809321
:10115000E80084E491E021E02093E900FC0101969D
:10116000E491E093EB00EE2369F0AC014F5F5F4F39
:10117000FC0184918093EC00CA010196FA0134913C
:101180003093ED002F5F253039F78EE181C0383084
:1011900061F4403809F081C08091E80080FFFCCF05
:1011A00080913B018093F10050C0313289F4413A83
:1011B00009F073C08091E80080FFFCCFE3E1F1E02B
:1011C00081918093F10081E0EA31F807C9F73DC0D1
:1011D0003032A1F4413209F060C08091E80082FF12
:1011E000FCCFE3E1F1E08091F100819381E0EA310D
:1011F000F807C9F78BEF8093E80027C0323251F42B
:10120000413209F04AC060933C018091E80080FFC0
:10121000FCCF1BC03323E9F48091E80080FFFCCFB2
:10122000423811F080E00DC0A093E9008091EB00FE
:1012300090E025E0969587952A95E1F781701092C8
:10124000E9008093F1001092F1008EEF8093E800A6
:1012500027C0313011F0333001F54230F1F4672B03
:10126000E1F42A2F2F77822F81508430B0F48EEF53
:101270008093E8002093E900333079F089E180938E
:10128000EB0081E090E002C0880F991F2A95E2F7F9
:101290008093EA001092EA0003C081E28093EB00A1
:1012A000FF91EF91BF91AF919F918F917F916F913E
:1012B0005F914F913F912F911F910F910F900BBE16
:0E12C0000F900FBE0F901F901895F894FFCF5F
:1012CE0001FD060605800000020003000400050073
:0A12DE0001C80000E1000000000854
:00000001FF
